{
  "contractName": "Patient",
  "abi": [
    {
      "inputs": [
        {
          "internalType": "address[]",
          "name": "_powerUsers",
          "type": "address[]"
        },
        {
          "internalType": "address[]",
          "name": "_adminUsers",
          "type": "address[]"
        }
      ],
      "payable": false,
      "stateMutability": "nonpayable",
      "type": "constructor"
    },
    {
      "anonymous": false,
      "inputs": [
        {
          "indexed": false,
          "internalType": "uint256",
          "name": "patientID",
          "type": "uint256"
        },
        {
          "indexed": false,
          "internalType": "address",
          "name": "from",
          "type": "address"
        },
        {
          "indexed": false,
          "internalType": "address",
          "name": "to",
          "type": "address"
        },
        {
          "indexed": false,
          "internalType": "address",
          "name": "allocater",
          "type": "address"
        }
      ],
      "name": "Allocate",
      "type": "event"
    },
    {
      "anonymous": false,
      "inputs": [
        {
          "indexed": true,
          "internalType": "address",
          "name": "owner",
          "type": "address"
        },
        {
          "indexed": true,
          "internalType": "address",
          "name": "approved",
          "type": "address"
        },
        {
          "indexed": true,
          "internalType": "uint256",
          "name": "tokenId",
          "type": "uint256"
        }
      ],
      "name": "Approval",
      "type": "event"
    },
    {
      "anonymous": false,
      "inputs": [
        {
          "indexed": true,
          "internalType": "address",
          "name": "owner",
          "type": "address"
        },
        {
          "indexed": true,
          "internalType": "address",
          "name": "operator",
          "type": "address"
        },
        {
          "indexed": false,
          "internalType": "bool",
          "name": "approved",
          "type": "bool"
        }
      ],
      "name": "ApprovalForAll",
      "type": "event"
    },
    {
      "anonymous": false,
      "inputs": [
        {
          "indexed": false,
          "internalType": "address",
          "name": "user",
          "type": "address"
        }
      ],
      "name": "CreateAdminUser",
      "type": "event"
    },
    {
      "anonymous": false,
      "inputs": [
        {
          "indexed": false,
          "internalType": "address",
          "name": "user",
          "type": "address"
        }
      ],
      "name": "CreatePowerUser",
      "type": "event"
    },
    {
      "anonymous": false,
      "inputs": [
        {
          "indexed": false,
          "internalType": "uint256",
          "name": "patientID",
          "type": "uint256"
        },
        {
          "indexed": false,
          "internalType": "address",
          "name": "lister",
          "type": "address"
        }
      ],
      "name": "List",
      "type": "event"
    },
    {
      "anonymous": false,
      "inputs": [
        {
          "indexed": false,
          "internalType": "uint256",
          "name": "patientID",
          "type": "uint256"
        },
        {
          "indexed": false,
          "internalType": "address",
          "name": "resolver",
          "type": "address"
        }
      ],
      "name": "Resolve",
      "type": "event"
    },
    {
      "anonymous": false,
      "inputs": [
        {
          "indexed": false,
          "internalType": "uint256",
          "name": "patientID",
          "type": "uint256"
        },
        {
          "indexed": false,
          "internalType": "address",
          "name": "from",
          "type": "address"
        },
        {
          "indexed": false,
          "internalType": "address",
          "name": "to",
          "type": "address"
        }
      ],
      "name": "Transfer",
      "type": "event"
    },
    {
      "anonymous": false,
      "inputs": [
        {
          "indexed": true,
          "internalType": "address",
          "name": "from",
          "type": "address"
        },
        {
          "indexed": true,
          "internalType": "address",
          "name": "to",
          "type": "address"
        },
        {
          "indexed": true,
          "internalType": "uint256",
          "name": "tokenId",
          "type": "uint256"
        }
      ],
      "name": "Transfer",
      "type": "event"
    },
    {
      "anonymous": false,
      "inputs": [
        {
          "indexed": false,
          "internalType": "uint256",
          "name": "patientID",
          "type": "uint256"
        },
        {
          "indexed": false,
          "internalType": "address",
          "name": "unlister",
          "type": "address"
        }
      ],
      "name": "Unlist",
      "type": "event"
    },
    {
      "anonymous": false,
      "inputs": [
        {
          "indexed": false,
          "internalType": "uint256",
          "name": "patientID",
          "type": "uint256"
        },
        {
          "indexed": false,
          "internalType": "address",
          "name": "updater",
          "type": "address"
        }
      ],
      "name": "Update",
      "type": "event"
    },
    {
      "constant": false,
      "inputs": [
        {
          "internalType": "address",
          "name": "to",
          "type": "address"
        },
        {
          "internalType": "uint256",
          "name": "tokenId",
          "type": "uint256"
        }
      ],
      "name": "approve",
      "outputs": [],
      "payable": false,
      "stateMutability": "nonpayable",
      "type": "function"
    },
    {
      "constant": true,
      "inputs": [
        {
          "internalType": "address",
          "name": "owner",
          "type": "address"
        }
      ],
      "name": "balanceOf",
      "outputs": [
        {
          "internalType": "uint256",
          "name": "",
          "type": "uint256"
        }
      ],
      "payable": false,
      "stateMutability": "view",
      "type": "function"
    },
    {
      "constant": true,
      "inputs": [
        {
          "internalType": "uint256",
          "name": "tokenId",
          "type": "uint256"
        }
      ],
      "name": "getApproved",
      "outputs": [
        {
          "internalType": "address",
          "name": "",
          "type": "address"
        }
      ],
      "payable": false,
      "stateMutability": "view",
      "type": "function"
    },
    {
      "constant": true,
      "inputs": [
        {
          "internalType": "address",
          "name": "owner",
          "type": "address"
        },
        {
          "internalType": "address",
          "name": "operator",
          "type": "address"
        }
      ],
      "name": "isApprovedForAll",
      "outputs": [
        {
          "internalType": "bool",
          "name": "",
          "type": "bool"
        }
      ],
      "payable": false,
      "stateMutability": "view",
      "type": "function"
    },
    {
      "constant": true,
      "inputs": [],
      "name": "name",
      "outputs": [
        {
          "internalType": "string",
          "name": "",
          "type": "string"
        }
      ],
      "payable": false,
      "stateMutability": "view",
      "type": "function"
    },
    {
      "constant": true,
      "inputs": [
        {
          "internalType": "uint256",
          "name": "tokenId",
          "type": "uint256"
        }
      ],
      "name": "ownerOf",
      "outputs": [
        {
          "internalType": "address",
          "name": "",
          "type": "address"
        }
      ],
      "payable": false,
      "stateMutability": "view",
      "type": "function"
    },
    {
      "constant": false,
      "inputs": [
        {
          "internalType": "address",
          "name": "from",
          "type": "address"
        },
        {
          "internalType": "address",
          "name": "to",
          "type": "address"
        },
        {
          "internalType": "uint256",
          "name": "tokenId",
          "type": "uint256"
        }
      ],
      "name": "safeTransferFrom",
      "outputs": [],
      "payable": false,
      "stateMutability": "nonpayable",
      "type": "function"
    },
    {
      "constant": false,
      "inputs": [
        {
          "internalType": "address",
          "name": "from",
          "type": "address"
        },
        {
          "internalType": "address",
          "name": "to",
          "type": "address"
        },
        {
          "internalType": "uint256",
          "name": "tokenId",
          "type": "uint256"
        },
        {
          "internalType": "bytes",
          "name": "_data",
          "type": "bytes"
        }
      ],
      "name": "safeTransferFrom",
      "outputs": [],
      "payable": false,
      "stateMutability": "nonpayable",
      "type": "function"
    },
    {
      "constant": false,
      "inputs": [
        {
          "internalType": "address",
          "name": "to",
          "type": "address"
        },
        {
          "internalType": "bool",
          "name": "approved",
          "type": "bool"
        }
      ],
      "name": "setApprovalForAll",
      "outputs": [],
      "payable": false,
      "stateMutability": "nonpayable",
      "type": "function"
    },
    {
      "constant": true,
      "inputs": [
        {
          "internalType": "bytes4",
          "name": "interfaceId",
          "type": "bytes4"
        }
      ],
      "name": "supportsInterface",
      "outputs": [
        {
          "internalType": "bool",
          "name": "",
          "type": "bool"
        }
      ],
      "payable": false,
      "stateMutability": "view",
      "type": "function"
    },
    {
      "constant": true,
      "inputs": [],
      "name": "symbol",
      "outputs": [
        {
          "internalType": "string",
          "name": "",
          "type": "string"
        }
      ],
      "payable": false,
      "stateMutability": "view",
      "type": "function"
    },
    {
      "constant": true,
      "inputs": [
        {
          "internalType": "uint256",
          "name": "index",
          "type": "uint256"
        }
      ],
      "name": "tokenByIndex",
      "outputs": [
        {
          "internalType": "uint256",
          "name": "",
          "type": "uint256"
        }
      ],
      "payable": false,
      "stateMutability": "view",
      "type": "function"
    },
    {
      "constant": true,
      "inputs": [
        {
          "internalType": "address",
          "name": "owner",
          "type": "address"
        },
        {
          "internalType": "uint256",
          "name": "index",
          "type": "uint256"
        }
      ],
      "name": "tokenOfOwnerByIndex",
      "outputs": [
        {
          "internalType": "uint256",
          "name": "",
          "type": "uint256"
        }
      ],
      "payable": false,
      "stateMutability": "view",
      "type": "function"
    },
    {
      "constant": true,
      "inputs": [
        {
          "internalType": "uint256",
          "name": "tokenId",
          "type": "uint256"
        }
      ],
      "name": "tokenURI",
      "outputs": [
        {
          "internalType": "string",
          "name": "",
          "type": "string"
        }
      ],
      "payable": false,
      "stateMutability": "view",
      "type": "function"
    },
    {
      "constant": true,
      "inputs": [],
      "name": "totalSupply",
      "outputs": [
        {
          "internalType": "uint256",
          "name": "",
          "type": "uint256"
        }
      ],
      "payable": false,
      "stateMutability": "view",
      "type": "function"
    },
    {
      "constant": false,
      "inputs": [
        {
          "internalType": "address",
          "name": "from",
          "type": "address"
        },
        {
          "internalType": "address",
          "name": "to",
          "type": "address"
        },
        {
          "internalType": "uint256",
          "name": "tokenId",
          "type": "uint256"
        }
      ],
      "name": "transferFrom",
      "outputs": [],
      "payable": false,
      "stateMutability": "nonpayable",
      "type": "function"
    },
    {
      "constant": false,
      "inputs": [
        {
          "internalType": "address",
          "name": "user",
          "type": "address"
        }
      ],
      "name": "createPowerUser",
      "outputs": [],
      "payable": false,
      "stateMutability": "nonpayable",
      "type": "function"
    },
    {
      "constant": true,
      "inputs": [
        {
          "internalType": "address",
          "name": "user",
          "type": "address"
        }
      ],
      "name": "getPowerUser",
      "outputs": [
        {
          "internalType": "bool",
          "name": "",
          "type": "bool"
        }
      ],
      "payable": false,
      "stateMutability": "view",
      "type": "function"
    },
    {
      "constant": false,
      "inputs": [
        {
          "internalType": "address",
          "name": "user",
          "type": "address"
        }
      ],
      "name": "createAdminUser",
      "outputs": [],
      "payable": false,
      "stateMutability": "nonpayable",
      "type": "function"
    },
    {
      "constant": true,
      "inputs": [
        {
          "internalType": "address",
          "name": "user",
          "type": "address"
        }
      ],
      "name": "getAdminUser",
      "outputs": [
        {
          "internalType": "bool",
          "name": "",
          "type": "bool"
        }
      ],
      "payable": false,
      "stateMutability": "view",
      "type": "function"
    },
    {
      "constant": false,
      "inputs": [
        {
          "internalType": "uint256",
          "name": "patientID",
          "type": "uint256"
        },
        {
          "internalType": "address",
          "name": "student",
          "type": "address"
        }
      ],
      "name": "allocatePatient",
      "outputs": [],
      "payable": false,
      "stateMutability": "nonpayable",
      "type": "function"
    },
    {
      "constant": false,
      "inputs": [
        {
          "internalType": "uint256[]",
          "name": "possessedIndications",
          "type": "uint256[]"
        }
      ],
      "name": "createPatient",
      "outputs": [
        {
          "internalType": "uint256",
          "name": "",
          "type": "uint256"
        }
      ],
      "payable": false,
      "stateMutability": "nonpayable",
      "type": "function"
    },
    {
      "constant": false,
      "inputs": [
        {
          "internalType": "uint256",
          "name": "patientID",
          "type": "uint256"
        }
      ],
      "name": "listPatient",
      "outputs": [],
      "payable": false,
      "stateMutability": "nonpayable",
      "type": "function"
    },
    {
      "constant": false,
      "inputs": [
        {
          "internalType": "uint256",
          "name": "patientID",
          "type": "uint256"
        }
      ],
      "name": "resolvePatient",
      "outputs": [],
      "payable": false,
      "stateMutability": "nonpayable",
      "type": "function"
    },
    {
      "constant": false,
      "inputs": [
        {
          "internalType": "address",
          "name": "_requestAddress",
          "type": "address"
        }
      ],
      "name": "setRequestAddress",
      "outputs": [],
      "payable": false,
      "stateMutability": "nonpayable",
      "type": "function"
    },
    {
      "constant": false,
      "inputs": [
        {
          "internalType": "uint256",
          "name": "patientID",
          "type": "uint256"
        },
        {
          "internalType": "address",
          "name": "student",
          "type": "address"
        }
      ],
      "name": "studentTransfer",
      "outputs": [],
      "payable": false,
      "stateMutability": "nonpayable",
      "type": "function"
    },
    {
      "constant": false,
      "inputs": [
        {
          "internalType": "uint256",
          "name": "patientID",
          "type": "uint256"
        },
        {
          "internalType": "uint256[]",
          "name": "_possessedIndications",
          "type": "uint256[]"
        },
        {
          "internalType": "address",
          "name": "_owner",
          "type": "address"
        },
        {
          "internalType": "bool",
          "name": "resolution",
          "type": "bool"
        }
      ],
      "name": "updatePatient",
      "outputs": [],
      "payable": false,
      "stateMutability": "nonpayable",
      "type": "function"
    },
    {
      "constant": false,
      "inputs": [
        {
          "internalType": "uint256",
          "name": "patientID",
          "type": "uint256"
        }
      ],
      "name": "unlistPatient",
      "outputs": [],
      "payable": false,
      "stateMutability": "nonpayable",
      "type": "function"
    },
    {
      "constant": true,
      "inputs": [
        {
          "internalType": "uint256",
          "name": "patientID",
          "type": "uint256"
        }
      ],
      "name": "getIndications",
      "outputs": [
        {
          "internalType": "uint256[]",
          "name": "",
          "type": "uint256[]"
        }
      ],
      "payable": false,
      "stateMutability": "view",
      "type": "function"
    },
    {
      "constant": true,
      "inputs": [],
      "name": "getOwner",
      "outputs": [
        {
          "internalType": "address",
          "name": "",
          "type": "address"
        }
      ],
      "payable": false,
      "stateMutability": "view",
      "type": "function"
    },
    {
      "constant": true,
      "inputs": [
        {
          "internalType": "uint256",
          "name": "patientID",
          "type": "uint256"
        }
      ],
      "name": "getPatient",
      "outputs": [
        {
          "internalType": "uint256[]",
          "name": "",
          "type": "uint256[]"
        },
        {
          "internalType": "address",
          "name": "",
          "type": "address"
        },
        {
          "internalType": "bool",
          "name": "",
          "type": "bool"
        }
      ],
      "payable": false,
      "stateMutability": "view",
      "type": "function"
    },
    {
      "constant": true,
      "inputs": [],
      "name": "getTotalPatients",
      "outputs": [
        {
          "internalType": "uint256",
          "name": "",
          "type": "uint256"
        }
      ],
      "payable": false,
      "stateMutability": "view",
      "type": "function"
    }
  ],
  "bytecode": "0x608060405233600d60006101000a81548173ffffffffffffffffffffffffffffffffffffffff021916908373ffffffffffffffffffffffffffffffffffffffff1602179055503480156200005257600080fd5b50604051620043c4380380620043c4833981810160405260408110156200007857600080fd5b81019080805160405193929190846401000000008211156200009957600080fd5b83820191506020820185811115620000b057600080fd5b8251866020820283011164010000000082111715620000ce57600080fd5b8083526020830192505050908051906020019060200280838360005b8381101562000107578082015181840152602081019050620000ea565b50505050905001604052602001805160405193929190846401000000008211156200013157600080fd5b838201915060208201858111156200014857600080fd5b82518660208202830111640100000000821117156200016657600080fd5b8083526020830192505050908051906020019060200280838360005b838110156200019f57808201518184015260208101905062000182565b505050509050016040525050506040518060400160405280600781526020017f50617469656e74000000000000000000000000000000000000000000000000008152506040518060400160405280600381526020017f50415400000000000000000000000000000000000000000000000000000000008152508181620002326301ffc9a760e01b6200042c60201b60201c565b6200024a6380ac58cd60e01b6200042c60201b60201c565b6200026263780e9d6360e01b6200042c60201b60201c565b81600990805190602001906200027a929190620006d9565b5080600a908051906020019062000293929190620006d9565b50620002ac635b5e139f60e01b6200042c60201b60201c565b505050506001601281905550600060138190555060008090505b825181101562000371576001600e6000858481518110620002e357fe5b602002602001015173ffffffffffffffffffffffffffffffffffffffff1673ffffffffffffffffffffffffffffffffffffffff16815260200190815260200160002060006101000a81548160ff021916908315150217905550620003638382815181106200034d57fe5b602002602001015160016200053560201b60201c565b8080600101915050620002c6565b5060008090505b815181101562000423576001600f60008484815181106200039557fe5b602002602001015173ffffffffffffffffffffffffffffffffffffffff1673ffffffffffffffffffffffffffffffffffffffff16815260200190815260200160002060006101000a81548160ff02191690831515021790555062000415828281518110620003ff57fe5b602002602001015160016200053560201b60201c565b808060010191505062000378565b50505062000788565b63ffffffff60e01b817bffffffffffffffffffffffffffffffffffffffffffffffffffffffff19161415620004c9576040517f08c379a000000000000000000000000000000000000000000000000000000000815260040180806020018281038252601c8152602001807f4552433136353a20696e76616c696420696e746572666163652069640000000081525060200191505060405180910390fd5b6001600080837bffffffffffffffffffffffffffffffffffffffffffffffffffffffff19167bffffffffffffffffffffffffffffffffffffffffffffffffffffffff1916815260200190815260200160002060006101000a81548160ff02191690831515021790555050565b3373ffffffffffffffffffffffffffffffffffffffff168273ffffffffffffffffffffffffffffffffffffffff161415620005d8576040517f08c379a00000000000000000000000000000000000000000000000000000000081526004018080602001828103825260198152602001807f4552433732313a20617070726f766520746f2063616c6c65720000000000000081525060200191505060405180910390fd5b80600460003373ffffffffffffffffffffffffffffffffffffffff1673ffffffffffffffffffffffffffffffffffffffff16815260200190815260200160002060008473ffffffffffffffffffffffffffffffffffffffff1673ffffffffffffffffffffffffffffffffffffffff16815260200190815260200160002060006101000a81548160ff0219169083151502179055508173ffffffffffffffffffffffffffffffffffffffff163373ffffffffffffffffffffffffffffffffffffffff167f17307eab39ab6107e8899845ad3d59bd9653f200f220920489ca2b5937696c3183604051808215151515815260200191505060405180910390a35050565b828054600181600116156101000203166002900490600052602060002090601f016020900481019282601f106200071c57805160ff19168380011785556200074d565b828001600101855582156200074d579182015b828111156200074c5782518255916020019190600101906200072f565b5b5090506200075c919062000760565b5090565b6200078591905b808211156200078157600081600090555060010162000767565b5090565b90565b613c2c80620007986000396000f3fe608060405234801561001057600080fd5b50600436106101f05760003560e01c8063893d20e81161010f578063c87b56dd116100a2578063f497e18911610071578063f497e18914610da2578063f9bf9a7f14610dc0578063fb58b22214610dee578063fffd7da614610e3c576101f0565b8063c87b56dd14610b4d578063dce4e7cd14610bf4578063e985e9c514610c38578063ea4776e514610cb4576101f0565b8063a6b25930116100de578063a6b2593014610970578063ae3151691461099e578063b7e306a3146109ec578063b88d4fde14610a48576101f0565b8063893d20e81461082557806395d89b411461086f578063a22cb465146108f2578063a529a9c614610942576101f0565b80632f745c591161018757806361878fc41161015657806361878fc41461065a5780636352211e1461069e57806370a082311461070c5780637d3a679614610764576101f0565b80632f745c591461050457806335d78dc51461056657806342842e0e146105aa5780634f6ccce714610618576101f0565b806313e7ca4b116101c357806313e7ca4b1461039957806317f23b2e1461041c57806318160ddd1461047857806323b872dd14610496576101f0565b806301ffc9a7146101f557806306fdde031461025a578063081812fc146102dd578063095ea7b31461034b575b600080fd5b6102406004803603602081101561020b57600080fd5b8101908080357bffffffffffffffffffffffffffffffffffffffffffffffffffffffff19169060200190929190505050610f08565b604051808215151515815260200191505060405180910390f35b610262610f6f565b6040518080602001828103825283818151815260200191508051906020019080838360005b838110156102a2578082015181840152602081019050610287565b50505050905090810190601f1680156102cf5780820380516001836020036101000a031916815260200191505b509250505060405180910390f35b610309600480360360208110156102f357600080fd5b8101908080359060200190929190505050611011565b604051808273ffffffffffffffffffffffffffffffffffffffff1673ffffffffffffffffffffffffffffffffffffffff16815260200191505060405180910390f35b6103976004803603604081101561036157600080fd5b81019080803573ffffffffffffffffffffffffffffffffffffffff169060200190929190803590602001909291905050506110ac565b005b6103c5600480360360208110156103af57600080fd5b8101908080359060200190929190505050611285565b6040518080602001828103825283818151815260200191508051906020019060200280838360005b838110156104085780820151818401526020810190506103ed565b505050509050019250505060405180910390f35b61045e6004803603602081101561043257600080fd5b81019080803573ffffffffffffffffffffffffffffffffffffffff1690602001909291905050506112f3565b604051808215151515815260200191505060405180910390f35b6104806113fe565b6040518082815260200191505060405180910390f35b610502600480360360608110156104ac57600080fd5b81019080803573ffffffffffffffffffffffffffffffffffffffff169060200190929190803573ffffffffffffffffffffffffffffffffffffffff1690602001909291908035906020019092919050505061140b565b005b6105506004803603604081101561051a57600080fd5b81019080803573ffffffffffffffffffffffffffffffffffffffff1690602001909291908035906020019092919050505061145b565b6040518082815260200191505060405180910390f35b6105a86004803603602081101561057c57600080fd5b81019080803573ffffffffffffffffffffffffffffffffffffffff16906020019092919050505061151a565b005b610616600480360360608110156105c057600080fd5b81019080803573ffffffffffffffffffffffffffffffffffffffff169060200190929190803573ffffffffffffffffffffffffffffffffffffffff169060200190929190803590602001909291905050506115b8565b005b6106446004803603602081101561062e57600080fd5b81019080803590602001909291905050506115d8565b6040518082815260200191505060405180910390f35b61069c6004803603602081101561067057600080fd5b81019080803573ffffffffffffffffffffffffffffffffffffffff169060200190929190505050611658565b005b6106ca600480360360208110156106b457600080fd5b81019080803590602001909291905050506117d6565b604051808273ffffffffffffffffffffffffffffffffffffffff1673ffffffffffffffffffffffffffffffffffffffff16815260200191505060405180910390f35b61074e6004803603602081101561072257600080fd5b81019080803573ffffffffffffffffffffffffffffffffffffffff16906020019092919050505061189e565b6040518082815260200191505060405180910390f35b6107906004803603602081101561077a57600080fd5b8101908080359060200190929190505050611973565b60405180806020018473ffffffffffffffffffffffffffffffffffffffff1673ffffffffffffffffffffffffffffffffffffffff16815260200183151515158152602001828103825285818151815260200191508051906020019060200280838360005b8381101561080f5780820151818401526020810190506107f4565b5050505090500194505050505060405180910390f35b61082d611b58565b604051808273ffffffffffffffffffffffffffffffffffffffff1673ffffffffffffffffffffffffffffffffffffffff16815260200191505060405180910390f35b610877611b82565b6040518080602001828103825283818151815260200191508051906020019080838360005b838110156108b757808201518184015260208101905061089c565b50505050905090810190601f1680156108e45780820380516001836020036101000a031916815260200191505b509250505060405180910390f35b6109406004803603604081101561090857600080fd5b81019080803573ffffffffffffffffffffffffffffffffffffffff169060200190929190803515159060200190929190505050611c24565b005b61096e6004803603602081101561095857600080fd5b8101908080359060200190929190505050611dc7565b005b61099c6004803603602081101561098657600080fd5b8101908080359060200190929190505050611edc565b005b6109ea600480360360408110156109b457600080fd5b8101908080359060200190929190803573ffffffffffffffffffffffffffffffffffffffff169060200190929190505050612057565b005b610a2e60048036036020811015610a0257600080fd5b81019080803573ffffffffffffffffffffffffffffffffffffffff169060200190929190505050612190565b604051808215151515815260200191505060405180910390f35b610b4b60048036036080811015610a5e57600080fd5b81019080803573ffffffffffffffffffffffffffffffffffffffff169060200190929190803573ffffffffffffffffffffffffffffffffffffffff1690602001909291908035906020019092919080359060200190640100000000811115610ac557600080fd5b820183602082011115610ad757600080fd5b80359060200191846001830284011164010000000083111715610af957600080fd5b91908080601f016020809104026020016040519081016040528093929190818152602001838380828437600081840152601f19601f820116905080830192505050505050509192919290505050612240565b005b610b7960048036036020811015610b6357600080fd5b81019080803590602001909291905050506122b2565b6040518080602001828103825283818151815260200191508051906020019080838360005b83811015610bb9578082015181840152602081019050610b9e565b50505050905090810190601f168015610be65780820380516001836020036101000a031916815260200191505b509250505060405180910390f35b610c3660048036036020811015610c0a57600080fd5b81019080803573ffffffffffffffffffffffffffffffffffffffff1690602001909291905050506123c5565b005b610c9a60048036036040811015610c4e57600080fd5b81019080803573ffffffffffffffffffffffffffffffffffffffff169060200190929190803573ffffffffffffffffffffffffffffffffffffffff1690602001909291905050506124e8565b604051808215151515815260200191505060405180910390f35b610da060048036036080811015610cca57600080fd5b810190808035906020019092919080359060200190640100000000811115610cf157600080fd5b820183602082011115610d0357600080fd5b80359060200191846020830284011164010000000083111715610d2557600080fd5b919080806020026020016040519081016040528093929190818152602001838360200280828437600081840152601f19601f820116905080830192505050505050509192919290803573ffffffffffffffffffffffffffffffffffffffff16906020019092919080351515906020019092919050505061257c565b005b610daa612750565b6040518082815260200191505060405180910390f35b610dec60048036036020811015610dd657600080fd5b810190808035906020019092919050505061275a565b005b610e3a60048036036040811015610e0457600080fd5b8101908080359060200190929190803573ffffffffffffffffffffffffffffffffffffffff169060200190929190505050612914565b005b610ef260048036036020811015610e5257600080fd5b8101908080359060200190640100000000811115610e6f57600080fd5b820183602082011115610e8157600080fd5b80359060200191846020830284011164010000000083111715610ea357600080fd5b919080806020026020016040519081016040528093929190818152602001838360200280828437600081840152601f19601f820116905080830192505050505050509192919290505050612bae565b6040518082815260200191505060405180910390f35b6000806000837bffffffffffffffffffffffffffffffffffffffffffffffffffffffff19167bffffffffffffffffffffffffffffffffffffffffffffffffffffffff1916815260200190815260200160002060009054906101000a900460ff169050919050565b606060098054600181600116156101000203166002900480601f0160208091040260200160405190810160405280929190818152602001828054600181600116156101000203166002900480156110075780601f10610fdc57610100808354040283529160200191611007565b820191906000526020600020905b815481529060010190602001808311610fea57829003601f168201915b5050505050905090565b600061101c82612d8a565b611071576040517f08c379a000000000000000000000000000000000000000000000000000000000815260040180806020018281038252602c815260200180613b27602c913960400191505060405180910390fd5b6002600083815260200190815260200160002060009054906101000a900473ffffffffffffffffffffffffffffffffffffffff169050919050565b60006110b7826117d6565b90508073ffffffffffffffffffffffffffffffffffffffff168373ffffffffffffffffffffffffffffffffffffffff16141561113e576040517f08c379a0000000000000000000000000000000000000000000000000000000008152600401808060200182810382526021815260200180613bab6021913960400191505060405180910390fd5b8073ffffffffffffffffffffffffffffffffffffffff163373ffffffffffffffffffffffffffffffffffffffff16148061117e575061117d81336124e8565b5b6111d3576040517f08c379a0000000000000000000000000000000000000000000000000000000008152600401808060200182810382526038815260200180613a9c6038913960400191505060405180910390fd5b826002600084815260200190815260200160002060006101000a81548173ffffffffffffffffffffffffffffffffffffffff021916908373ffffffffffffffffffffffffffffffffffffffff160217905550818373ffffffffffffffffffffffffffffffffffffffff168273ffffffffffffffffffffffffffffffffffffffff167f8c5be1e5ebec7d5bd14f71427d1e84f3dd0314c0f7b2291e5b200ac8c7c3b92560405160405180910390a4505050565b6060601060008381526020019081526020016000206001018054806020026020016040519081016040528092919081815260200182805480156112e757602002820191906000526020600020905b8154815260200190600101908083116112d3575b50505050509050919050565b600060011515600e60003373ffffffffffffffffffffffffffffffffffffffff1673ffffffffffffffffffffffffffffffffffffffff16815260200190815260200160002060009054906101000a900460ff16151514806113a15750600d60009054906101000a900473ffffffffffffffffffffffffffffffffffffffff1673ffffffffffffffffffffffffffffffffffffffff163373ffffffffffffffffffffffffffffffffffffffff16145b6113aa57600080fd5b600f60008373ffffffffffffffffffffffffffffffffffffffff1673ffffffffffffffffffffffffffffffffffffffff16815260200190815260200160002060009054906101000a900460ff169050919050565b6000600780549050905090565b8273ffffffffffffffffffffffffffffffffffffffff1661142b826117d6565b73ffffffffffffffffffffffffffffffffffffffff161461144b57600080fd5b611456838383612dfc565b505050565b60006114668361189e565b82106114bd576040517f08c379a000000000000000000000000000000000000000000000000000000000815260040180806020018281038252602b815260200180613a1b602b913960400191505060405180910390fd5b600560008473ffffffffffffffffffffffffffffffffffffffff1673ffffffffffffffffffffffffffffffffffffffff168152602001908152602001600020828154811061150757fe5b9060005260206000200154905092915050565b600d60009054906101000a900473ffffffffffffffffffffffffffffffffffffffff1673ffffffffffffffffffffffffffffffffffffffff163373ffffffffffffffffffffffffffffffffffffffff161461157457600080fd5b80600c60006101000a81548173ffffffffffffffffffffffffffffffffffffffff021916908373ffffffffffffffffffffffffffffffffffffffff16021790555050565b6115d383838360405180602001604052806000815250612240565b505050565b60006115e26113fe565b8210611639576040517f08c379a000000000000000000000000000000000000000000000000000000000815260040180806020018281038252602c815260200180613bcc602c913960400191505060405180910390fd5b6007828154811061164657fe5b90600052602060002001549050919050565b60011515600e60003373ffffffffffffffffffffffffffffffffffffffff1673ffffffffffffffffffffffffffffffffffffffff16815260200190815260200160002060009054906101000a900460ff16151514806117045750600d60009054906101000a900473ffffffffffffffffffffffffffffffffffffffff1673ffffffffffffffffffffffffffffffffffffffff163373ffffffffffffffffffffffffffffffffffffffff16145b61170d57600080fd5b6001600f60008373ffffffffffffffffffffffffffffffffffffffff1673ffffffffffffffffffffffffffffffffffffffff16815260200190815260200160002060006101000a81548160ff021916908315150217905550611770816001611c24565b7f75c6d250f36ec3e0ac4c624b0d841492ba249d82cb2e5ff43f7d4cc03b29724881604051808273ffffffffffffffffffffffffffffffffffffffff1673ffffffffffffffffffffffffffffffffffffffff16815260200191505060405180910390a150565b6000806001600084815260200190815260200160002060009054906101000a900473ffffffffffffffffffffffffffffffffffffffff169050600073ffffffffffffffffffffffffffffffffffffffff168173ffffffffffffffffffffffffffffffffffffffff161415611895576040517f08c379a0000000000000000000000000000000000000000000000000000000008152600401808060200182810382526029815260200180613afe6029913960400191505060405180910390fd5b80915050919050565b60008073ffffffffffffffffffffffffffffffffffffffff168273ffffffffffffffffffffffffffffffffffffffff161415611925576040517f08c379a000000000000000000000000000000000000000000000000000000000815260040180806020018281038252602a815260200180613ad4602a913960400191505060405180910390fd5b61196c600360008473ffffffffffffffffffffffffffffffffffffffff1673ffffffffffffffffffffffffffffffffffffffff168152602001908152602001600020612e20565b9050919050565b606060008060011515600f60003373ffffffffffffffffffffffffffffffffffffffff1673ffffffffffffffffffffffffffffffffffffffff16815260200190815260200160002060009054906101000a900460ff1615151480611a27575060011515600e60003373ffffffffffffffffffffffffffffffffffffffff1673ffffffffffffffffffffffffffffffffffffffff16815260200190815260200160002060009054906101000a900460ff161515145b80611a7f5750600d60009054906101000a900473ffffffffffffffffffffffffffffffffffffffff1673ffffffffffffffffffffffffffffffffffffffff163373ffffffffffffffffffffffffffffffffffffffff16145b611a8857600080fd5b601060008581526020019081526020016000206001016010600086815260200190815260200160002060020160009054906101000a900473ffffffffffffffffffffffffffffffffffffffff166010600087815260200190815260200160002060020160149054906101000a900460ff1682805480602002602001604051908101604052809291908181526020018280548015611b4457602002820191906000526020600020905b815481526020019060010190808311611b30575b505050505092509250925092509193909250565b6000600d60009054906101000a900473ffffffffffffffffffffffffffffffffffffffff16905090565b6060600a8054600181600116156101000203166002900480601f016020809104026020016040519081016040528092919081815260200182805460018160011615610100020316600290048015611c1a5780601f10611bef57610100808354040283529160200191611c1a565b820191906000526020600020905b815481529060010190602001808311611bfd57829003601f168201915b5050505050905090565b3373ffffffffffffffffffffffffffffffffffffffff168273ffffffffffffffffffffffffffffffffffffffff161415611cc6576040517f08c379a00000000000000000000000000000000000000000000000000000000081526004018080602001828103825260198152602001807f4552433732313a20617070726f766520746f2063616c6c65720000000000000081525060200191505060405180910390fd5b80600460003373ffffffffffffffffffffffffffffffffffffffff1673ffffffffffffffffffffffffffffffffffffffff16815260200190815260200160002060008473ffffffffffffffffffffffffffffffffffffffff1673ffffffffffffffffffffffffffffffffffffffff16815260200190815260200160002060006101000a81548160ff0219169083151502179055508173ffffffffffffffffffffffffffffffffffffffff163373ffffffffffffffffffffffffffffffffffffffff167f17307eab39ab6107e8899845ad3d59bd9653f200f220920489ca2b5937696c3183604051808215151515815260200191505060405180910390a35050565b803373ffffffffffffffffffffffffffffffffffffffff16611de8826117d6565b73ffffffffffffffffffffffffffffffffffffffff1614611e0857600080fd5b81600015156010600083815260200190815260200160002060020160149054906101000a900460ff16151514611e3d57600080fd5b60016010600085815260200190815260200160002060020160146101000a81548160ff0219169083151502179055507fb1b34e6d89e1c584527d447f4b29ffad55635a37edeeb564939a6483401b31a58333604051808381526020018273ffffffffffffffffffffffffffffffffffffffff1673ffffffffffffffffffffffffffffffffffffffff1681526020019250505060405180910390a1505050565b60011515600e60003373ffffffffffffffffffffffffffffffffffffffff1673ffffffffffffffffffffffffffffffffffffffff16815260200190815260200160002060009054906101000a900460ff1615151480611f885750600d60009054906101000a900473ffffffffffffffffffffffffffffffffffffffff1673ffffffffffffffffffffffffffffffffffffffff163373ffffffffffffffffffffffffffffffffffffffff16145b611f9157600080fd5b80600115156011600083815260200190815260200160002060009054906101000a900460ff16151514611fc357600080fd5b6011600083815260200190815260200160002060006101000a81549060ff02191690557fce7aa37f7d04162a8f0c50b2f6cc1771a3dbf74d67b074dc0c83c363637965af60125433604051808381526020018273ffffffffffffffffffffffffffffffffffffffff1673ffffffffffffffffffffffffffffffffffffffff1681526020019250505060405180910390a15050565b81600015156010600083815260200190815260200160002060020160149054906101000a900460ff1615151461208c57600080fd5b61209733838561140b565b816010600085815260200190815260200160002060020160006101000a81548173ffffffffffffffffffffffffffffffffffffffff021916908373ffffffffffffffffffffffffffffffffffffffff1602179055507f0a429aba3d89849a2db0153e4534d95c46a1d83c8109d73893f55ebc44010ff4833384604051808481526020018373ffffffffffffffffffffffffffffffffffffffff1673ffffffffffffffffffffffffffffffffffffffff1681526020018273ffffffffffffffffffffffffffffffffffffffff1673ffffffffffffffffffffffffffffffffffffffff168152602001935050505060405180910390a1505050565b6000600d60009054906101000a900473ffffffffffffffffffffffffffffffffffffffff1673ffffffffffffffffffffffffffffffffffffffff163373ffffffffffffffffffffffffffffffffffffffff16146121ec57600080fd5b600e60008373ffffffffffffffffffffffffffffffffffffffff1673ffffffffffffffffffffffffffffffffffffffff16815260200190815260200160002060009054906101000a900460ff169050919050565b61224b84848461140b565b61225784848484612e2e565b6122ac576040517f08c379a0000000000000000000000000000000000000000000000000000000008152600401808060200182810382526032815260200180613a466032913960400191505060405180910390fd5b50505050565b60606122bd82612d8a565b612312576040517f08c379a000000000000000000000000000000000000000000000000000000000815260040180806020018281038252602f815260200180613b7c602f913960400191505060405180910390fd5b600b60008381526020019081526020016000208054600181600116156101000203166002900480601f0160208091040260200160405190810160405280929190818152602001828054600181600116156101000203166002900480156123b95780601f1061238e576101008083540402835291602001916123b9565b820191906000526020600020905b81548152906001019060200180831161239c57829003601f168201915b50505050509050919050565b600d60009054906101000a900473ffffffffffffffffffffffffffffffffffffffff1673ffffffffffffffffffffffffffffffffffffffff163373ffffffffffffffffffffffffffffffffffffffff161461241f57600080fd5b6001600e60008373ffffffffffffffffffffffffffffffffffffffff1673ffffffffffffffffffffffffffffffffffffffff16815260200190815260200160002060006101000a81548160ff021916908315150217905550612482816001611c24565b7fb8af08a8c105d8bda87de9f45e99b30646362e30999b210284411a6ca71be8ff81604051808273ffffffffffffffffffffffffffffffffffffffff1673ffffffffffffffffffffffffffffffffffffffff16815260200191505060405180910390a150565b6000600460008473ffffffffffffffffffffffffffffffffffffffff1673ffffffffffffffffffffffffffffffffffffffff16815260200190815260200160002060008373ffffffffffffffffffffffffffffffffffffffff1673ffffffffffffffffffffffffffffffffffffffff16815260200190815260200160002060009054906101000a900460ff16905092915050565b60011515600e60003373ffffffffffffffffffffffffffffffffffffffff1673ffffffffffffffffffffffffffffffffffffffff16815260200190815260200160002060009054906101000a900460ff16151514806126285750600d60009054906101000a900473ffffffffffffffffffffffffffffffffffffffff1673ffffffffffffffffffffffffffffffffffffffff163373ffffffffffffffffffffffffffffffffffffffff16145b61263157600080fd5b8260106000868152602001908152602001600020600101908051906020019061265b9291906138ef565b50816010600086815260200190815260200160002060020160006101000a81548173ffffffffffffffffffffffffffffffffffffffff021916908373ffffffffffffffffffffffffffffffffffffffff160217905550806010600086815260200190815260200160002060020160146101000a81548160ff0219169083151502179055507f2e943002f66a261aa0e546cf9618bd716755c99d8a3930e2fdae512c6d201be98433604051808381526020018273ffffffffffffffffffffffffffffffffffffffff1673ffffffffffffffffffffffffffffffffffffffff1681526020019250505060405180910390a150505050565b6000601354905090565b60011515600e60003373ffffffffffffffffffffffffffffffffffffffff1673ffffffffffffffffffffffffffffffffffffffff16815260200190815260200160002060009054906101000a900460ff16151514806128065750600d60009054906101000a900473ffffffffffffffffffffffffffffffffffffffff1673ffffffffffffffffffffffffffffffffffffffff163373ffffffffffffffffffffffffffffffffffffffff16145b61280f57600080fd5b80600015156011600083815260200190815260200160002060009054906101000a900460ff1615151461284157600080fd5b81600015156010600083815260200190815260200160002060020160149054906101000a900460ff1615151461287657600080fd5b60016011600085815260200190815260200160002060006101000a81548160ff0219169083151502179055507f2abf3c9541619dd5825826a0aceeb5dbd5068c5873fbc754497cf5950097d25c60125433604051808381526020018273ffffffffffffffffffffffffffffffffffffffff1673ffffffffffffffffffffffffffffffffffffffff1681526020019250505060405180910390a1505050565b60011515600e60003373ffffffffffffffffffffffffffffffffffffffff1673ffffffffffffffffffffffffffffffffffffffff16815260200190815260200160002060009054906101000a900460ff16151514806129c05750600d60009054906101000a900473ffffffffffffffffffffffffffffffffffffffff1673ffffffffffffffffffffffffffffffffffffffff163373ffffffffffffffffffffffffffffffffffffffff16145b80612a185750600c60009054906101000a900473ffffffffffffffffffffffffffffffffffffffff1673ffffffffffffffffffffffffffffffffffffffff163373ffffffffffffffffffffffffffffffffffffffff16145b612a2157600080fd5b81600115156011600083815260200190815260200160002060009054906101000a900460ff16151514612a5357600080fd5b816010600085815260200190815260200160002060020160006101000a81548173ffffffffffffffffffffffffffffffffffffffff021916908373ffffffffffffffffffffffffffffffffffffffff160217905550612ab330838561140b565b6011600084815260200190815260200160002060006101000a81549060ff02191690557ff00b39135e3c193dd5a4219a20a7cb138c41c8f9f72ca11db2d061f8ad56072383308433604051808581526020018473ffffffffffffffffffffffffffffffffffffffff1673ffffffffffffffffffffffffffffffffffffffff1681526020018373ffffffffffffffffffffffffffffffffffffffff1673ffffffffffffffffffffffffffffffffffffffff1681526020018273ffffffffffffffffffffffffffffffffffffffff1673ffffffffffffffffffffffffffffffffffffffff16815260200194505050505060405180910390a1505050565b600060011515600e60003373ffffffffffffffffffffffffffffffffffffffff1673ffffffffffffffffffffffffffffffffffffffff16815260200190815260200160002060009054906101000a900460ff1615151480612c5c5750600d60009054906101000a900473ffffffffffffffffffffffffffffffffffffffff1673ffffffffffffffffffffffffffffffffffffffff163373ffffffffffffffffffffffffffffffffffffffff16145b612c6557600080fd5b612c6d61393c565b60405180608001604052806012548152602001848152602001600073ffffffffffffffffffffffffffffffffffffffff16815260200160001515815250905080601060006012548152602001908152602001600020600082015181600001556020820151816001019080519060200190612ce892919061397c565b5060408201518160020160006101000a81548173ffffffffffffffffffffffffffffffffffffffff021916908373ffffffffffffffffffffffffffffffffffffffff16021790555060608201518160020160146101000a81548160ff021916908315150217905550905050612d5f30601254613017565b6013600081548092919060010191905055506012600081548092919060010191905055915050919050565b6000806001600084815260200190815260200160002060009054906101000a900473ffffffffffffffffffffffffffffffffffffffff169050600073ffffffffffffffffffffffffffffffffffffffff168173ffffffffffffffffffffffffffffffffffffffff161415915050919050565b612e07838383613038565b612e118382613293565b612e1b8282613431565b505050565b600081600001549050919050565b6000612e4f8473ffffffffffffffffffffffffffffffffffffffff166134f8565b612e5c576001905061300f565b60008473ffffffffffffffffffffffffffffffffffffffff1663150b7a02338887876040518563ffffffff1660e01b8152600401808573ffffffffffffffffffffffffffffffffffffffff1673ffffffffffffffffffffffffffffffffffffffff1681526020018473ffffffffffffffffffffffffffffffffffffffff1673ffffffffffffffffffffffffffffffffffffffff16815260200183815260200180602001828103825283818151815260200191508051906020019080838360005b83811015612f37578082015181840152602081019050612f1c565b50505050905090810190601f168015612f645780820380516001836020036101000a031916815260200191505b5095505050505050602060405180830381600087803b158015612f8657600080fd5b505af1158015612f9a573d6000803e3d6000fd5b505050506040513d6020811015612fb057600080fd5b8101908080519060200190929190505050905063150b7a0260e01b7bffffffffffffffffffffffffffffffffffffffffffffffffffffffff1916817bffffffffffffffffffffffffffffffffffffffffffffffffffffffff1916149150505b949350505050565b613021828261350b565b61302b8282613431565b61303481613723565b5050565b8273ffffffffffffffffffffffffffffffffffffffff16613058826117d6565b73ffffffffffffffffffffffffffffffffffffffff16146130c4576040517f08c379a0000000000000000000000000000000000000000000000000000000008152600401808060200182810382526029815260200180613b536029913960400191505060405180910390fd5b600073ffffffffffffffffffffffffffffffffffffffff168273ffffffffffffffffffffffffffffffffffffffff16141561314a576040517f08c379a0000000000000000000000000000000000000000000000000000000008152600401808060200182810382526024815260200180613a786024913960400191505060405180910390fd5b6131538161376f565b61319a600360008573ffffffffffffffffffffffffffffffffffffffff1673ffffffffffffffffffffffffffffffffffffffff16815260200190815260200160002061382d565b6131e1600360008473ffffffffffffffffffffffffffffffffffffffff1673ffffffffffffffffffffffffffffffffffffffff168152602001908152602001600020613850565b816001600083815260200190815260200160002060006101000a81548173ffffffffffffffffffffffffffffffffffffffff021916908373ffffffffffffffffffffffffffffffffffffffff160217905550808273ffffffffffffffffffffffffffffffffffffffff168473ffffffffffffffffffffffffffffffffffffffff167fddf252ad1be2c89b69c2b068fc378daa952ba7f163c4a11628f55a4df523b3ef60405160405180910390a4505050565b60006132eb6001600560008673ffffffffffffffffffffffffffffffffffffffff1673ffffffffffffffffffffffffffffffffffffffff1681526020019081526020016000208054905061386690919063ffffffff16565b90506000600660008481526020019081526020016000205490508181146133d8576000600560008673ffffffffffffffffffffffffffffffffffffffff1673ffffffffffffffffffffffffffffffffffffffff168152602001908152602001600020838154811061335857fe5b9060005260206000200154905080600560008773ffffffffffffffffffffffffffffffffffffffff1673ffffffffffffffffffffffffffffffffffffffff16815260200190815260200160002083815481106133b057fe5b9060005260206000200181905550816006600083815260200190815260200160002081905550505b600560008573ffffffffffffffffffffffffffffffffffffffff1673ffffffffffffffffffffffffffffffffffffffff16815260200190815260200160002080548091906001900361342a91906139c9565b5050505050565b600560008373ffffffffffffffffffffffffffffffffffffffff1673ffffffffffffffffffffffffffffffffffffffff168152602001908152602001600020805490506006600083815260200190815260200160002081905550600560008373ffffffffffffffffffffffffffffffffffffffff1673ffffffffffffffffffffffffffffffffffffffff1681526020019081526020016000208190806001815401808255809150509060018203906000526020600020016000909192909190915055505050565b600080823b905060008111915050919050565b600073ffffffffffffffffffffffffffffffffffffffff168273ffffffffffffffffffffffffffffffffffffffff1614156135ae576040517f08c379a00000000000000000000000000000000000000000000000000000000081526004018080602001828103825260208152602001807f4552433732313a206d696e7420746f20746865207a65726f206164647265737381525060200191505060405180910390fd5b6135b781612d8a565b1561362a576040517f08c379a000000000000000000000000000000000000000000000000000000000815260040180806020018281038252601c8152602001807f4552433732313a20746f6b656e20616c7265616479206d696e7465640000000081525060200191505060405180910390fd5b816001600083815260200190815260200160002060006101000a81548173ffffffffffffffffffffffffffffffffffffffff021916908373ffffffffffffffffffffffffffffffffffffffff1602179055506136c3600360008473ffffffffffffffffffffffffffffffffffffffff1673ffffffffffffffffffffffffffffffffffffffff168152602001908152602001600020613850565b808273ffffffffffffffffffffffffffffffffffffffff16600073ffffffffffffffffffffffffffffffffffffffff167fddf252ad1be2c89b69c2b068fc378daa952ba7f163c4a11628f55a4df523b3ef60405160405180910390a45050565b6007805490506008600083815260200190815260200160002081905550600781908060018154018082558091505090600182039060005260206000200160009091929091909150555050565b600073ffffffffffffffffffffffffffffffffffffffff166002600083815260200190815260200160002060009054906101000a900473ffffffffffffffffffffffffffffffffffffffff1673ffffffffffffffffffffffffffffffffffffffff161461382a5760006002600083815260200190815260200160002060006101000a81548173ffffffffffffffffffffffffffffffffffffffff021916908373ffffffffffffffffffffffffffffffffffffffff1602179055505b50565b6138456001826000015461386690919063ffffffff16565b816000018190555050565b6001816000016000828254019250508190555050565b6000828211156138de576040517f08c379a000000000000000000000000000000000000000000000000000000000815260040180806020018281038252601e8152602001807f536166654d6174683a207375627472616374696f6e206f766572666c6f77000081525060200191505060405180910390fd5b600082840390508091505092915050565b82805482825590600052602060002090810192821561392b579160200282015b8281111561392a57825182559160200191906001019061390f565b5b50905061393891906139f5565b5090565b60405180608001604052806000815260200160608152602001600073ffffffffffffffffffffffffffffffffffffffff1681526020016000151581525090565b8280548282559060005260206000209081019282156139b8579160200282015b828111156139b757825182559160200191906001019061399c565b5b5090506139c591906139f5565b5090565b8154818355818111156139f0578183600052602060002091820191016139ef91906139f5565b5b505050565b613a1791905b80821115613a135760008160009055506001016139fb565b5090565b9056fe455243373231456e756d657261626c653a206f776e657220696e646578206f7574206f6620626f756e64734552433732313a207472616e7366657220746f206e6f6e20455243373231526563656976657220696d706c656d656e7465724552433732313a207472616e7366657220746f20746865207a65726f20616464726573734552433732313a20617070726f76652063616c6c6572206973206e6f74206f776e6572206e6f7220617070726f76656420666f7220616c6c4552433732313a2062616c616e636520717565727920666f7220746865207a65726f20616464726573734552433732313a206f776e657220717565727920666f72206e6f6e6578697374656e7420746f6b656e4552433732313a20617070726f76656420717565727920666f72206e6f6e6578697374656e7420746f6b656e4552433732313a207472616e73666572206f6620746f6b656e2074686174206973206e6f74206f776e4552433732314d657461646174613a2055524920717565727920666f72206e6f6e6578697374656e7420746f6b656e4552433732313a20617070726f76616c20746f2063757272656e74206f776e6572455243373231456e756d657261626c653a20676c6f62616c20696e646578206f7574206f6620626f756e6473a265627a7a723158206e6d5d8b53ca35edcda999625e62c619c83435e75cd20a0df032bc8b1d10645c64736f6c63430005100032",
  "source": "/*\r\nAuthor\t\t: Cyrus Lee\r\nMatric. No.\t: A0168385N\r\nTitle\t\t: Group02 Project - Patient v3\r\n*/\r\n\r\npragma solidity ^0.5.0;\r\n\r\nimport \"./ERC721Full.sol\";\r\n\r\ncontract Patient is ERC721Full {\r\n\t\r\n\t// == INDICATIONS ==\r\n\t\r\n\tenum Indications { \r\n\t\tCDExamCase,\r\n\t\tDentalPublicHealth,\r\n\t\tEndodontics,\r\n\t\tFixedProsthodontics,\r\n\t\tOperativeDentistry,\r\n\t\tOralSurgery,\r\n\t\tOrthodontics,\r\n\t\tPedodontics,\r\n\t\tPeriodontics,\r\n\t\tRemovableProsthodontics\r\n\t}\r\n\t\r\n\t// =================\r\n\r\n\t// == ROLES ==\r\n\t\r\n\taddress requestAddress;\r\n\taddress owner = msg.sender;\r\n\tmapping(address => bool) private powerUsers;\r\n\tmapping(address => bool) private adminUsers;\r\n\t\r\n\t// ===========\r\n\t\r\n\t// == PATIENTS == \r\n\t\r\n\tmapping(uint => _Patient) private patients;\r\n\tmapping(uint => bool) private patientPool;\r\n\t\r\n\tstruct _Patient {\r\n\t\tuint patientID;\r\n\t\tuint[] possessedIndications;\r\n\t\taddress owner;\r\n\t\tbool resolved;\r\n\t}\r\n\t\r\n\t// ==============\r\n\t\r\n\t// == COUNTERS ==\r\n\t\r\n\tuint patientCount;\r\n\tuint totalPatients;\r\n\t\r\n\t// ==============\r\n\t\r\n\t//uint[] ret;\r\n\t\r\n\t// == MODIFIERS ==\r\n\t\r\n\tmodifier onlyOwner() {\r\n\t\trequire(msg.sender == owner);\r\n\t\t_;\r\n\t}\r\n\t\r\n\tmodifier onlyPowerAndUp() {\r\n\t\trequire(powerUsers[msg.sender] == true || \r\n\t\t\t\tmsg.sender == owner);\r\n\t\t_;\r\n\t}\r\n\t\r\n\tmodifier onlyPowerAndUpAndRequest() {\r\n\t\trequire(powerUsers[msg.sender] == true || \r\n\t\t\t\tmsg.sender == owner ||\r\n\t\t\t\tmsg.sender == requestAddress);\r\n\t\t_;\r\n\t}\r\n\t\r\n\tmodifier onlyAdminAndUp() {\r\n\t\trequire(adminUsers[msg.sender] == true || \r\n\t\t\t\tpowerUsers[msg.sender] == true || \r\n\t\t\t\tmsg.sender == owner);\r\n\t\t_;\r\n\t}\r\n\t\r\n\tmodifier onlyStudent(uint patientID) {\r\n\t\trequire(ownerOf(patientID) == msg.sender);\r\n\t\t_;\r\n\t}\r\n\t\r\n\tmodifier patientListed(uint patientID) {\r\n\t\trequire(patientPool[patientID] == true);\r\n\t\t_;\r\n\t}\r\n\t\r\n\tmodifier patientUnlisted(uint patientID) {\r\n\t\trequire(patientPool[patientID] == false);\r\n\t\t_;\r\n\t}\r\n\t\r\n\tmodifier unresolved(uint patientID) {\r\n\t\trequire(patients[patientID].resolved == false);\r\n\t\t_;\r\n\t}\r\n\t\r\n\t// ===============\r\n\t\r\n\t// == EVENTS ==\r\n\r\n\t// Administration \r\n\tevent CreatePowerUser(address user);\r\n\tevent CreateAdminUser(address user);\r\n\r\n\t// Functions\r\n\tevent Allocate(uint patientID, address from, address to, address allocater);\t\r\n\tevent List(uint patientID, address lister);\r\n\tevent Resolve(uint patientID, address resolver);\r\n\tevent Transfer(uint patientID, address from, address to);\r\n\tevent Update(uint patientID, address updater);\r\n\tevent Unlist(uint patientID, address unlister);\r\n\t\r\n\t// ============\r\n\t\r\n\t// == CONSTRUCTOR ==\r\n\t\r\n\tconstructor(address[] memory _powerUsers, address[] memory _adminUsers) \r\n\tERC721Full(\"Patient\", \"PAT\") public {\r\n\t\tpatientCount = 1;\r\n\t\ttotalPatients = 0;\t\r\n\t\t\r\n\t\tfor (uint i = 0; i < _powerUsers.length; i++) {\r\n\t\t\tpowerUsers[_powerUsers[i]] = true;\r\n\t\t\tsetApprovalForAll(_powerUsers[i], true);\r\n\t\t}\r\n\t\t\r\n\t\tfor (uint i = 0; i < _adminUsers.length; i++) {\r\n\t\t\tadminUsers[_adminUsers[i]] = true;\r\n\t\t\tsetApprovalForAll(_adminUsers[i], true);\r\n\t\t}\r\n\t}\r\n\t\r\n\t// =================\r\n\t\r\n\t// == ADMINISTRATION ==\r\n\t\r\n\t// Create power user\r\n\tfunction createPowerUser(address user) \r\n\tpublic onlyOwner {\r\n\t\tpowerUsers[user] = true;\r\n\t\tsetApprovalForAll(user, true);\r\n\t\t\r\n\t\temit CreatePowerUser(user);\r\n\t}\r\n\t\r\n\t// Check power user\r\n\tfunction getPowerUser(address user) \r\n\tpublic view onlyOwner\r\n\treturns (bool) {\r\n\t\treturn powerUsers[user];\r\n\t}\r\n\t\r\n\t// Create admin user\r\n\tfunction createAdminUser(address user) \r\n\tpublic onlyPowerAndUp {\r\n\t\tadminUsers[user] = true;\r\n\t\tsetApprovalForAll(user, true);\r\n\t\t\r\n\t\temit CreateAdminUser(user);\r\n\t}\r\n\t\r\n\t// Check admin user\r\n\tfunction getAdminUser(address user) \r\n\tpublic view onlyPowerAndUp\r\n\treturns (bool) {\r\n\t\treturn adminUsers[user];\r\n\t}\r\n\t\r\n\t// ====================\r\n\t\r\n\t// == FUNCTIONS ==\r\n\t\r\n\t// Allocate a patient to a student\r\n\tfunction allocatePatient(uint patientID, address student) \r\n\tpublic onlyPowerAndUpAndRequest patientListed(patientID) {\t\t\r\n\t\t// Allocate patient to student\r\n\t\tpatients[patientID].owner = student;\r\n\t\ttransferFrom(address(this), student, patientID);\r\n\t\t\r\n\t\t// Remove patient from patient pool\r\n\t\tdelete patientPool[patientID];\r\n\t\t\r\n\t\temit Allocate(patientID, address(this), student, msg.sender);\r\n\t}\r\n\t\r\n\t//Create patient\r\n\tfunction createPatient(uint[] memory possessedIndications) \r\n\tpublic onlyPowerAndUp \r\n\treturns (uint) {\r\n\t\t// Create patient\r\n\t\t_Patient memory _patient = _Patient(\r\n\t\t\tpatientCount, \r\n\t\t\tpossessedIndications,\r\n\t\t\taddress(0),\r\n\t\t\tfalse\r\n\t\t);\t   \r\n\t\t\r\n\t\t// Allocate patient ID to patient\r\n\t\tpatients[patientCount] = _patient;\r\n\t\t// Tag patient to ERC721 token\r\n\t\t_mint(address(this), patientCount);\r\n\t\t\r\n\t\ttotalPatients++;\r\n\t\t\r\n\t\treturn patientCount++;\r\n\t}\r\n\t\r\n\t// Register a patient in the patient pool\r\n\tfunction listPatient(uint patientID) \r\n\tpublic onlyPowerAndUp patientUnlisted(patientID) unresolved(patientID) {\t\t\r\n\t\t// Register patient ID in patient pool\r\n\t\tpatientPool[patientID] = true;\r\n\t\t\r\n\t\temit List(patientCount, msg.sender);\r\n\t}\r\n\t\r\n\t// Resolve a patient post-processing\r\n\tfunction resolvePatient(uint patientID)\r\n\tpublic onlyStudent(patientID) unresolved(patientID) {\r\n\t\tpatients[patientID].resolved = true;\r\n\t\t\r\n\t\temit Resolve(patientID, msg.sender);\r\n\t}\r\n\t\r\n\t// Set request address for allocation permission\r\n\tfunction setRequestAddress(address _requestAddress) \r\n\tpublic onlyOwner {\r\n\t\trequestAddress = _requestAddress;\r\n\t}\r\n\t\r\n\t// Transfer patient between students\r\n\tfunction studentTransfer(uint patientID, address student) \r\n\tpublic unresolved(patientID) {\r\n\t\t// Re-allocate patient to new student\r\n\t\ttransferFrom(msg.sender, student, patientID);\r\n\t\t\r\n\t\t// Update new owner\r\n\t\tpatients[patientID].owner = student;\r\n\t\t\r\n\t\temit Transfer(patientID, msg.sender, student);\r\n\t}\r\n\t\r\n\t// Update patient information\r\n\tfunction updatePatient(uint patientID,\r\n\t\t\t\t\t\t   uint[] memory _possessedIndications,\r\n\t\t\t\t\t\t   address _owner, bool resolution)\r\n\tpublic onlyPowerAndUp {\r\n\t\tpatients[patientID].possessedIndications = _possessedIndications;\r\n\t\tpatients[patientID].owner = _owner;\r\n\t\tpatients[patientID].resolved = resolution;\r\n\t\t\r\n\t\temit Update(patientID, msg.sender);\r\n\t}\t\r\n\t\t\r\n\t// Unlist a patient in the patient pool\r\n\tfunction unlistPatient(uint patientID) \r\n\tpublic onlyPowerAndUp patientListed(patientID) {\t\t\r\n\t\t// Remove patient from patient pool\r\n\t\tdelete patientPool[patientID];\r\n\t\t\r\n\t\temit Unlist(patientCount, msg.sender);\r\n\t}\r\n\t\r\n\t// ===============\r\n\t\r\n\t// == GETTERS ==\r\n\t\r\n\t// Return all indications from patient\r\n\tfunction getIndications(uint patientID) \r\n\tpublic view returns (uint[] memory) {\t\t\r\n\t\treturn patients[patientID].possessedIndications;\r\n\t}\r\n\t\r\n\t// Return contract owner\r\n\tfunction getOwner() \r\n\tpublic view returns (address) {\r\n\t\treturn owner;\r\n\t}\r\n\t\r\n\t// Return all credentials of a patient\r\n\tfunction getPatient(uint patientID) \r\n\tpublic onlyAdminAndUp\r\n\tview returns (uint[] memory, address, bool) {\r\n\t\treturn (patients[patientID].possessedIndications, patients[patientID].owner,\r\n\t\t\t    patients[patientID].resolved);\r\n\t}\r\n\t\r\n\t// Return total number of patients\r\n\tfunction getTotalPatients() \r\n\tpublic view returns (uint) {\r\n\t\treturn totalPatients;\r\n\t}\r\n\t\r\n\t// =============\r\n}",
  "sourcePath": "C:\\Users\\jason\\OneDrive\\Desktop\\NUS\\Y3S2\\IS4302\\Project\\Patient-Allocation-System\\contracts\\Patient.sol",
  "compiler": {
    "name": "solc",
    "version": "0.5.16+commit.9c3226ce.Emscripten.clang"
  },
  "schemaVersion": "3.0.23",
  "updatedAt": "2020-04-13T12:35:43.629Z",
  "networkType": "ethereum",
  "devdoc": {
    "methods": {
      "approve(address,uint256)": {
        "details": "Approves another address to transfer the given token ID The zero address indicates there is no approved address. There can only be one approved address per token at a given time. Can only be called by the token owner or an approved operator.",
        "params": {
          "to": "address to be approved for the given token ID",
          "tokenId": "uint256 ID of the token to be approved"
        }
      },
      "balanceOf(address)": {
        "details": "Gets the balance of the specified address.",
        "params": {
          "owner": "address to query the balance of"
        },
        "return": "uint256 representing the amount owned by the passed address"
      },
      "getApproved(uint256)": {
        "details": "Gets the approved address for a token ID, or zero if no address set Reverts if the token ID does not exist.",
        "params": {
          "tokenId": "uint256 ID of the token to query the approval of"
        },
        "return": "address currently approved for the given token ID"
      },
      "isApprovedForAll(address,address)": {
        "details": "Tells whether an operator is approved by a given owner.",
        "params": {
          "operator": "operator address which you want to query the approval of",
          "owner": "owner address which you want to query the approval of"
        },
        "return": "bool whether the given operator is approved by the given owner"
      },
      "name()": {
        "details": "Gets the token name.",
        "return": "string representing the token name"
      },
      "ownerOf(uint256)": {
        "details": "Gets the owner of the specified token ID.",
        "params": {
          "tokenId": "uint256 ID of the token to query the owner of"
        },
        "return": "address currently marked as the owner of the given token ID"
      },
      "safeTransferFrom(address,address,uint256)": {
        "details": "Safely transfers the ownership of a given token ID to another address If the target address is a contract, it must implement `onERC721Received`, which is called upon a safe transfer, and return the magic value `bytes4(keccak256(\"onERC721Received(address,address,uint256,bytes)\"))`; otherwise, the transfer is reverted. Requires the msg.sender to be the owner, approved, or operator",
        "params": {
          "from": "current owner of the token",
          "to": "address to receive the ownership of the given token ID",
          "tokenId": "uint256 ID of the token to be transferred"
        }
      },
      "safeTransferFrom(address,address,uint256,bytes)": {
        "details": "Safely transfers the ownership of a given token ID to another address If the target address is a contract, it must implement `onERC721Received`, which is called upon a safe transfer, and return the magic value `bytes4(keccak256(\"onERC721Received(address,address,uint256,bytes)\"))`; otherwise, the transfer is reverted. Requires the msg.sender to be the owner, approved, or operator",
        "params": {
          "_data": "bytes data to send along with a safe transfer check",
          "from": "current owner of the token",
          "to": "address to receive the ownership of the given token ID",
          "tokenId": "uint256 ID of the token to be transferred"
        }
      },
      "setApprovalForAll(address,bool)": {
        "details": "Sets or unsets the approval of a given operator An operator is allowed to transfer all tokens of the sender on their behalf.",
        "params": {
          "approved": "representing the status of the approval to be set",
          "to": "operator address to set the approval"
        }
      },
      "supportsInterface(bytes4)": {
        "details": "See `IERC165.supportsInterface`.      * Time complexity O(1), guaranteed to always use less than 30 000 gas."
      },
      "symbol()": {
        "details": "Gets the token symbol.",
        "return": "string representing the token symbol"
      },
      "tokenByIndex(uint256)": {
        "details": "Gets the token ID at a given index of all the tokens in this contract Reverts if the index is greater or equal to the total number of tokens.",
        "params": {
          "index": "uint256 representing the index to be accessed of the tokens list"
        },
        "return": "uint256 token ID at the given index of the tokens list"
      },
      "tokenOfOwnerByIndex(address,uint256)": {
        "details": "Gets the token ID at a given index of the tokens list of the requested owner.",
        "params": {
          "index": "uint256 representing the index to be accessed of the requested tokens list",
          "owner": "address owning the tokens list to be accessed"
        },
        "return": "uint256 token ID at the given index of the tokens list owned by the requested address"
      },
      "tokenURI(uint256)": {
        "details": "Returns an URI for a given token ID. Throws if the token ID does not exist. May return an empty string.",
        "params": {
          "tokenId": "uint256 ID of the token to query"
        }
      },
      "totalSupply()": {
        "details": "Gets the total amount of tokens stored by the contract.",
        "return": "uint256 representing the total amount of tokens"
      },
      "transferFrom(address,address,uint256)": {
        "details": "Transfers the ownership of a given token ID to another address. Usage of this method is discouraged, use `safeTransferFrom` whenever possible. Requires the msg.sender to be the owner, approved, or operator.",
        "params": {
          "from": "current owner of the token",
          "to": "address to receive the ownership of the given token ID",
          "tokenId": "uint256 ID of the token to be transferred"
        }
      }
    }
  },
  "userdoc": {
    "methods": {}
  }
}