{
  "contractName": "Patient",
  "abi": [
    {
      "inputs": [
        {
          "internalType": "address[]",
          "name": "_powerUsers",
          "type": "address[]"
        },
        {
          "internalType": "address[]",
          "name": "_adminUsers",
          "type": "address[]"
        }
      ],
      "payable": false,
      "stateMutability": "nonpayable",
      "type": "constructor"
    },
    {
      "anonymous": false,
      "inputs": [
        {
          "indexed": false,
          "internalType": "uint256",
          "name": "patientID",
          "type": "uint256"
        },
        {
          "indexed": false,
          "internalType": "address",
          "name": "from",
          "type": "address"
        },
        {
          "indexed": false,
          "internalType": "address",
          "name": "to",
          "type": "address"
        },
        {
          "indexed": false,
          "internalType": "address",
          "name": "allocater",
          "type": "address"
        }
      ],
      "name": "Allocate",
      "type": "event"
    },
    {
      "anonymous": false,
      "inputs": [
        {
          "indexed": true,
          "internalType": "address",
          "name": "owner",
          "type": "address"
        },
        {
          "indexed": true,
          "internalType": "address",
          "name": "approved",
          "type": "address"
        },
        {
          "indexed": true,
          "internalType": "uint256",
          "name": "tokenId",
          "type": "uint256"
        }
      ],
      "name": "Approval",
      "type": "event"
    },
    {
      "anonymous": false,
      "inputs": [
        {
          "indexed": true,
          "internalType": "address",
          "name": "owner",
          "type": "address"
        },
        {
          "indexed": true,
          "internalType": "address",
          "name": "operator",
          "type": "address"
        },
        {
          "indexed": false,
          "internalType": "bool",
          "name": "approved",
          "type": "bool"
        }
      ],
      "name": "ApprovalForAll",
      "type": "event"
    },
    {
      "anonymous": false,
      "inputs": [
        {
          "indexed": false,
          "internalType": "address",
          "name": "user",
          "type": "address"
        }
      ],
      "name": "CreateAdminUser",
      "type": "event"
    },
    {
      "anonymous": false,
      "inputs": [
        {
          "indexed": false,
          "internalType": "address",
          "name": "user",
          "type": "address"
        }
      ],
      "name": "CreatePowerUser",
      "type": "event"
    },
    {
      "anonymous": false,
      "inputs": [
        {
          "indexed": false,
          "internalType": "uint256",
          "name": "patientID",
          "type": "uint256"
        },
        {
          "indexed": false,
          "internalType": "address",
          "name": "lister",
          "type": "address"
        }
      ],
      "name": "List",
      "type": "event"
    },
    {
      "anonymous": false,
      "inputs": [
        {
          "indexed": false,
          "internalType": "uint256",
          "name": "patientID",
          "type": "uint256"
        },
        {
          "indexed": false,
          "internalType": "address",
          "name": "resolver",
          "type": "address"
        }
      ],
      "name": "Resolve",
      "type": "event"
    },
    {
      "anonymous": false,
      "inputs": [
        {
          "indexed": false,
          "internalType": "uint256",
          "name": "patientID",
          "type": "uint256"
        },
        {
          "indexed": false,
          "internalType": "address",
          "name": "from",
          "type": "address"
        },
        {
          "indexed": false,
          "internalType": "address",
          "name": "to",
          "type": "address"
        }
      ],
      "name": "Transfer",
      "type": "event"
    },
    {
      "anonymous": false,
      "inputs": [
        {
          "indexed": true,
          "internalType": "address",
          "name": "from",
          "type": "address"
        },
        {
          "indexed": true,
          "internalType": "address",
          "name": "to",
          "type": "address"
        },
        {
          "indexed": true,
          "internalType": "uint256",
          "name": "tokenId",
          "type": "uint256"
        }
      ],
      "name": "Transfer",
      "type": "event"
    },
    {
      "anonymous": false,
      "inputs": [
        {
          "indexed": false,
          "internalType": "uint256",
          "name": "patientID",
          "type": "uint256"
        },
        {
          "indexed": false,
          "internalType": "address",
          "name": "unlister",
          "type": "address"
        }
      ],
      "name": "Unlist",
      "type": "event"
    },
    {
      "anonymous": false,
      "inputs": [
        {
          "indexed": false,
          "internalType": "uint256",
          "name": "patientID",
          "type": "uint256"
        },
        {
          "indexed": false,
          "internalType": "address",
          "name": "updater",
          "type": "address"
        }
      ],
      "name": "Update",
      "type": "event"
    },
    {
      "constant": false,
      "inputs": [
        {
          "internalType": "address",
          "name": "to",
          "type": "address"
        },
        {
          "internalType": "uint256",
          "name": "tokenId",
          "type": "uint256"
        }
      ],
      "name": "approve",
      "outputs": [],
      "payable": false,
      "stateMutability": "nonpayable",
      "type": "function"
    },
    {
      "constant": true,
      "inputs": [
        {
          "internalType": "address",
          "name": "owner",
          "type": "address"
        }
      ],
      "name": "balanceOf",
      "outputs": [
        {
          "internalType": "uint256",
          "name": "",
          "type": "uint256"
        }
      ],
      "payable": false,
      "stateMutability": "view",
      "type": "function"
    },
    {
      "constant": true,
      "inputs": [
        {
          "internalType": "uint256",
          "name": "tokenId",
          "type": "uint256"
        }
      ],
      "name": "getApproved",
      "outputs": [
        {
          "internalType": "address",
          "name": "",
          "type": "address"
        }
      ],
      "payable": false,
      "stateMutability": "view",
      "type": "function"
    },
    {
      "constant": true,
      "inputs": [
        {
          "internalType": "address",
          "name": "owner",
          "type": "address"
        },
        {
          "internalType": "address",
          "name": "operator",
          "type": "address"
        }
      ],
      "name": "isApprovedForAll",
      "outputs": [
        {
          "internalType": "bool",
          "name": "",
          "type": "bool"
        }
      ],
      "payable": false,
      "stateMutability": "view",
      "type": "function"
    },
    {
      "constant": true,
      "inputs": [],
      "name": "name",
      "outputs": [
        {
          "internalType": "string",
          "name": "",
          "type": "string"
        }
      ],
      "payable": false,
      "stateMutability": "view",
      "type": "function"
    },
    {
      "constant": true,
      "inputs": [
        {
          "internalType": "uint256",
          "name": "tokenId",
          "type": "uint256"
        }
      ],
      "name": "ownerOf",
      "outputs": [
        {
          "internalType": "address",
          "name": "",
          "type": "address"
        }
      ],
      "payable": false,
      "stateMutability": "view",
      "type": "function"
    },
    {
      "constant": false,
      "inputs": [
        {
          "internalType": "address",
          "name": "from",
          "type": "address"
        },
        {
          "internalType": "address",
          "name": "to",
          "type": "address"
        },
        {
          "internalType": "uint256",
          "name": "tokenId",
          "type": "uint256"
        }
      ],
      "name": "safeTransferFrom",
      "outputs": [],
      "payable": false,
      "stateMutability": "nonpayable",
      "type": "function"
    },
    {
      "constant": false,
      "inputs": [
        {
          "internalType": "address",
          "name": "from",
          "type": "address"
        },
        {
          "internalType": "address",
          "name": "to",
          "type": "address"
        },
        {
          "internalType": "uint256",
          "name": "tokenId",
          "type": "uint256"
        },
        {
          "internalType": "bytes",
          "name": "_data",
          "type": "bytes"
        }
      ],
      "name": "safeTransferFrom",
      "outputs": [],
      "payable": false,
      "stateMutability": "nonpayable",
      "type": "function"
    },
    {
      "constant": false,
      "inputs": [
        {
          "internalType": "address",
          "name": "to",
          "type": "address"
        },
        {
          "internalType": "bool",
          "name": "approved",
          "type": "bool"
        }
      ],
      "name": "setApprovalForAll",
      "outputs": [],
      "payable": false,
      "stateMutability": "nonpayable",
      "type": "function"
    },
    {
      "constant": true,
      "inputs": [
        {
          "internalType": "bytes4",
          "name": "interfaceId",
          "type": "bytes4"
        }
      ],
      "name": "supportsInterface",
      "outputs": [
        {
          "internalType": "bool",
          "name": "",
          "type": "bool"
        }
      ],
      "payable": false,
      "stateMutability": "view",
      "type": "function"
    },
    {
      "constant": true,
      "inputs": [],
      "name": "symbol",
      "outputs": [
        {
          "internalType": "string",
          "name": "",
          "type": "string"
        }
      ],
      "payable": false,
      "stateMutability": "view",
      "type": "function"
    },
    {
      "constant": true,
      "inputs": [
        {
          "internalType": "uint256",
          "name": "index",
          "type": "uint256"
        }
      ],
      "name": "tokenByIndex",
      "outputs": [
        {
          "internalType": "uint256",
          "name": "",
          "type": "uint256"
        }
      ],
      "payable": false,
      "stateMutability": "view",
      "type": "function"
    },
    {
      "constant": true,
      "inputs": [
        {
          "internalType": "address",
          "name": "owner",
          "type": "address"
        },
        {
          "internalType": "uint256",
          "name": "index",
          "type": "uint256"
        }
      ],
      "name": "tokenOfOwnerByIndex",
      "outputs": [
        {
          "internalType": "uint256",
          "name": "",
          "type": "uint256"
        }
      ],
      "payable": false,
      "stateMutability": "view",
      "type": "function"
    },
    {
      "constant": true,
      "inputs": [
        {
          "internalType": "uint256",
          "name": "tokenId",
          "type": "uint256"
        }
      ],
      "name": "tokenURI",
      "outputs": [
        {
          "internalType": "string",
          "name": "",
          "type": "string"
        }
      ],
      "payable": false,
      "stateMutability": "view",
      "type": "function"
    },
    {
      "constant": true,
      "inputs": [],
      "name": "totalSupply",
      "outputs": [
        {
          "internalType": "uint256",
          "name": "",
          "type": "uint256"
        }
      ],
      "payable": false,
      "stateMutability": "view",
      "type": "function"
    },
    {
      "constant": false,
      "inputs": [
        {
          "internalType": "address",
          "name": "from",
          "type": "address"
        },
        {
          "internalType": "address",
          "name": "to",
          "type": "address"
        },
        {
          "internalType": "uint256",
          "name": "tokenId",
          "type": "uint256"
        }
      ],
      "name": "transferFrom",
      "outputs": [],
      "payable": false,
      "stateMutability": "nonpayable",
      "type": "function"
    },
    {
      "constant": false,
      "inputs": [
        {
          "internalType": "address",
          "name": "user",
          "type": "address"
        }
      ],
      "name": "createPowerUser",
      "outputs": [],
      "payable": false,
      "stateMutability": "nonpayable",
      "type": "function"
    },
    {
      "constant": true,
      "inputs": [
        {
          "internalType": "address",
          "name": "user",
          "type": "address"
        }
      ],
      "name": "getPowerUser",
      "outputs": [
        {
          "internalType": "bool",
          "name": "",
          "type": "bool"
        }
      ],
      "payable": false,
      "stateMutability": "view",
      "type": "function"
    },
    {
      "constant": false,
      "inputs": [
        {
          "internalType": "address",
          "name": "user",
          "type": "address"
        }
      ],
      "name": "createAdminUser",
      "outputs": [],
      "payable": false,
      "stateMutability": "nonpayable",
      "type": "function"
    },
    {
      "constant": true,
      "inputs": [
        {
          "internalType": "address",
          "name": "user",
          "type": "address"
        }
      ],
      "name": "getAdminUser",
      "outputs": [
        {
          "internalType": "bool",
          "name": "",
          "type": "bool"
        }
      ],
      "payable": false,
      "stateMutability": "view",
      "type": "function"
    },
    {
      "constant": false,
      "inputs": [
        {
          "internalType": "uint256",
          "name": "patientID",
          "type": "uint256"
        },
        {
          "internalType": "address",
          "name": "student",
          "type": "address"
        }
      ],
      "name": "allocatePatient",
      "outputs": [],
      "payable": false,
      "stateMutability": "nonpayable",
      "type": "function"
    },
    {
      "constant": false,
      "inputs": [
        {
          "internalType": "string",
          "name": "name",
          "type": "string"
        },
        {
          "internalType": "string",
          "name": "contactNum",
          "type": "string"
        },
        {
          "internalType": "uint256[]",
          "name": "possessedIndications",
          "type": "uint256[]"
        }
      ],
      "name": "createPatient",
      "outputs": [
        {
          "internalType": "uint256",
          "name": "",
          "type": "uint256"
        }
      ],
      "payable": false,
      "stateMutability": "nonpayable",
      "type": "function"
    },
    {
      "constant": false,
      "inputs": [
        {
          "internalType": "uint256",
          "name": "patientID",
          "type": "uint256"
        }
      ],
      "name": "listPatient",
      "outputs": [],
      "payable": false,
      "stateMutability": "nonpayable",
      "type": "function"
    },
    {
      "constant": false,
      "inputs": [
        {
          "internalType": "uint256",
          "name": "patientID",
          "type": "uint256"
        }
      ],
      "name": "resolvePatient",
      "outputs": [],
      "payable": false,
      "stateMutability": "nonpayable",
      "type": "function"
    },
    {
      "constant": false,
      "inputs": [
        {
          "internalType": "address",
          "name": "_requestAddress",
          "type": "address"
        }
      ],
      "name": "setRequestAddress",
      "outputs": [],
      "payable": false,
      "stateMutability": "nonpayable",
      "type": "function"
    },
    {
      "constant": false,
      "inputs": [
        {
          "internalType": "uint256",
          "name": "patientID",
          "type": "uint256"
        },
        {
          "internalType": "address",
          "name": "student",
          "type": "address"
        }
      ],
      "name": "studentTransfer",
      "outputs": [],
      "payable": false,
      "stateMutability": "nonpayable",
      "type": "function"
    },
    {
      "constant": false,
      "inputs": [
        {
          "internalType": "uint256",
          "name": "patientID",
          "type": "uint256"
        },
        {
          "internalType": "string",
          "name": "_name",
          "type": "string"
        },
        {
          "internalType": "string",
          "name": "_contactNum",
          "type": "string"
        },
        {
          "internalType": "uint256[]",
          "name": "_possessedIndications",
          "type": "uint256[]"
        },
        {
          "internalType": "address",
          "name": "_owner",
          "type": "address"
        },
        {
          "internalType": "bool",
          "name": "resolution",
          "type": "bool"
        }
      ],
      "name": "updatePatient",
      "outputs": [],
      "payable": false,
      "stateMutability": "nonpayable",
      "type": "function"
    },
    {
      "constant": false,
      "inputs": [
        {
          "internalType": "uint256",
          "name": "patientID",
          "type": "uint256"
        }
      ],
      "name": "unlistPatient",
      "outputs": [],
      "payable": false,
      "stateMutability": "nonpayable",
      "type": "function"
    },
    {
      "constant": true,
      "inputs": [
        {
          "internalType": "uint256",
          "name": "patientID",
          "type": "uint256"
        }
      ],
      "name": "getIndications",
      "outputs": [
        {
          "internalType": "uint256[]",
          "name": "",
          "type": "uint256[]"
        }
      ],
      "payable": false,
      "stateMutability": "view",
      "type": "function"
    },
    {
      "constant": true,
      "inputs": [],
      "name": "getOwner",
      "outputs": [
        {
          "internalType": "address",
          "name": "",
          "type": "address"
        }
      ],
      "payable": false,
      "stateMutability": "view",
      "type": "function"
    },
    {
      "constant": true,
      "inputs": [
        {
          "internalType": "uint256",
          "name": "patientID",
          "type": "uint256"
        }
      ],
      "name": "getPatient",
      "outputs": [
        {
          "internalType": "string",
          "name": "",
          "type": "string"
        },
        {
          "internalType": "string",
          "name": "",
          "type": "string"
        },
        {
          "internalType": "uint256[]",
          "name": "",
          "type": "uint256[]"
        },
        {
          "internalType": "address",
          "name": "",
          "type": "address"
        },
        {
          "internalType": "bool",
          "name": "",
          "type": "bool"
        }
      ],
      "payable": false,
      "stateMutability": "view",
      "type": "function"
    },
    {
      "constant": true,
      "inputs": [],
      "name": "getTotalPatients",
      "outputs": [
        {
          "internalType": "uint256",
          "name": "",
          "type": "uint256"
        }
      ],
      "payable": false,
      "stateMutability": "view",
      "type": "function"
    }
  ],
  "bytecode": "0x608060405233600d60006101000a81548173ffffffffffffffffffffffffffffffffffffffff021916908373ffffffffffffffffffffffffffffffffffffffff1602179055503480156200005257600080fd5b5060405162004a1338038062004a13833981810160405260408110156200007857600080fd5b81019080805160405193929190846401000000008211156200009957600080fd5b83820191506020820185811115620000b057600080fd5b8251866020820283011164010000000082111715620000ce57600080fd5b8083526020830192505050908051906020019060200280838360005b8381101562000107578082015181840152602081019050620000ea565b50505050905001604052602001805160405193929190846401000000008211156200013157600080fd5b838201915060208201858111156200014857600080fd5b82518660208202830111640100000000821117156200016657600080fd5b8083526020830192505050908051906020019060200280838360005b838110156200019f57808201518184015260208101905062000182565b505050509050016040525050506040518060400160405280600781526020017f50617469656e74000000000000000000000000000000000000000000000000008152506040518060400160405280600381526020017f50415400000000000000000000000000000000000000000000000000000000008152508181620002326301ffc9a760e01b6200042c60201b60201c565b6200024a6380ac58cd60e01b6200042c60201b60201c565b6200026263780e9d6360e01b6200042c60201b60201c565b81600990805190602001906200027a929190620006d9565b5080600a908051906020019062000293929190620006d9565b50620002ac635b5e139f60e01b6200042c60201b60201c565b505050506001601281905550600060138190555060008090505b825181101562000371576001600e6000858481518110620002e357fe5b602002602001015173ffffffffffffffffffffffffffffffffffffffff1673ffffffffffffffffffffffffffffffffffffffff16815260200190815260200160002060006101000a81548160ff021916908315150217905550620003638382815181106200034d57fe5b602002602001015160016200053560201b60201c565b8080600101915050620002c6565b5060008090505b815181101562000423576001600f60008484815181106200039557fe5b602002602001015173ffffffffffffffffffffffffffffffffffffffff1673ffffffffffffffffffffffffffffffffffffffff16815260200190815260200160002060006101000a81548160ff02191690831515021790555062000415828281518110620003ff57fe5b602002602001015160016200053560201b60201c565b808060010191505062000378565b50505062000788565b63ffffffff60e01b817bffffffffffffffffffffffffffffffffffffffffffffffffffffffff19161415620004c9576040517f08c379a000000000000000000000000000000000000000000000000000000000815260040180806020018281038252601c8152602001807f4552433136353a20696e76616c696420696e746572666163652069640000000081525060200191505060405180910390fd5b6001600080837bffffffffffffffffffffffffffffffffffffffffffffffffffffffff19167bffffffffffffffffffffffffffffffffffffffffffffffffffffffff1916815260200190815260200160002060006101000a81548160ff02191690831515021790555050565b3373ffffffffffffffffffffffffffffffffffffffff168273ffffffffffffffffffffffffffffffffffffffff161415620005d8576040517f08c379a00000000000000000000000000000000000000000000000000000000081526004018080602001828103825260198152602001807f4552433732313a20617070726f766520746f2063616c6c65720000000000000081525060200191505060405180910390fd5b80600460003373ffffffffffffffffffffffffffffffffffffffff1673ffffffffffffffffffffffffffffffffffffffff16815260200190815260200160002060008473ffffffffffffffffffffffffffffffffffffffff1673ffffffffffffffffffffffffffffffffffffffff16815260200190815260200160002060006101000a81548160ff0219169083151502179055508173ffffffffffffffffffffffffffffffffffffffff163373ffffffffffffffffffffffffffffffffffffffff167f17307eab39ab6107e8899845ad3d59bd9653f200f220920489ca2b5937696c3183604051808215151515815260200191505060405180910390a35050565b828054600181600116156101000203166002900490600052602060002090601f016020900481019282601f106200071c57805160ff19168380011785556200074d565b828001600101855582156200074d579182015b828111156200074c5782518255916020019190600101906200072f565b5b5090506200075c919062000760565b5090565b6200078591905b808211156200078157600081600090555060010162000767565b5090565b90565b61427b80620007986000396000f3fe608060405234801561001057600080fd5b50600436106101f05760003560e01c806370a082311161010f578063b7e306a3116100a2578063e985e9c511610071578063e985e9c514611126578063f497e189146111a2578063f9bf9a7f146111c0578063fb58b222146111ee576101f0565b8063b7e306a314610eda578063b88d4fde14610f36578063c87b56dd1461103b578063dce4e7cd146110e2576101f0565b8063a22cb465116100de578063a22cb46514610de0578063a529a9c614610e30578063a6b2593014610e5e578063ae31516914610e8c576101f0565b806370a0823114610b225780637d3a679614610b7a578063893d20e814610d1357806395d89b4114610d5d576101f0565b806326c0bc8a116101875780634f6ccce7116101565780634f6ccce71461083457806361878fc4146108765780636352211e146108ba578063657250fb14610928576101f0565b806326c0bc8a146105045780632f745c591461072057806335d78dc51461078257806342842e0e146107c6576101f0565b806313e7ca4b116101c357806313e7ca4b1461039957806317f23b2e1461041c57806318160ddd1461047857806323b872dd14610496576101f0565b806301ffc9a7146101f557806306fdde031461025a578063081812fc146102dd578063095ea7b31461034b575b600080fd5b6102406004803603602081101561020b57600080fd5b8101908080357bffffffffffffffffffffffffffffffffffffffffffffffffffffffff1916906020019092919050505061123c565b604051808215151515815260200191505060405180910390f35b6102626112a3565b6040518080602001828103825283818151815260200191508051906020019080838360005b838110156102a2578082015181840152602081019050610287565b50505050905090810190601f1680156102cf5780820380516001836020036101000a031916815260200191505b509250505060405180910390f35b610309600480360360208110156102f357600080fd5b8101908080359060200190929190505050611345565b604051808273ffffffffffffffffffffffffffffffffffffffff1673ffffffffffffffffffffffffffffffffffffffff16815260200191505060405180910390f35b6103976004803603604081101561036157600080fd5b81019080803573ffffffffffffffffffffffffffffffffffffffff169060200190929190803590602001909291905050506113e0565b005b6103c5600480360360208110156103af57600080fd5b81019080803590602001909291905050506115b9565b6040518080602001828103825283818151815260200191508051906020019060200280838360005b838110156104085780820151818401526020810190506103ed565b505050509050019250505060405180910390f35b61045e6004803603602081101561043257600080fd5b81019080803573ffffffffffffffffffffffffffffffffffffffff169060200190929190505050611627565b604051808215151515815260200191505060405180910390f35b610480611732565b6040518082815260200191505060405180910390f35b610502600480360360608110156104ac57600080fd5b81019080803573ffffffffffffffffffffffffffffffffffffffff169060200190929190803573ffffffffffffffffffffffffffffffffffffffff1690602001909291908035906020019092919050505061173f565b005b61071e600480360360c081101561051a57600080fd5b81019080803590602001909291908035906020019064010000000081111561054157600080fd5b82018360208201111561055357600080fd5b8035906020019184600183028401116401000000008311171561057557600080fd5b91908080601f016020809104026020016040519081016040528093929190818152602001838380828437600081840152601f19601f820116905080830192505050505050509192919290803590602001906401000000008111156105d857600080fd5b8201836020820111156105ea57600080fd5b8035906020019184600183028401116401000000008311171561060c57600080fd5b91908080601f016020809104026020016040519081016040528093929190818152602001838380828437600081840152601f19601f8201169050808301925050505050505091929192908035906020019064010000000081111561066f57600080fd5b82018360208201111561068157600080fd5b803590602001918460208302840111640100000000831117156106a357600080fd5b919080806020026020016040519081016040528093929190818152602001838360200280828437600081840152601f19601f820116905080830192505050505050509192919290803573ffffffffffffffffffffffffffffffffffffffff16906020019092919080351515906020019092919050505061178f565b005b61076c6004803603604081101561073657600080fd5b81019080803573ffffffffffffffffffffffffffffffffffffffff169060200190929190803590602001909291905050506119bb565b6040518082815260200191505060405180910390f35b6107c46004803603602081101561079857600080fd5b81019080803573ffffffffffffffffffffffffffffffffffffffff169060200190929190505050611a7a565b005b610832600480360360608110156107dc57600080fd5b81019080803573ffffffffffffffffffffffffffffffffffffffff169060200190929190803573ffffffffffffffffffffffffffffffffffffffff16906020019092919080359060200190929190505050611b18565b005b6108606004803603602081101561084a57600080fd5b8101908080359060200190929190505050611b38565b6040518082815260200191505060405180910390f35b6108b86004803603602081101561088c57600080fd5b81019080803573ffffffffffffffffffffffffffffffffffffffff169060200190929190505050611bb8565b005b6108e6600480360360208110156108d057600080fd5b8101908080359060200190929190505050611d36565b604051808273ffffffffffffffffffffffffffffffffffffffff1673ffffffffffffffffffffffffffffffffffffffff16815260200191505060405180910390f35b610b0c6004803603606081101561093e57600080fd5b810190808035906020019064010000000081111561095b57600080fd5b82018360208201111561096d57600080fd5b8035906020019184600183028401116401000000008311171561098f57600080fd5b91908080601f016020809104026020016040519081016040528093929190818152602001838380828437600081840152601f19601f820116905080830192505050505050509192919290803590602001906401000000008111156109f257600080fd5b820183602082011115610a0457600080fd5b80359060200191846001830284011164010000000083111715610a2657600080fd5b91908080601f016020809104026020016040519081016040528093929190818152602001838380828437600081840152601f19601f82011690508083019250505050505050919291929080359060200190640100000000811115610a8957600080fd5b820183602082011115610a9b57600080fd5b80359060200191846020830284011164010000000083111715610abd57600080fd5b919080806020026020016040519081016040528093929190818152602001838360200280828437600081840152601f19601f820116905080830192505050505050509192919290505050611dfe565b6040518082815260200191505060405180910390f35b610b6460048036036020811015610b3857600080fd5b81019080803573ffffffffffffffffffffffffffffffffffffffff169060200190929190505050612022565b6040518082815260200191505060405180910390f35b610ba660048036036020811015610b9057600080fd5b81019080803590602001909291905050506120f7565b604051808060200180602001806020018673ffffffffffffffffffffffffffffffffffffffff1673ffffffffffffffffffffffffffffffffffffffff16815260200185151515158152602001848103845289818151815260200191508051906020019080838360005b83811015610c2a578082015181840152602081019050610c0f565b50505050905090810190601f168015610c575780820380516001836020036101000a031916815260200191505b50848103835288818151815260200191508051906020019080838360005b83811015610c90578082015181840152602081019050610c75565b50505050905090810190601f168015610cbd5780820380516001836020036101000a031916815260200191505b50848103825287818151815260200191508051906020019060200280838360005b83811015610cf9578082015181840152602081019050610cde565b505050509050019850505050505050505060405180910390f35b610d1b612449565b604051808273ffffffffffffffffffffffffffffffffffffffff1673ffffffffffffffffffffffffffffffffffffffff16815260200191505060405180910390f35b610d65612473565b6040518080602001828103825283818151815260200191508051906020019080838360005b83811015610da5578082015181840152602081019050610d8a565b50505050905090810190601f168015610dd25780820380516001836020036101000a031916815260200191505b509250505060405180910390f35b610e2e60048036036040811015610df657600080fd5b81019080803573ffffffffffffffffffffffffffffffffffffffff169060200190929190803515159060200190929190505050612515565b005b610e5c60048036036020811015610e4657600080fd5b81019080803590602001909291905050506126b8565b005b610e8a60048036036020811015610e7457600080fd5b81019080803590602001909291905050506127cd565b005b610ed860048036036040811015610ea257600080fd5b8101908080359060200190929190803573ffffffffffffffffffffffffffffffffffffffff169060200190929190505050612948565b005b610f1c60048036036020811015610ef057600080fd5b81019080803573ffffffffffffffffffffffffffffffffffffffff169060200190929190505050612a81565b604051808215151515815260200191505060405180910390f35b61103960048036036080811015610f4c57600080fd5b81019080803573ffffffffffffffffffffffffffffffffffffffff169060200190929190803573ffffffffffffffffffffffffffffffffffffffff1690602001909291908035906020019092919080359060200190640100000000811115610fb357600080fd5b820183602082011115610fc557600080fd5b80359060200191846001830284011164010000000083111715610fe757600080fd5b91908080601f016020809104026020016040519081016040528093929190818152602001838380828437600081840152601f19601f820116905080830192505050505050509192919290505050612b31565b005b6110676004803603602081101561105157600080fd5b8101908080359060200190929190505050612ba3565b6040518080602001828103825283818151815260200191508051906020019080838360005b838110156110a757808201518184015260208101905061108c565b50505050905090810190601f1680156110d45780820380516001836020036101000a031916815260200191505b509250505060405180910390f35b611124600480360360208110156110f857600080fd5b81019080803573ffffffffffffffffffffffffffffffffffffffff169060200190929190505050612cb6565b005b6111886004803603604081101561113c57600080fd5b81019080803573ffffffffffffffffffffffffffffffffffffffff169060200190929190803573ffffffffffffffffffffffffffffffffffffffff169060200190929190505050612dd9565b604051808215151515815260200191505060405180910390f35b6111aa612e6d565b6040518082815260200191505060405180910390f35b6111ec600480360360208110156111d657600080fd5b8101908080359060200190929190505050612e77565b005b61123a6004803603604081101561120457600080fd5b8101908080359060200190929190803573ffffffffffffffffffffffffffffffffffffffff169060200190929190505050613031565b005b6000806000837bffffffffffffffffffffffffffffffffffffffffffffffffffffffff19167bffffffffffffffffffffffffffffffffffffffffffffffffffffffff1916815260200190815260200160002060009054906101000a900460ff169050919050565b606060098054600181600116156101000203166002900480601f01602080910402602001604051908101604052809291908181526020018280546001816001161561010002031660029004801561133b5780601f106113105761010080835404028352916020019161133b565b820191906000526020600020905b81548152906001019060200180831161131e57829003601f168201915b5050505050905090565b6000611350826132cb565b6113a5576040517f08c379a000000000000000000000000000000000000000000000000000000000815260040180806020018281038252602c815260200180614176602c913960400191505060405180910390fd5b6002600083815260200190815260200160002060009054906101000a900473ffffffffffffffffffffffffffffffffffffffff169050919050565b60006113eb82611d36565b90508073ffffffffffffffffffffffffffffffffffffffff168373ffffffffffffffffffffffffffffffffffffffff161415611472576040517f08c379a00000000000000000000000000000000000000000000000000000000081526004018080602001828103825260218152602001806141fa6021913960400191505060405180910390fd5b8073ffffffffffffffffffffffffffffffffffffffff163373ffffffffffffffffffffffffffffffffffffffff1614806114b257506114b18133612dd9565b5b611507576040517f08c379a00000000000000000000000000000000000000000000000000000000081526004018080602001828103825260388152602001806140eb6038913960400191505060405180910390fd5b826002600084815260200190815260200160002060006101000a81548173ffffffffffffffffffffffffffffffffffffffff021916908373ffffffffffffffffffffffffffffffffffffffff160217905550818373ffffffffffffffffffffffffffffffffffffffff168273ffffffffffffffffffffffffffffffffffffffff167f8c5be1e5ebec7d5bd14f71427d1e84f3dd0314c0f7b2291e5b200ac8c7c3b92560405160405180910390a4505050565b60606010600083815260200190815260200160002060030180548060200260200160405190810160405280929190818152602001828054801561161b57602002820191906000526020600020905b815481526020019060010190808311611607575b50505050509050919050565b600060011515600e60003373ffffffffffffffffffffffffffffffffffffffff1673ffffffffffffffffffffffffffffffffffffffff16815260200190815260200160002060009054906101000a900460ff16151514806116d55750600d60009054906101000a900473ffffffffffffffffffffffffffffffffffffffff1673ffffffffffffffffffffffffffffffffffffffff163373ffffffffffffffffffffffffffffffffffffffff16145b6116de57600080fd5b600f60008373ffffffffffffffffffffffffffffffffffffffff1673ffffffffffffffffffffffffffffffffffffffff16815260200190815260200160002060009054906101000a900460ff169050919050565b6000600780549050905090565b8273ffffffffffffffffffffffffffffffffffffffff1661175f82611d36565b73ffffffffffffffffffffffffffffffffffffffff161461177f57600080fd5b61178a83838361333d565b505050565b60011515600e60003373ffffffffffffffffffffffffffffffffffffffff1673ffffffffffffffffffffffffffffffffffffffff16815260200190815260200160002060009054906101000a900460ff161515148061183b5750600d60009054906101000a900473ffffffffffffffffffffffffffffffffffffffff1673ffffffffffffffffffffffffffffffffffffffff163373ffffffffffffffffffffffffffffffffffffffff16145b61184457600080fd5b8460106000888152602001908152602001600020600101908051906020019061186e929190613e30565b5083601060008881526020019081526020016000206002019080519060200190611899929190613e30565b50826010600088815260200190815260200160002060030190805190602001906118c4929190613eb0565b50816010600088815260200190815260200160002060040160006101000a81548173ffffffffffffffffffffffffffffffffffffffff021916908373ffffffffffffffffffffffffffffffffffffffff160217905550806010600088815260200190815260200160002060040160146101000a81548160ff0219169083151502179055507f2e943002f66a261aa0e546cf9618bd716755c99d8a3930e2fdae512c6d201be98633604051808381526020018273ffffffffffffffffffffffffffffffffffffffff1673ffffffffffffffffffffffffffffffffffffffff1681526020019250505060405180910390a1505050505050565b60006119c683612022565b8210611a1d576040517f08c379a000000000000000000000000000000000000000000000000000000000815260040180806020018281038252602b81526020018061406a602b913960400191505060405180910390fd5b600560008473ffffffffffffffffffffffffffffffffffffffff1673ffffffffffffffffffffffffffffffffffffffff1681526020019081526020016000208281548110611a6757fe5b9060005260206000200154905092915050565b600d60009054906101000a900473ffffffffffffffffffffffffffffffffffffffff1673ffffffffffffffffffffffffffffffffffffffff163373ffffffffffffffffffffffffffffffffffffffff1614611ad457600080fd5b80600c60006101000a81548173ffffffffffffffffffffffffffffffffffffffff021916908373ffffffffffffffffffffffffffffffffffffffff16021790555050565b611b3383838360405180602001604052806000815250612b31565b505050565b6000611b42611732565b8210611b99576040517f08c379a000000000000000000000000000000000000000000000000000000000815260040180806020018281038252602c81526020018061421b602c913960400191505060405180910390fd5b60078281548110611ba657fe5b90600052602060002001549050919050565b60011515600e60003373ffffffffffffffffffffffffffffffffffffffff1673ffffffffffffffffffffffffffffffffffffffff16815260200190815260200160002060009054906101000a900460ff1615151480611c645750600d60009054906101000a900473ffffffffffffffffffffffffffffffffffffffff1673ffffffffffffffffffffffffffffffffffffffff163373ffffffffffffffffffffffffffffffffffffffff16145b611c6d57600080fd5b6001600f60008373ffffffffffffffffffffffffffffffffffffffff1673ffffffffffffffffffffffffffffffffffffffff16815260200190815260200160002060006101000a81548160ff021916908315150217905550611cd0816001612515565b7f75c6d250f36ec3e0ac4c624b0d841492ba249d82cb2e5ff43f7d4cc03b29724881604051808273ffffffffffffffffffffffffffffffffffffffff1673ffffffffffffffffffffffffffffffffffffffff16815260200191505060405180910390a150565b6000806001600084815260200190815260200160002060009054906101000a900473ffffffffffffffffffffffffffffffffffffffff169050600073ffffffffffffffffffffffffffffffffffffffff168173ffffffffffffffffffffffffffffffffffffffff161415611df5576040517f08c379a000000000000000000000000000000000000000000000000000000000815260040180806020018281038252602981526020018061414d6029913960400191505060405180910390fd5b80915050919050565b600060011515600e60003373ffffffffffffffffffffffffffffffffffffffff1673ffffffffffffffffffffffffffffffffffffffff16815260200190815260200160002060009054906101000a900460ff1615151480611eac5750600d60009054906101000a900473ffffffffffffffffffffffffffffffffffffffff1673ffffffffffffffffffffffffffffffffffffffff163373ffffffffffffffffffffffffffffffffffffffff16145b611eb557600080fd5b611ebd613efd565b6040518060c001604052806012548152602001868152602001858152602001848152602001600073ffffffffffffffffffffffffffffffffffffffff16815260200160001515815250905080601060006012548152602001908152602001600020600082015181600001556020820151816001019080519060200190611f44929190613f4b565b506040820151816002019080519060200190611f61929190613f4b565b506060820151816003019080519060200190611f7e929190613fcb565b5060808201518160040160006101000a81548173ffffffffffffffffffffffffffffffffffffffff021916908373ffffffffffffffffffffffffffffffffffffffff16021790555060a08201518160040160146101000a81548160ff021916908315150217905550905050611ff530601254613361565b60136000815480929190600101919050555060126000815480929190600101919050559150509392505050565b60008073ffffffffffffffffffffffffffffffffffffffff168273ffffffffffffffffffffffffffffffffffffffff1614156120a9576040517f08c379a000000000000000000000000000000000000000000000000000000000815260040180806020018281038252602a815260200180614123602a913960400191505060405180910390fd5b6120f0600360008473ffffffffffffffffffffffffffffffffffffffff1673ffffffffffffffffffffffffffffffffffffffff168152602001908152602001600020613382565b9050919050565b606080606060008060011515600f60003373ffffffffffffffffffffffffffffffffffffffff1673ffffffffffffffffffffffffffffffffffffffff16815260200190815260200160002060009054906101000a900460ff16151514806121ae575060011515600e60003373ffffffffffffffffffffffffffffffffffffffff1673ffffffffffffffffffffffffffffffffffffffff16815260200190815260200160002060009054906101000a900460ff161515145b806122065750600d60009054906101000a900473ffffffffffffffffffffffffffffffffffffffff1673ffffffffffffffffffffffffffffffffffffffff163373ffffffffffffffffffffffffffffffffffffffff16145b61220f57600080fd5b601060008781526020019081526020016000206001016010600088815260200190815260200160002060020160106000898152602001908152602001600020600301601060008a815260200190815260200160002060040160009054906101000a900473ffffffffffffffffffffffffffffffffffffffff16601060008b815260200190815260200160002060040160149054906101000a900460ff16848054600181600116156101000203166002900480601f0160208091040260200160405190810160405280929190818152602001828054600181600116156101000203166002900480156123415780601f1061231657610100808354040283529160200191612341565b820191906000526020600020905b81548152906001019060200180831161232457829003601f168201915b50505050509450838054600181600116156101000203166002900480601f0160208091040260200160405190810160405280929190818152602001828054600181600116156101000203166002900480156123dd5780601f106123b2576101008083540402835291602001916123dd565b820191906000526020600020905b8154815290600101906020018083116123c057829003601f168201915b505050505093508280548060200260200160405190810160405280929190818152602001828054801561242f57602002820191906000526020600020905b81548152602001906001019080831161241b575b505050505092509450945094509450945091939590929450565b6000600d60009054906101000a900473ffffffffffffffffffffffffffffffffffffffff16905090565b6060600a8054600181600116156101000203166002900480601f01602080910402602001604051908101604052809291908181526020018280546001816001161561010002031660029004801561250b5780601f106124e05761010080835404028352916020019161250b565b820191906000526020600020905b8154815290600101906020018083116124ee57829003601f168201915b5050505050905090565b3373ffffffffffffffffffffffffffffffffffffffff168273ffffffffffffffffffffffffffffffffffffffff1614156125b7576040517f08c379a00000000000000000000000000000000000000000000000000000000081526004018080602001828103825260198152602001807f4552433732313a20617070726f766520746f2063616c6c65720000000000000081525060200191505060405180910390fd5b80600460003373ffffffffffffffffffffffffffffffffffffffff1673ffffffffffffffffffffffffffffffffffffffff16815260200190815260200160002060008473ffffffffffffffffffffffffffffffffffffffff1673ffffffffffffffffffffffffffffffffffffffff16815260200190815260200160002060006101000a81548160ff0219169083151502179055508173ffffffffffffffffffffffffffffffffffffffff163373ffffffffffffffffffffffffffffffffffffffff167f17307eab39ab6107e8899845ad3d59bd9653f200f220920489ca2b5937696c3183604051808215151515815260200191505060405180910390a35050565b803373ffffffffffffffffffffffffffffffffffffffff166126d982611d36565b73ffffffffffffffffffffffffffffffffffffffff16146126f957600080fd5b81600015156010600083815260200190815260200160002060040160149054906101000a900460ff1615151461272e57600080fd5b60016010600085815260200190815260200160002060040160146101000a81548160ff0219169083151502179055507fb1b34e6d89e1c584527d447f4b29ffad55635a37edeeb564939a6483401b31a58333604051808381526020018273ffffffffffffffffffffffffffffffffffffffff1673ffffffffffffffffffffffffffffffffffffffff1681526020019250505060405180910390a1505050565b60011515600e60003373ffffffffffffffffffffffffffffffffffffffff1673ffffffffffffffffffffffffffffffffffffffff16815260200190815260200160002060009054906101000a900460ff16151514806128795750600d60009054906101000a900473ffffffffffffffffffffffffffffffffffffffff1673ffffffffffffffffffffffffffffffffffffffff163373ffffffffffffffffffffffffffffffffffffffff16145b61288257600080fd5b80600115156011600083815260200190815260200160002060009054906101000a900460ff161515146128b457600080fd5b6011600083815260200190815260200160002060006101000a81549060ff02191690557fce7aa37f7d04162a8f0c50b2f6cc1771a3dbf74d67b074dc0c83c363637965af60125433604051808381526020018273ffffffffffffffffffffffffffffffffffffffff1673ffffffffffffffffffffffffffffffffffffffff1681526020019250505060405180910390a15050565b81600015156010600083815260200190815260200160002060040160149054906101000a900460ff1615151461297d57600080fd5b61298833838561173f565b816010600085815260200190815260200160002060040160006101000a81548173ffffffffffffffffffffffffffffffffffffffff021916908373ffffffffffffffffffffffffffffffffffffffff1602179055507f0a429aba3d89849a2db0153e4534d95c46a1d83c8109d73893f55ebc44010ff4833384604051808481526020018373ffffffffffffffffffffffffffffffffffffffff1673ffffffffffffffffffffffffffffffffffffffff1681526020018273ffffffffffffffffffffffffffffffffffffffff1673ffffffffffffffffffffffffffffffffffffffff168152602001935050505060405180910390a1505050565b6000600d60009054906101000a900473ffffffffffffffffffffffffffffffffffffffff1673ffffffffffffffffffffffffffffffffffffffff163373ffffffffffffffffffffffffffffffffffffffff1614612add57600080fd5b600e60008373ffffffffffffffffffffffffffffffffffffffff1673ffffffffffffffffffffffffffffffffffffffff16815260200190815260200160002060009054906101000a900460ff169050919050565b612b3c84848461173f565b612b4884848484613390565b612b9d576040517f08c379a00000000000000000000000000000000000000000000000000000000081526004018080602001828103825260328152602001806140956032913960400191505060405180910390fd5b50505050565b6060612bae826132cb565b612c03576040517f08c379a000000000000000000000000000000000000000000000000000000000815260040180806020018281038252602f8152602001806141cb602f913960400191505060405180910390fd5b600b60008381526020019081526020016000208054600181600116156101000203166002900480601f016020809104026020016040519081016040528092919081815260200182805460018160011615610100020316600290048015612caa5780601f10612c7f57610100808354040283529160200191612caa565b820191906000526020600020905b815481529060010190602001808311612c8d57829003601f168201915b50505050509050919050565b600d60009054906101000a900473ffffffffffffffffffffffffffffffffffffffff1673ffffffffffffffffffffffffffffffffffffffff163373ffffffffffffffffffffffffffffffffffffffff1614612d1057600080fd5b6001600e60008373ffffffffffffffffffffffffffffffffffffffff1673ffffffffffffffffffffffffffffffffffffffff16815260200190815260200160002060006101000a81548160ff021916908315150217905550612d73816001612515565b7fb8af08a8c105d8bda87de9f45e99b30646362e30999b210284411a6ca71be8ff81604051808273ffffffffffffffffffffffffffffffffffffffff1673ffffffffffffffffffffffffffffffffffffffff16815260200191505060405180910390a150565b6000600460008473ffffffffffffffffffffffffffffffffffffffff1673ffffffffffffffffffffffffffffffffffffffff16815260200190815260200160002060008373ffffffffffffffffffffffffffffffffffffffff1673ffffffffffffffffffffffffffffffffffffffff16815260200190815260200160002060009054906101000a900460ff16905092915050565b6000601354905090565b60011515600e60003373ffffffffffffffffffffffffffffffffffffffff1673ffffffffffffffffffffffffffffffffffffffff16815260200190815260200160002060009054906101000a900460ff1615151480612f235750600d60009054906101000a900473ffffffffffffffffffffffffffffffffffffffff1673ffffffffffffffffffffffffffffffffffffffff163373ffffffffffffffffffffffffffffffffffffffff16145b612f2c57600080fd5b80600015156011600083815260200190815260200160002060009054906101000a900460ff16151514612f5e57600080fd5b81600015156010600083815260200190815260200160002060040160149054906101000a900460ff16151514612f9357600080fd5b60016011600085815260200190815260200160002060006101000a81548160ff0219169083151502179055507f2abf3c9541619dd5825826a0aceeb5dbd5068c5873fbc754497cf5950097d25c60125433604051808381526020018273ffffffffffffffffffffffffffffffffffffffff1673ffffffffffffffffffffffffffffffffffffffff1681526020019250505060405180910390a1505050565b60011515600e60003373ffffffffffffffffffffffffffffffffffffffff1673ffffffffffffffffffffffffffffffffffffffff16815260200190815260200160002060009054906101000a900460ff16151514806130dd5750600d60009054906101000a900473ffffffffffffffffffffffffffffffffffffffff1673ffffffffffffffffffffffffffffffffffffffff163373ffffffffffffffffffffffffffffffffffffffff16145b806131355750600c60009054906101000a900473ffffffffffffffffffffffffffffffffffffffff1673ffffffffffffffffffffffffffffffffffffffff163373ffffffffffffffffffffffffffffffffffffffff16145b61313e57600080fd5b81600115156011600083815260200190815260200160002060009054906101000a900460ff1615151461317057600080fd5b816010600085815260200190815260200160002060040160006101000a81548173ffffffffffffffffffffffffffffffffffffffff021916908373ffffffffffffffffffffffffffffffffffffffff1602179055506131d030838561173f565b6011600084815260200190815260200160002060006101000a81549060ff02191690557ff00b39135e3c193dd5a4219a20a7cb138c41c8f9f72ca11db2d061f8ad56072383308433604051808581526020018473ffffffffffffffffffffffffffffffffffffffff1673ffffffffffffffffffffffffffffffffffffffff1681526020018373ffffffffffffffffffffffffffffffffffffffff1673ffffffffffffffffffffffffffffffffffffffff1681526020018273ffffffffffffffffffffffffffffffffffffffff1673ffffffffffffffffffffffffffffffffffffffff16815260200194505050505060405180910390a1505050565b6000806001600084815260200190815260200160002060009054906101000a900473ffffffffffffffffffffffffffffffffffffffff169050600073ffffffffffffffffffffffffffffffffffffffff168173ffffffffffffffffffffffffffffffffffffffff161415915050919050565b613348838383613579565b61335283826137d4565b61335c8282613972565b505050565b61336b8282613a39565b6133758282613972565b61337e81613c51565b5050565b600081600001549050919050565b60006133b18473ffffffffffffffffffffffffffffffffffffffff16613c9d565b6133be5760019050613571565b60008473ffffffffffffffffffffffffffffffffffffffff1663150b7a02338887876040518563ffffffff1660e01b8152600401808573ffffffffffffffffffffffffffffffffffffffff1673ffffffffffffffffffffffffffffffffffffffff1681526020018473ffffffffffffffffffffffffffffffffffffffff1673ffffffffffffffffffffffffffffffffffffffff16815260200183815260200180602001828103825283818151815260200191508051906020019080838360005b8381101561349957808201518184015260208101905061347e565b50505050905090810190601f1680156134c65780820380516001836020036101000a031916815260200191505b5095505050505050602060405180830381600087803b1580156134e857600080fd5b505af11580156134fc573d6000803e3d6000fd5b505050506040513d602081101561351257600080fd5b8101908080519060200190929190505050905063150b7a0260e01b7bffffffffffffffffffffffffffffffffffffffffffffffffffffffff1916817bffffffffffffffffffffffffffffffffffffffffffffffffffffffff1916149150505b949350505050565b8273ffffffffffffffffffffffffffffffffffffffff1661359982611d36565b73ffffffffffffffffffffffffffffffffffffffff1614613605576040517f08c379a00000000000000000000000000000000000000000000000000000000081526004018080602001828103825260298152602001806141a26029913960400191505060405180910390fd5b600073ffffffffffffffffffffffffffffffffffffffff168273ffffffffffffffffffffffffffffffffffffffff16141561368b576040517f08c379a00000000000000000000000000000000000000000000000000000000081526004018080602001828103825260248152602001806140c76024913960400191505060405180910390fd5b61369481613cb0565b6136db600360008573ffffffffffffffffffffffffffffffffffffffff1673ffffffffffffffffffffffffffffffffffffffff168152602001908152602001600020613d6e565b613722600360008473ffffffffffffffffffffffffffffffffffffffff1673ffffffffffffffffffffffffffffffffffffffff168152602001908152602001600020613d91565b816001600083815260200190815260200160002060006101000a81548173ffffffffffffffffffffffffffffffffffffffff021916908373ffffffffffffffffffffffffffffffffffffffff160217905550808273ffffffffffffffffffffffffffffffffffffffff168473ffffffffffffffffffffffffffffffffffffffff167fddf252ad1be2c89b69c2b068fc378daa952ba7f163c4a11628f55a4df523b3ef60405160405180910390a4505050565b600061382c6001600560008673ffffffffffffffffffffffffffffffffffffffff1673ffffffffffffffffffffffffffffffffffffffff16815260200190815260200160002080549050613da790919063ffffffff16565b9050600060066000848152602001908152602001600020549050818114613919576000600560008673ffffffffffffffffffffffffffffffffffffffff1673ffffffffffffffffffffffffffffffffffffffff168152602001908152602001600020838154811061389957fe5b9060005260206000200154905080600560008773ffffffffffffffffffffffffffffffffffffffff1673ffffffffffffffffffffffffffffffffffffffff16815260200190815260200160002083815481106138f157fe5b9060005260206000200181905550816006600083815260200190815260200160002081905550505b600560008573ffffffffffffffffffffffffffffffffffffffff1673ffffffffffffffffffffffffffffffffffffffff16815260200190815260200160002080548091906001900361396b9190614018565b5050505050565b600560008373ffffffffffffffffffffffffffffffffffffffff1673ffffffffffffffffffffffffffffffffffffffff168152602001908152602001600020805490506006600083815260200190815260200160002081905550600560008373ffffffffffffffffffffffffffffffffffffffff1673ffffffffffffffffffffffffffffffffffffffff1681526020019081526020016000208190806001815401808255809150509060018203906000526020600020016000909192909190915055505050565b600073ffffffffffffffffffffffffffffffffffffffff168273ffffffffffffffffffffffffffffffffffffffff161415613adc576040517f08c379a00000000000000000000000000000000000000000000000000000000081526004018080602001828103825260208152602001807f4552433732313a206d696e7420746f20746865207a65726f206164647265737381525060200191505060405180910390fd5b613ae5816132cb565b15613b58576040517f08c379a000000000000000000000000000000000000000000000000000000000815260040180806020018281038252601c8152602001807f4552433732313a20746f6b656e20616c7265616479206d696e7465640000000081525060200191505060405180910390fd5b816001600083815260200190815260200160002060006101000a81548173ffffffffffffffffffffffffffffffffffffffff021916908373ffffffffffffffffffffffffffffffffffffffff160217905550613bf1600360008473ffffffffffffffffffffffffffffffffffffffff1673ffffffffffffffffffffffffffffffffffffffff168152602001908152602001600020613d91565b808273ffffffffffffffffffffffffffffffffffffffff16600073ffffffffffffffffffffffffffffffffffffffff167fddf252ad1be2c89b69c2b068fc378daa952ba7f163c4a11628f55a4df523b3ef60405160405180910390a45050565b6007805490506008600083815260200190815260200160002081905550600781908060018154018082558091505090600182039060005260206000200160009091929091909150555050565b600080823b905060008111915050919050565b600073ffffffffffffffffffffffffffffffffffffffff166002600083815260200190815260200160002060009054906101000a900473ffffffffffffffffffffffffffffffffffffffff1673ffffffffffffffffffffffffffffffffffffffff1614613d6b5760006002600083815260200190815260200160002060006101000a81548173ffffffffffffffffffffffffffffffffffffffff021916908373ffffffffffffffffffffffffffffffffffffffff1602179055505b50565b613d8660018260000154613da790919063ffffffff16565b816000018190555050565b6001816000016000828254019250508190555050565b600082821115613e1f576040517f08c379a000000000000000000000000000000000000000000000000000000000815260040180806020018281038252601e8152602001807f536166654d6174683a207375627472616374696f6e206f766572666c6f77000081525060200191505060405180910390fd5b600082840390508091505092915050565b828054600181600116156101000203166002900490600052602060002090601f016020900481019282601f10613e7157805160ff1916838001178555613e9f565b82800160010185558215613e9f579182015b82811115613e9e578251825591602001919060010190613e83565b5b509050613eac9190614044565b5090565b828054828255906000526020600020908101928215613eec579160200282015b82811115613eeb578251825591602001919060010190613ed0565b5b509050613ef99190614044565b5090565b6040518060c0016040528060008152602001606081526020016060815260200160608152602001600073ffffffffffffffffffffffffffffffffffffffff1681526020016000151581525090565b828054600181600116156101000203166002900490600052602060002090601f016020900481019282601f10613f8c57805160ff1916838001178555613fba565b82800160010185558215613fba579182015b82811115613fb9578251825591602001919060010190613f9e565b5b509050613fc79190614044565b5090565b828054828255906000526020600020908101928215614007579160200282015b82811115614006578251825591602001919060010190613feb565b5b5090506140149190614044565b5090565b81548183558181111561403f5781836000526020600020918201910161403e9190614044565b5b505050565b61406691905b8082111561406257600081600090555060010161404a565b5090565b9056fe455243373231456e756d657261626c653a206f776e657220696e646578206f7574206f6620626f756e64734552433732313a207472616e7366657220746f206e6f6e20455243373231526563656976657220696d706c656d656e7465724552433732313a207472616e7366657220746f20746865207a65726f20616464726573734552433732313a20617070726f76652063616c6c6572206973206e6f74206f776e6572206e6f7220617070726f76656420666f7220616c6c4552433732313a2062616c616e636520717565727920666f7220746865207a65726f20616464726573734552433732313a206f776e657220717565727920666f72206e6f6e6578697374656e7420746f6b656e4552433732313a20617070726f76656420717565727920666f72206e6f6e6578697374656e7420746f6b656e4552433732313a207472616e73666572206f6620746f6b656e2074686174206973206e6f74206f776e4552433732314d657461646174613a2055524920717565727920666f72206e6f6e6578697374656e7420746f6b656e4552433732313a20617070726f76616c20746f2063757272656e74206f776e6572455243373231456e756d657261626c653a20676c6f62616c20696e646578206f7574206f6620626f756e6473a265627a7a723158209d804e8e8f20faa069431a0dde5b5b160340bdcd2045dbc7503377eb7504ab2e64736f6c63430005100032",
  "source": "/*\r\nAuthor\t\t: Cyrus Lee\r\nMatric. No.\t: A0168385N\r\nTitle\t\t: Group02 Project - Patient v3\r\n*/\r\n\r\npragma solidity ^0.5.0;\r\n\r\nimport \"./ERC721Full.sol\";\r\n\r\ncontract Patient is ERC721Full {\r\n\t\r\n\t// == INDICATIONS ==\r\n\t\r\n\tenum Indications { \r\n\t\tCDExamCase,\r\n\t\tDentalPublicHealth,\r\n\t\tEndodontics,\r\n\t\tFixedProsthodontics,\r\n\t\tOperativeDentistry,\r\n\t\tOralSurgery,\r\n\t\tOrthodontics,\r\n\t\tPedodontics,\r\n\t\tPeriodontics,\r\n\t\tRemovableProsthodontics\r\n\t}\r\n\t\r\n\t// =================\r\n\r\n\t// == ROLES ==\r\n\t\r\n\taddress requestAddress;\r\n\taddress owner = msg.sender;\r\n\tmapping(address => bool) private powerUsers;\r\n\tmapping(address => bool) private adminUsers;\r\n\t\r\n\t// ===========\r\n\t\r\n\t// == PATIENTS == \r\n\t\r\n\tmapping(uint => _Patient) private patients;\r\n\tmapping(uint => bool) private patientPool;\r\n\t\r\n\tstruct _Patient {\r\n\t\tuint patientID;\r\n\t\tstring name;\r\n\t\tstring contactNum;\r\n\t\tuint[] possessedIndications;\r\n\t\taddress owner;\r\n\t\tbool resolved;\r\n\t}\r\n\t\r\n\t// ==============\r\n\t\r\n\t// == COUNTERS ==\r\n\t\r\n\tuint patientCount;\r\n\tuint totalPatients;\r\n\t\r\n\t// ==============\r\n\t\r\n\t//uint[] ret;\r\n\t\r\n\t// == MODIFIERS ==\r\n\t\r\n\tmodifier onlyOwner() {\r\n\t\trequire(msg.sender == owner);\r\n\t\t_;\r\n\t}\r\n\t\r\n\tmodifier onlyPowerAndUp() {\r\n\t\trequire(powerUsers[msg.sender] == true || \r\n\t\t\t\tmsg.sender == owner);\r\n\t\t_;\r\n\t}\r\n\t\r\n\tmodifier onlyPowerAndUpAndRequest() {\r\n\t\trequire(powerUsers[msg.sender] == true || \r\n\t\t\t\tmsg.sender == owner ||\r\n\t\t\t\tmsg.sender == requestAddress);\r\n\t\t_;\r\n\t}\r\n\t\r\n\tmodifier onlyAdminAndUp() {\r\n\t\trequire(adminUsers[msg.sender] == true || \r\n\t\t\t\tpowerUsers[msg.sender] == true || \r\n\t\t\t\tmsg.sender == owner);\r\n\t\t_;\r\n\t}\r\n\t\r\n\tmodifier onlyStudent(uint patientID) {\r\n\t\trequire(ownerOf(patientID) == msg.sender);\r\n\t\t_;\r\n\t}\r\n\t\r\n\tmodifier patientListed(uint patientID) {\r\n\t\trequire(patientPool[patientID] == true);\r\n\t\t_;\r\n\t}\r\n\t\r\n\tmodifier patientUnlisted(uint patientID) {\r\n\t\trequire(patientPool[patientID] == false);\r\n\t\t_;\r\n\t}\r\n\t\r\n\tmodifier unresolved(uint patientID) {\r\n\t\trequire(patients[patientID].resolved == false);\r\n\t\t_;\r\n\t}\r\n\t\r\n\t// ===============\r\n\t\r\n\t// == EVENTS ==\r\n\r\n\t// Administration \r\n\tevent CreatePowerUser(address user);\r\n\tevent CreateAdminUser(address user);\r\n\r\n\t// Functions\r\n\tevent Allocate(uint patientID, address from, address to, address allocater);\t\r\n\tevent List(uint patientID, address lister);\r\n\tevent Resolve(uint patientID, address resolver);\r\n\tevent Transfer(uint patientID, address from, address to);\r\n\tevent Update(uint patientID, address updater);\r\n\tevent Unlist(uint patientID, address unlister);\r\n\t\r\n\t// ============\r\n\t\r\n\t// == CONSTRUCTOR ==\r\n\t\r\n\tconstructor(address[] memory _powerUsers, address[] memory _adminUsers) \r\n\tERC721Full(\"Patient\", \"PAT\") public {\r\n\t\tpatientCount = 1;\r\n\t\ttotalPatients = 0;\t\r\n\t\t\r\n\t\tfor (uint i = 0; i < _powerUsers.length; i++) {\r\n\t\t\tpowerUsers[_powerUsers[i]] = true;\r\n\t\t\tsetApprovalForAll(_powerUsers[i], true);\r\n\t\t}\r\n\t\t\r\n\t\tfor (uint i = 0; i < _adminUsers.length; i++) {\r\n\t\t\tadminUsers[_adminUsers[i]] = true;\r\n\t\t\tsetApprovalForAll(_adminUsers[i], true);\r\n\t\t}\r\n\t}\r\n\t\r\n\t// =================\r\n\t\r\n\t// == ADMINISTRATION ==\r\n\t\r\n\t// Create power user\r\n\tfunction createPowerUser(address user) \r\n\tpublic onlyOwner {\r\n\t\tpowerUsers[user] = true;\r\n\t\tsetApprovalForAll(user, true);\r\n\t\t\r\n\t\temit CreatePowerUser(user);\r\n\t}\r\n\t\r\n\t// Check power user\r\n\tfunction getPowerUser(address user) \r\n\tpublic view onlyOwner\r\n\treturns (bool) {\r\n\t\treturn powerUsers[user];\r\n\t}\r\n\t\r\n\t// Create admin user\r\n\tfunction createAdminUser(address user) \r\n\tpublic onlyPowerAndUp {\r\n\t\tadminUsers[user] = true;\r\n\t\tsetApprovalForAll(user, true);\r\n\t\t\r\n\t\temit CreateAdminUser(user);\r\n\t}\r\n\t\r\n\t// Check admin user\r\n\tfunction getAdminUser(address user) \r\n\tpublic view onlyPowerAndUp\r\n\treturns (bool) {\r\n\t\treturn adminUsers[user];\r\n\t}\r\n\t\r\n\t// ====================\r\n\t\r\n\t// == FUNCTIONS ==\r\n\t\r\n\t// Allocate a patient to a student\r\n\tfunction allocatePatient(uint patientID, address student) \r\n\tpublic onlyPowerAndUpAndRequest patientListed(patientID) {\t\t\r\n\t\t// Allocate patient to student\r\n\t\tpatients[patientID].owner = student;\r\n\t\ttransferFrom(address(this), student, patientID);\r\n\t\t\r\n\t\t// Remove patient from patient pool\r\n\t\tdelete patientPool[patientID];\r\n\t\t\r\n\t\temit Allocate(patientID, address(this), student, msg.sender);\r\n\t}\r\n\t\r\n\t//Create patient\r\n\tfunction createPatient(string memory name, string memory contactNum, \r\n\t\t\t\t\t\t   uint[] memory possessedIndications) \r\n\tpublic onlyPowerAndUp \r\n\treturns (uint) {\r\n\t\t// Create patient\r\n\t\t_Patient memory _patient = _Patient(\r\n\t\t\tpatientCount, \r\n\t\t\tname, \r\n\t\t\tcontactNum, \r\n\t\t\tpossessedIndications,\r\n\t\t\taddress(0),\r\n\t\t\tfalse\r\n\t\t);\t   \r\n\t\t\r\n\t\t// Allocate patient ID to patient\r\n\t\tpatients[patientCount] = _patient;\r\n\t\t// Tag patient to ERC721 token\r\n\t\t_mint(address(this), patientCount);\r\n\t\t\r\n\t\ttotalPatients++;\r\n\t\t\r\n\t\treturn patientCount++;\r\n\t}\r\n\t\r\n\t// Register a patient in the patient pool\r\n\tfunction listPatient(uint patientID) \r\n\tpublic onlyPowerAndUp patientUnlisted(patientID) unresolved(patientID) {\t\t\r\n\t\t// Register patient ID in patient pool\r\n\t\tpatientPool[patientID] = true;\r\n\t\t\r\n\t\temit List(patientCount, msg.sender);\r\n\t}\r\n\t\r\n\t// Resolve a patient post-processing\r\n\tfunction resolvePatient(uint patientID)\r\n\tpublic onlyStudent(patientID) unresolved(patientID) {\r\n\t\tpatients[patientID].resolved = true;\r\n\t\t\r\n\t\temit Resolve(patientID, msg.sender);\r\n\t}\r\n\t\r\n\t// Set request address for allocation permission\r\n\tfunction setRequestAddress(address _requestAddress) \r\n\tpublic onlyOwner {\r\n\t\trequestAddress = _requestAddress;\r\n\t}\r\n\t\r\n\t// Transfer patient between students\r\n\tfunction studentTransfer(uint patientID, address student) \r\n\tpublic unresolved(patientID) {\r\n\t\t// Re-allocate patient to new student\r\n\t\ttransferFrom(msg.sender, student, patientID);\r\n\t\t\r\n\t\t// Update new owner\r\n\t\tpatients[patientID].owner = student;\r\n\t\t\r\n\t\temit Transfer(patientID, msg.sender, student);\r\n\t}\r\n\t\r\n\t// Update patient information\r\n\tfunction updatePatient(uint patientID, string memory _name,\r\n\t\t\t\t\t\t   string memory _contactNum,\r\n\t\t\t\t\t\t   uint[] memory _possessedIndications,\r\n\t\t\t\t\t\t   address _owner, bool resolution)\r\n\tpublic onlyPowerAndUp {\r\n\t\tpatients[patientID].name = _name;\r\n\t\tpatients[patientID].contactNum = _contactNum;\r\n\t\tpatients[patientID].possessedIndications = _possessedIndications;\r\n\t\tpatients[patientID].owner = _owner;\r\n\t\tpatients[patientID].resolved = resolution;\r\n\t\t\r\n\t\temit Update(patientID, msg.sender);\r\n\t}\t\r\n\t\t\r\n\t// Unlist a patient in the patient pool\r\n\tfunction unlistPatient(uint patientID) \r\n\tpublic onlyPowerAndUp patientListed(patientID) {\t\t\r\n\t\t// Remove patient from patient pool\r\n\t\tdelete patientPool[patientID];\r\n\t\t\r\n\t\temit Unlist(patientCount, msg.sender);\r\n\t}\r\n\t\r\n\t// ===============\r\n\t\r\n\t// == GETTERS ==\r\n\t\r\n\t// Return all indications from patient\r\n\tfunction getIndications(uint patientID) \r\n\tpublic view returns (uint[] memory) {\t\t\r\n\t\treturn patients[patientID].possessedIndications;\r\n\t}\r\n\t\r\n\t// Return contract owner\r\n\tfunction getOwner() \r\n\tpublic view returns (address) {\r\n\t\treturn owner;\r\n\t}\r\n\t\r\n\t// Return all credentials of a patient\r\n\tfunction getPatient(uint patientID) \r\n\tpublic onlyAdminAndUp\r\n\tview returns (string memory, string memory, uint[] memory, address, bool) {\r\n\t\treturn (patients[patientID].name, patients[patientID].contactNum,\r\n\t\t\t    patients[patientID].possessedIndications, patients[patientID].owner,\r\n\t\t\t    patients[patientID].resolved);\r\n\t}\r\n\t\r\n\t// Return total number of patients\r\n\tfunction getTotalPatients() \r\n\tpublic view returns (uint) {\r\n\t\treturn totalPatients;\r\n\t}\r\n\t\r\n\t// =============\r\n}",
  "sourcePath": "C:\\Users\\jason\\OneDrive\\Desktop\\NUS\\Y3S2\\IS4302\\Project\\Patient-Allocation-System\\contracts\\Patient.sol",
  "compiler": {
    "name": "solc",
    "version": "0.5.16+commit.9c3226ce.Emscripten.clang"
  },
  "schemaVersion": "3.0.23",
  "updatedAt": "2020-04-11T13:59:14.749Z",
  "networkType": "ethereum",
  "devdoc": {
    "methods": {
      "approve(address,uint256)": {
        "details": "Approves another address to transfer the given token ID The zero address indicates there is no approved address. There can only be one approved address per token at a given time. Can only be called by the token owner or an approved operator.",
        "params": {
          "to": "address to be approved for the given token ID",
          "tokenId": "uint256 ID of the token to be approved"
        }
      },
      "balanceOf(address)": {
        "details": "Gets the balance of the specified address.",
        "params": {
          "owner": "address to query the balance of"
        },
        "return": "uint256 representing the amount owned by the passed address"
      },
      "getApproved(uint256)": {
        "details": "Gets the approved address for a token ID, or zero if no address set Reverts if the token ID does not exist.",
        "params": {
          "tokenId": "uint256 ID of the token to query the approval of"
        },
        "return": "address currently approved for the given token ID"
      },
      "isApprovedForAll(address,address)": {
        "details": "Tells whether an operator is approved by a given owner.",
        "params": {
          "operator": "operator address which you want to query the approval of",
          "owner": "owner address which you want to query the approval of"
        },
        "return": "bool whether the given operator is approved by the given owner"
      },
      "name()": {
        "details": "Gets the token name.",
        "return": "string representing the token name"
      },
      "ownerOf(uint256)": {
        "details": "Gets the owner of the specified token ID.",
        "params": {
          "tokenId": "uint256 ID of the token to query the owner of"
        },
        "return": "address currently marked as the owner of the given token ID"
      },
      "safeTransferFrom(address,address,uint256)": {
        "details": "Safely transfers the ownership of a given token ID to another address If the target address is a contract, it must implement `onERC721Received`, which is called upon a safe transfer, and return the magic value `bytes4(keccak256(\"onERC721Received(address,address,uint256,bytes)\"))`; otherwise, the transfer is reverted. Requires the msg.sender to be the owner, approved, or operator",
        "params": {
          "from": "current owner of the token",
          "to": "address to receive the ownership of the given token ID",
          "tokenId": "uint256 ID of the token to be transferred"
        }
      },
      "safeTransferFrom(address,address,uint256,bytes)": {
        "details": "Safely transfers the ownership of a given token ID to another address If the target address is a contract, it must implement `onERC721Received`, which is called upon a safe transfer, and return the magic value `bytes4(keccak256(\"onERC721Received(address,address,uint256,bytes)\"))`; otherwise, the transfer is reverted. Requires the msg.sender to be the owner, approved, or operator",
        "params": {
          "_data": "bytes data to send along with a safe transfer check",
          "from": "current owner of the token",
          "to": "address to receive the ownership of the given token ID",
          "tokenId": "uint256 ID of the token to be transferred"
        }
      },
      "setApprovalForAll(address,bool)": {
        "details": "Sets or unsets the approval of a given operator An operator is allowed to transfer all tokens of the sender on their behalf.",
        "params": {
          "approved": "representing the status of the approval to be set",
          "to": "operator address to set the approval"
        }
      },
      "supportsInterface(bytes4)": {
        "details": "See `IERC165.supportsInterface`.      * Time complexity O(1), guaranteed to always use less than 30 000 gas."
      },
      "symbol()": {
        "details": "Gets the token symbol.",
        "return": "string representing the token symbol"
      },
      "tokenByIndex(uint256)": {
        "details": "Gets the token ID at a given index of all the tokens in this contract Reverts if the index is greater or equal to the total number of tokens.",
        "params": {
          "index": "uint256 representing the index to be accessed of the tokens list"
        },
        "return": "uint256 token ID at the given index of the tokens list"
      },
      "tokenOfOwnerByIndex(address,uint256)": {
        "details": "Gets the token ID at a given index of the tokens list of the requested owner.",
        "params": {
          "index": "uint256 representing the index to be accessed of the requested tokens list",
          "owner": "address owning the tokens list to be accessed"
        },
        "return": "uint256 token ID at the given index of the tokens list owned by the requested address"
      },
      "tokenURI(uint256)": {
        "details": "Returns an URI for a given token ID. Throws if the token ID does not exist. May return an empty string.",
        "params": {
          "tokenId": "uint256 ID of the token to query"
        }
      },
      "totalSupply()": {
        "details": "Gets the total amount of tokens stored by the contract.",
        "return": "uint256 representing the total amount of tokens"
      },
      "transferFrom(address,address,uint256)": {
        "details": "Transfers the ownership of a given token ID to another address. Usage of this method is discouraged, use `safeTransferFrom` whenever possible. Requires the msg.sender to be the owner, approved, or operator.",
        "params": {
          "from": "current owner of the token",
          "to": "address to receive the ownership of the given token ID",
          "tokenId": "uint256 ID of the token to be transferred"
        }
      }
    }
  },
  "userdoc": {
    "methods": {}
  }
}