{
  "contractName": "Request",
  "abi": [
    {
      "inputs": [
        {
          "internalType": "address[]",
          "name": "_powerUsers",
          "type": "address[]"
        },
        {
          "internalType": "address[]",
          "name": "_adminUsers",
          "type": "address[]"
        },
        {
          "internalType": "contract Patient",
          "name": "_patientContract",
          "type": "address"
        }
      ],
      "payable": false,
      "stateMutability": "nonpayable",
      "type": "constructor"
    },
    {
      "anonymous": false,
      "inputs": [
        {
          "indexed": false,
          "internalType": "address",
          "name": "user",
          "type": "address"
        }
      ],
      "name": "CreateAdminUser",
      "type": "event"
    },
    {
      "anonymous": false,
      "inputs": [
        {
          "indexed": false,
          "internalType": "address",
          "name": "user",
          "type": "address"
        }
      ],
      "name": "CreatePowerUser",
      "type": "event"
    },
    {
      "anonymous": false,
      "inputs": [
        {
          "indexed": false,
          "internalType": "uint256",
          "name": "requestID",
          "type": "uint256"
        },
        {
          "indexed": false,
          "internalType": "uint256",
          "name": "patientID",
          "type": "uint256"
        }
      ],
      "name": "Process",
      "type": "event"
    },
    {
      "anonymous": false,
      "inputs": [
        {
          "indexed": false,
          "internalType": "uint256",
          "name": "requestID",
          "type": "uint256"
        },
        {
          "indexed": false,
          "internalType": "uint256",
          "name": "score",
          "type": "uint256"
        },
        {
          "indexed": false,
          "internalType": "address",
          "name": "student",
          "type": "address"
        }
      ],
      "name": "Update",
      "type": "event"
    },
    {
      "anonymous": false,
      "inputs": [
        {
          "indexed": false,
          "internalType": "uint256",
          "name": "requestID",
          "type": "uint256"
        },
        {
          "indexed": false,
          "internalType": "address",
          "name": "withdrawer",
          "type": "address"
        }
      ],
      "name": "Withdraw",
      "type": "event"
    },
    {
      "constant": false,
      "inputs": [
        {
          "internalType": "address",
          "name": "user",
          "type": "address"
        }
      ],
      "name": "createPowerUser",
      "outputs": [],
      "payable": false,
      "stateMutability": "nonpayable",
      "type": "function"
    },
    {
      "constant": true,
      "inputs": [
        {
          "internalType": "address",
          "name": "user",
          "type": "address"
        }
      ],
      "name": "getPowerUser",
      "outputs": [
        {
          "internalType": "bool",
          "name": "",
          "type": "bool"
        }
      ],
      "payable": false,
      "stateMutability": "view",
      "type": "function"
    },
    {
      "constant": false,
      "inputs": [
        {
          "internalType": "address",
          "name": "user",
          "type": "address"
        }
      ],
      "name": "createAdminUser",
      "outputs": [],
      "payable": false,
      "stateMutability": "nonpayable",
      "type": "function"
    },
    {
      "constant": true,
      "inputs": [
        {
          "internalType": "address",
          "name": "user",
          "type": "address"
        }
      ],
      "name": "getAdminUser",
      "outputs": [
        {
          "internalType": "bool",
          "name": "",
          "type": "bool"
        }
      ],
      "payable": false,
      "stateMutability": "view",
      "type": "function"
    },
    {
      "constant": false,
      "inputs": [
        {
          "internalType": "uint256",
          "name": "score",
          "type": "uint256"
        },
        {
          "internalType": "uint256[]",
          "name": "indications",
          "type": "uint256[]"
        }
      ],
      "name": "createRequest",
      "outputs": [
        {
          "internalType": "uint256",
          "name": "",
          "type": "uint256"
        }
      ],
      "payable": false,
      "stateMutability": "nonpayable",
      "type": "function"
    },
    {
      "constant": false,
      "inputs": [
        {
          "internalType": "uint256",
          "name": "requestID",
          "type": "uint256"
        },
        {
          "internalType": "uint256",
          "name": "patientID",
          "type": "uint256"
        }
      ],
      "name": "processRequest",
      "outputs": [],
      "payable": false,
      "stateMutability": "nonpayable",
      "type": "function"
    },
    {
      "constant": false,
      "inputs": [
        {
          "internalType": "uint256",
          "name": "requestID",
          "type": "uint256"
        },
        {
          "internalType": "uint256",
          "name": "_score",
          "type": "uint256"
        }
      ],
      "name": "updateScore",
      "outputs": [],
      "payable": false,
      "stateMutability": "nonpayable",
      "type": "function"
    },
    {
      "constant": false,
      "inputs": [
        {
          "internalType": "uint256",
          "name": "requestID",
          "type": "uint256"
        }
      ],
      "name": "withdrawRequest",
      "outputs": [],
      "payable": false,
      "stateMutability": "nonpayable",
      "type": "function"
    },
    {
      "constant": true,
      "inputs": [],
      "name": "getOwner",
      "outputs": [
        {
          "internalType": "address",
          "name": "",
          "type": "address"
        }
      ],
      "payable": false,
      "stateMutability": "view",
      "type": "function"
    },
    {
      "constant": true,
      "inputs": [
        {
          "internalType": "uint256",
          "name": "requestID",
          "type": "uint256"
        }
      ],
      "name": "getRequest",
      "outputs": [
        {
          "internalType": "address",
          "name": "",
          "type": "address"
        },
        {
          "internalType": "uint256",
          "name": "",
          "type": "uint256"
        },
        {
          "internalType": "uint256",
          "name": "",
          "type": "uint256"
        },
        {
          "internalType": "uint256",
          "name": "",
          "type": "uint256"
        },
        {
          "internalType": "uint256[]",
          "name": "",
          "type": "uint256[]"
        },
        {
          "internalType": "bool",
          "name": "",
          "type": "bool"
        }
      ],
      "payable": false,
      "stateMutability": "view",
      "type": "function"
    },
    {
      "constant": true,
      "inputs": [],
      "name": "getTotalRequests",
      "outputs": [
        {
          "internalType": "uint256",
          "name": "",
          "type": "uint256"
        }
      ],
      "payable": false,
      "stateMutability": "view",
      "type": "function"
    }
  ],
  "bytecode": "0x608060405233600160006101000a81548173ffffffffffffffffffffffffffffffffffffffff021916908373ffffffffffffffffffffffffffffffffffffffff1602179055503480156200005257600080fd5b506040516200196738038062001967833981810160405260608110156200007857600080fd5b81019080805160405193929190846401000000008211156200009957600080fd5b83820191506020820185811115620000b057600080fd5b8251866020820283011164010000000082111715620000ce57600080fd5b8083526020830192505050908051906020019060200280838360005b8381101562000107578082015181840152602081019050620000ea565b50505050905001604052602001805160405193929190846401000000008211156200013157600080fd5b838201915060208201858111156200014857600080fd5b82518660208202830111640100000000821117156200016657600080fd5b8083526020830192505050908051906020019060200280838360005b838110156200019f57808201518184015260208101905062000182565b50505050905001604052602001805190602001909291905050506001600581905550600060068190555060008090505b83518110156200025357600160026000868481518110620001ec57fe5b602002602001015173ffffffffffffffffffffffffffffffffffffffff1673ffffffffffffffffffffffffffffffffffffffff16815260200190815260200160002060006101000a81548160ff0219169083151502179055508080600101915050620001cf565b5060008090505b8251811015620002de576001600360008584815181106200027757fe5b602002602001015173ffffffffffffffffffffffffffffffffffffffff1673ffffffffffffffffffffffffffffffffffffffff16815260200190815260200160002060006101000a81548160ff02191690831515021790555080806001019150506200025a565b50806000806101000a81548173ffffffffffffffffffffffffffffffffffffffff021916908373ffffffffffffffffffffffffffffffffffffffff16021790555050505061163580620003326000396000f3fe608060405234801561001057600080fd5b50600436106100a95760003560e01c8063b7e306a311610071578063b7e306a3146101fe578063c58343ef1461025a578063d3af4dc714610330578063dce4e7cd14610368578063f0e22d52146103ac578063f86fd909146103ca576100a9565b806309218e7b146100ae57806317f23b2e146100e657806361878fc41461014257806374899a7e14610186578063893d20e8146101b4575b600080fd5b6100e4600480360360408110156100c457600080fd5b8101908080359060200190929190803590602001909291905050506104a0565b005b610128600480360360208110156100fc57600080fd5b81019080803573ffffffffffffffffffffffffffffffffffffffff1690602001909291905050506105c2565b604051808215151515815260200191505060405180910390f35b6101846004803603602081101561015857600080fd5b81019080803573ffffffffffffffffffffffffffffffffffffffff169060200190929190505050610672565b005b6101b26004803603602081101561019c57600080fd5b810190808035906020019092919050505061078a565b005b6101bc6109db565b604051808273ffffffffffffffffffffffffffffffffffffffff1673ffffffffffffffffffffffffffffffffffffffff16815260200191505060405180910390f35b6102406004803603602081101561021457600080fd5b81019080803573ffffffffffffffffffffffffffffffffffffffff169060200190929190505050610a05565b604051808215151515815260200191505060405180910390f35b6102866004803603602081101561027057600080fd5b8101908080359060200190929190505050610ab5565b604051808773ffffffffffffffffffffffffffffffffffffffff1673ffffffffffffffffffffffffffffffffffffffff1681526020018681526020018581526020018481526020018060200183151515158152602001828103825284818151815260200191508051906020019060200280838360005b838110156103175780820151818401526020810190506102fc565b5050505090500197505050505050505060405180910390f35b6103666004803603604081101561034657600080fd5b810190808035906020019092919080359060200190929190505050610d5a565b005b6103aa6004803603602081101561037e57600080fd5b81019080803573ffffffffffffffffffffffffffffffffffffffff1690602001909291905050506112e2565b005b6103b46113fa565b6040518082815260200191505060405180910390f35b61048a600480360360408110156103e057600080fd5b81019080803590602001909291908035906020019064010000000081111561040757600080fd5b82018360208201111561041957600080fd5b8035906020019184602083028401116401000000008311171561043b57600080fd5b919080806020026020016040519081016040528093929190818152602001838360200280828437600081840152601f19601f820116905080830192505050505050509192919290505050611404565b6040518082815260200191505060405180910390f35b600160009054906101000a900473ffffffffffffffffffffffffffffffffffffffff1673ffffffffffffffffffffffffffffffffffffffff163373ffffffffffffffffffffffffffffffffffffffff16146104fa57600080fd5b81600015156004600083815260200190815260200160002060050160009054906101000a900460ff1615151461052f57600080fd5b8160046000858152602001908152602001600020600301819055507fe48699206d9912fdcd716d9c9282664f909e92cf57d48ef98ffcadf542cfc1ba838333604051808481526020018381526020018273ffffffffffffffffffffffffffffffffffffffff1673ffffffffffffffffffffffffffffffffffffffff168152602001935050505060405180910390a1505050565b6000600160009054906101000a900473ffffffffffffffffffffffffffffffffffffffff1673ffffffffffffffffffffffffffffffffffffffff163373ffffffffffffffffffffffffffffffffffffffff161461061e57600080fd5b600360008373ffffffffffffffffffffffffffffffffffffffff1673ffffffffffffffffffffffffffffffffffffffff16815260200190815260200160002060009054906101000a900460ff169050919050565b600160009054906101000a900473ffffffffffffffffffffffffffffffffffffffff1673ffffffffffffffffffffffffffffffffffffffff163373ffffffffffffffffffffffffffffffffffffffff16146106cc57600080fd5b6001600360008373ffffffffffffffffffffffffffffffffffffffff1673ffffffffffffffffffffffffffffffffffffffff16815260200190815260200160002060006101000a81548160ff0219169083151502179055507f75c6d250f36ec3e0ac4c624b0d841492ba249d82cb2e5ff43f7d4cc03b29724881604051808273ffffffffffffffffffffffffffffffffffffffff1673ffffffffffffffffffffffffffffffffffffffff16815260200191505060405180910390a150565b803373ffffffffffffffffffffffffffffffffffffffff166004600083815260200190815260200160002060000160009054906101000a900473ffffffffffffffffffffffffffffffffffffffff1673ffffffffffffffffffffffffffffffffffffffff16148061084b575060011515600360003373ffffffffffffffffffffffffffffffffffffffff1673ffffffffffffffffffffffffffffffffffffffff16815260200190815260200160002060009054906101000a900460ff161515145b806108a6575060011515600260003373ffffffffffffffffffffffffffffffffffffffff1673ffffffffffffffffffffffffffffffffffffffff16815260200190815260200160002060009054906101000a900460ff161515145b806108fe5750600160009054906101000a900473ffffffffffffffffffffffffffffffffffffffff1673ffffffffffffffffffffffffffffffffffffffff163373ffffffffffffffffffffffffffffffffffffffff16145b61090757600080fd5b81600015156004600083815260200190815260200160002060050160009054906101000a900460ff1615151461093c57600080fd5b60016004600085815260200190815260200160002060050160006101000a81548160ff0219169083151502179055507f8353ffcac0876ad14e226d9783c04540bfebf13871e868157d2a391cad98e9188333604051808381526020018273ffffffffffffffffffffffffffffffffffffffff1673ffffffffffffffffffffffffffffffffffffffff1681526020019250505060405180910390a1505050565b6000600160009054906101000a900473ffffffffffffffffffffffffffffffffffffffff16905090565b6000600160009054906101000a900473ffffffffffffffffffffffffffffffffffffffff1673ffffffffffffffffffffffffffffffffffffffff163373ffffffffffffffffffffffffffffffffffffffff1614610a6157600080fd5b600260008373ffffffffffffffffffffffffffffffffffffffff1673ffffffffffffffffffffffffffffffffffffffff16815260200190815260200160002060009054906101000a900460ff169050919050565b60008060008060606000863373ffffffffffffffffffffffffffffffffffffffff166004600083815260200190815260200160002060000160009054906101000a900473ffffffffffffffffffffffffffffffffffffffff1673ffffffffffffffffffffffffffffffffffffffff161480610b80575060011515600360003373ffffffffffffffffffffffffffffffffffffffff1673ffffffffffffffffffffffffffffffffffffffff16815260200190815260200160002060009054906101000a900460ff161515145b80610bdb575060011515600260003373ffffffffffffffffffffffffffffffffffffffff1673ffffffffffffffffffffffffffffffffffffffff16815260200190815260200160002060009054906101000a900460ff161515145b80610c335750600160009054906101000a900473ffffffffffffffffffffffffffffffffffffffff1673ffffffffffffffffffffffffffffffffffffffff163373ffffffffffffffffffffffffffffffffffffffff16145b610c3c57600080fd5b6004600089815260200190815260200160002060000160009054906101000a900473ffffffffffffffffffffffffffffffffffffffff16600460008a815260200190815260200160002060010154600460008b815260200190815260200160002060020154600460008c815260200190815260200160002060030154600460008d8152602001908152602001600020600401600460008e815260200190815260200160002060050160009054906101000a900460ff1681805480602002602001604051908101604052809291908181526020018280548015610d3d57602002820191906000526020600020905b815481526020019060010190808311610d29575b505050505091509650965096509650965096505091939550919395565b60011515600260003373ffffffffffffffffffffffffffffffffffffffff1673ffffffffffffffffffffffffffffffffffffffff16815260200190815260200160002060009054906101000a900460ff1615151480610e065750600160009054906101000a900473ffffffffffffffffffffffffffffffffffffffff1673ffffffffffffffffffffffffffffffffffffffff163373ffffffffffffffffffffffffffffffffffffffff16145b610e0f57600080fd5b81600015156004600083815260200190815260200160002060050160009054906101000a900460ff16151514610e4457600080fd5b828260006001905060046000848152602001908152602001600020600401805490506000809054906101000a900473ffffffffffffffffffffffffffffffffffffffff1673ffffffffffffffffffffffffffffffffffffffff166313e7ca4b846040518263ffffffff1660e01b81526004018082815260200191505060006040518083038186803b158015610ed857600080fd5b505afa158015610eec573d6000803e3d6000fd5b505050506040513d6000823e3d601f19601f820116820180604052506020811015610f1657600080fd5b8101908080516040519392919084640100000000821115610f3657600080fd5b83820191506020820185811115610f4c57600080fd5b8251866020820283011164010000000082111715610f6957600080fd5b8083526020830192505050908051906020019060200280838360005b83811015610fa0578082015181840152602081019050610f85565b505050509050016040525050505114610fb857600090505b60046000848152602001908152602001600020600401600081548110610fda57fe5b90600052602060002001546000809054906101000a900473ffffffffffffffffffffffffffffffffffffffff1673ffffffffffffffffffffffffffffffffffffffff166313e7ca4b846040518263ffffffff1660e01b81526004018082815260200191505060006040518083038186803b15801561105757600080fd5b505afa15801561106b573d6000803e3d6000fd5b505050506040513d6000823e3d601f19601f82011682018060405250602081101561109557600080fd5b81019080805160405193929190846401000000008211156110b557600080fd5b838201915060208201858111156110cb57600080fd5b82518660208202830111640100000000821117156110e857600080fd5b8083526020830192505050908051906020019060200280838360005b8381101561111f578082015181840152602081019050611104565b5050505090500160405250505060008151811061113857fe5b60200260200101511461114a57600090505b600115158115151461115b57600080fd5b6000809054906101000a900473ffffffffffffffffffffffffffffffffffffffff1673ffffffffffffffffffffffffffffffffffffffff1663fb58b22286600460008a815260200190815260200160002060000160009054906101000a900473ffffffffffffffffffffffffffffffffffffffff166040518363ffffffff1660e01b8152600401808381526020018273ffffffffffffffffffffffffffffffffffffffff1673ffffffffffffffffffffffffffffffffffffffff16815260200192505050600060405180830381600087803b15801561123957600080fd5b505af115801561124d573d6000803e3d6000fd5b5050505084600460008881526020019081526020016000206002018190555060016004600088815260200190815260200160002060050160006101000a81548160ff0219169083151502179055507f248a1b5269ec6c91295e9c56aadd776823340a5f3bc09c7d347947cd1d47eefe8686604051808381526020018281526020019250505060405180910390a1505050505050565b600160009054906101000a900473ffffffffffffffffffffffffffffffffffffffff1673ffffffffffffffffffffffffffffffffffffffff163373ffffffffffffffffffffffffffffffffffffffff161461133c57600080fd5b6001600260008373ffffffffffffffffffffffffffffffffffffffff1673ffffffffffffffffffffffffffffffffffffffff16815260200190815260200160002060006101000a81548160ff0219169083151502179055507fb8af08a8c105d8bda87de9f45e99b30646362e30999b210284411a6ca71be8ff81604051808273ffffffffffffffffffffffffffffffffffffffff1673ffffffffffffffffffffffffffffffffffffffff16815260200191505060405180910390a150565b6000600654905090565b600061140e611540565b6040518060c001604052803373ffffffffffffffffffffffffffffffffffffffff1681526020016005548152602001600081526020018581526020018481526020016000151581525090508060046000600554815260200190815260200160002060008201518160000160006101000a81548173ffffffffffffffffffffffffffffffffffffffff021916908373ffffffffffffffffffffffffffffffffffffffff16021790555060208201518160010155604082015181600201556060820151816003015560808201518160040190805190602001906114f092919061158e565b5060a08201518160050160006101000a81548160ff021916908315150217905550905050600660008154809291906001019190505550600560008154809291906001019190505591505092915050565b6040518060c00160405280600073ffffffffffffffffffffffffffffffffffffffff168152602001600081526020016000815260200160008152602001606081526020016000151581525090565b8280548282559060005260206000209081019282156115ca579160200282015b828111156115c95782518255916020019190600101906115ae565b5b5090506115d791906115db565b5090565b6115fd91905b808211156115f95760008160009055506001016115e1565b5090565b9056fea265627a7a7231582078a0d3c5eaac7b29c4a8eb5c0025af85a59abb0c296c22a789fd02652a1795c164736f6c63430005100032",
  "source": "/*\r\nAuthor\t\t: Cyrus Lee\r\nMatric. No.\t: A0168385N\r\nTitle\t\t: Group02 Project - Request v1\r\n*/\r\n\r\npragma solidity ^0.5.0;\r\n\r\nimport \"./Patient.sol\";\r\n\r\ncontract Request {\r\n\t\r\n\t// == INDICATIONS ==\r\n\t\r\n\tenum Indications { \r\n\t\tCDExamCase,\r\n\t\tDentalPublicHealth,\r\n\t\tEndodontics,\r\n\t\tFixedProsthodontics,\r\n\t\tOperativeDentistry,\r\n\t\tOralSurgery,\r\n\t\tOrthodontics,\r\n\t\tPedodontics,\r\n\t\tPeriodontics,\r\n\t\tRemovableProsthodontics\r\n\t}\r\n\t\r\n\t// =================\r\n\r\n\t// == ROLES ==\r\n\t\r\n\tPatient patientContract;\r\n\taddress owner = msg.sender;\r\n\tmapping(address => bool) private powerUsers;\r\n\tmapping(address => bool) private adminUsers;\r\n\t\r\n\t// ===========\r\n\t\r\n\t// == REQUESTS == \r\n\t\r\n\tmapping(uint => _Request) private requests;\r\n\t\r\n\tstruct _Request {\r\n\t\taddress owner;\r\n\t\tuint requestID;\r\n\t\tuint allocatedPatientID;\r\n\t\tuint score;\r\n\t\tuint[] indications;\r\n\t\tbool resolved;\r\n\t}\r\n\t\r\n\t// ==============\r\n\t\r\n\t// == COUNTERS ==\r\n\t\r\n\tuint requestCount;\r\n\tuint totalRequests;\r\n\t\r\n\t// ==============\r\n\t\t\r\n\t// == MODIFIERS ==\r\n\t\r\n\tmodifier onlyOwner() {\r\n\t\trequire(msg.sender == owner);\r\n\t\t_;\r\n\t}\r\n\t\r\n\tmodifier matchingIndication(uint requestID, uint patientID) {\r\n\t\tbool passed = true;\r\n\t\tif (patientContract.getIndications(patientID).length != \r\n\t\t\trequests[requestID].indications.length) {\r\n\t\t\tpassed = false;\r\n\t\t}\r\n\t\tif (patientContract.getIndications(patientID)[0] != \r\n\t\t\trequests[requestID].indications[0]) {\r\n\t\t\tpassed = false;\r\n\t\t}\r\n\t\trequire(passed == true);\r\n\t\t_;\r\n\t}\r\n\t\r\n\tmodifier onlyPowerAndUp() {\r\n\t\trequire(powerUsers[msg.sender] == true || \r\n\t\t\t\tmsg.sender == owner);\r\n\t\t_;\r\n\t}\r\n\t\r\n\tmodifier onlyRequestOwnerAndUp(uint requestID) {\r\n\t\trequire(requests[requestID].owner == msg.sender ||\r\n\t\t\t\tadminUsers[msg.sender] == true || \r\n\t\t\t\tpowerUsers[msg.sender] == true || \r\n\t\t\t\tmsg.sender == owner);\r\n\t\t_;\r\n\t}\r\n\t\r\n\tmodifier unresolved(uint requestID) {\r\n\t\trequire(requests[requestID].resolved == false);\r\n\t\t_;\r\n\t}\r\n\t\r\n\t// ===============\r\n\t\r\n\t// == EVENTS ==\r\n\t\r\n\t// Administration \r\n\tevent CreatePowerUser(address user);\r\n\tevent CreateAdminUser(address user);\r\n\r\n\t// Functions \r\n\tevent Update(uint requestID, uint score, address student);\r\n\tevent Process(uint requestID, uint patientID);\r\n\tevent Withdraw(uint requestID, address withdrawer);\r\n\t\r\n\t// ============\r\n\t\r\n\t// == CONSTRUCTOR ==\r\n\t\r\n\tconstructor(address[] memory _powerUsers, address[] memory _adminUsers, \r\n\t\t\t\tPatient _patientContract) \r\n\tpublic {\r\n\t\trequestCount = 1;\r\n\t\ttotalRequests = 0;\t\r\n\t\t\r\n\t\tfor (uint i = 0; i < _powerUsers.length; i++) {\r\n\t\t\tpowerUsers[_powerUsers[i]] = true;\r\n\t\t}\r\n\t\t\r\n\t\tfor (uint i = 0; i < _adminUsers.length; i++) {\r\n\t\t\tadminUsers[_adminUsers[i]] = true;\r\n\t\t}\r\n\t\t\r\n\t\tpatientContract = _patientContract;\r\n\t}\r\n\t\r\n\t// =================\r\n\t\r\n\t// == ADMINISTRATION ==\r\n\t\r\n\t// Create power user\r\n\tfunction createPowerUser(address user) \r\n\tpublic onlyOwner {\r\n\t\tpowerUsers[user] = true;\r\n\t\t\r\n\t\temit CreatePowerUser(user);\r\n\t}\r\n\t\r\n\t// Check power user\r\n\tfunction getPowerUser(address user) \r\n\tpublic view onlyOwner\r\n\treturns (bool) {\r\n\t\treturn powerUsers[user];\r\n\t}\r\n\t\r\n\t// Create admin user\r\n\tfunction createAdminUser(address user) \r\n\tpublic onlyOwner {\r\n\t\tadminUsers[user] = true;\r\n\t\t\r\n\t\temit CreateAdminUser(user);\r\n\t}\r\n\t\r\n\t// Check admin user\r\n\tfunction getAdminUser(address user) \r\n\tpublic view onlyOwner\r\n\treturns (bool) {\r\n\t\treturn adminUsers[user];\r\n\t}\r\n\t\r\n\t// ====================\r\n\t\r\n\t// == FUNCTIONS ==\r\n\t\r\n\tfunction createRequest(uint score, uint[] memory indications) \r\n\tpublic \r\n\treturns (uint) {\r\n\t\t// Create request\r\n\t\t_Request memory _request = _Request(\r\n\t\t\tmsg.sender, \r\n\t\t\trequestCount, \r\n\t\t\t0, \r\n\t\t\tscore,\r\n\t\t\tindications,\r\n\t\t\tfalse\r\n\t\t);\t   \r\n\t\t\r\n\t\t// Allocate request ID to request\r\n\t\trequests[requestCount] = _request;\r\n\t\t\t\t\r\n\t\ttotalRequests++;\r\n\t\t\r\n\t\treturn requestCount++;\r\n\t}\r\n\t\r\n\tfunction processRequest(uint requestID, uint patientID) \r\n\tpublic onlyPowerAndUp unresolved(requestID) matchingIndication(requestID, patientID) {\r\n\t\t// Allocate patient to request owner\r\n\t\tpatientContract.allocatePatient(patientID, requests[requestID].owner);\r\n\t\t\r\n\t\t// Update request records\r\n\t\trequests[requestID].allocatedPatientID = patientID;\r\n\t\trequests[requestID].resolved = true;\r\n\t\t\r\n\t\temit Process(requestID, patientID);\r\n\t}\r\n\t\r\n\t// Update the score rating of a request\r\n\tfunction updateScore(uint requestID, uint _score) \r\n\tpublic onlyOwner unresolved(requestID) {\r\n\t\trequests[requestID].score = _score;\r\n\t\t\r\n\t\temit Update(requestID, _score, msg.sender);\r\n\t}\r\n\t\r\n\t// Withdraw the request\r\n\tfunction withdrawRequest(uint requestID) \r\n\tpublic onlyRequestOwnerAndUp(requestID) unresolved(requestID) {\r\n\t\trequests[requestID].resolved = true;\r\n\t\t\r\n\t\temit Withdraw(requestID, msg.sender);\r\n\t}\r\n\t\r\n\t// ===============\r\n\t\r\n\t// == GETTERS ==\r\n\t\r\n\t// Return contract owner\r\n\tfunction getOwner() \r\n\tpublic view returns (address) {\r\n\t\treturn owner;\r\n\t}\r\n\t\r\n\t// Return all information of a request\r\n\tfunction getRequest(uint requestID) \r\n\tpublic onlyRequestOwnerAndUp(requestID)\r\n\tview returns (address, uint, uint, uint, uint[] memory, bool) {\r\n\t\treturn (requests[requestID].owner, requests[requestID].requestID,\r\n\t\t\t    requests[requestID].allocatedPatientID, requests[requestID].score,\r\n\t\t\t    requests[requestID].indications, requests[requestID].resolved);\r\n\t}\r\n\t\r\n\t// Return total number of requests\r\n\tfunction getTotalRequests() \r\n\tpublic view returns (uint) {\r\n\t\treturn totalRequests;\r\n\t}\r\n\t\r\n\t// =============\r\n}",
  "sourcePath": "C:\\Users\\jason\\OneDrive\\Desktop\\NUS\\Y3S2\\IS4302\\Project\\Patient-Allocation-System\\contracts\\Request.sol",
  "compiler": {
    "name": "solc",
    "version": "0.5.16+commit.9c3226ce.Emscripten.clang"
  },
  "schemaVersion": "3.0.23",
  "updatedAt": "2020-04-13T05:57:32.746Z",
  "networkType": "ethereum",
  "devdoc": {
    "methods": {}
  },
  "userdoc": {
    "methods": {}
  }
}