{
  "contractName": "Request",
  "abi": [
    {
      "inputs": [
        {
          "internalType": "address[]",
          "name": "_powerUsers",
          "type": "address[]"
        },
        {
          "internalType": "address[]",
          "name": "_adminUsers",
          "type": "address[]"
        },
        {
          "internalType": "contract Patient",
          "name": "_patientContract",
          "type": "address"
        }
      ],
      "payable": false,
      "stateMutability": "nonpayable",
      "type": "constructor"
    },
    {
      "anonymous": false,
      "inputs": [
        {
          "indexed": false,
          "internalType": "address",
          "name": "user",
          "type": "address"
        }
      ],
      "name": "CreateAdminUser",
      "type": "event"
    },
    {
      "anonymous": false,
      "inputs": [
        {
          "indexed": false,
          "internalType": "address",
          "name": "user",
          "type": "address"
        }
      ],
      "name": "CreatePowerUser",
      "type": "event"
    },
    {
      "anonymous": false,
      "inputs": [
        {
          "indexed": false,
          "internalType": "uint256",
          "name": "requestID",
          "type": "uint256"
        },
        {
          "indexed": false,
          "internalType": "uint256",
          "name": "patientID",
          "type": "uint256"
        }
      ],
      "name": "Process",
      "type": "event"
    },
    {
      "anonymous": false,
      "inputs": [
        {
          "indexed": false,
          "internalType": "uint256",
          "name": "requestID",
          "type": "uint256"
        },
        {
          "indexed": false,
          "internalType": "address",
          "name": "student",
          "type": "address"
        }
      ],
      "name": "Update",
      "type": "event"
    },
    {
      "anonymous": false,
      "inputs": [
        {
          "indexed": false,
          "internalType": "uint256",
          "name": "requestID",
          "type": "uint256"
        },
        {
          "indexed": false,
          "internalType": "address",
          "name": "withdrawer",
          "type": "address"
        }
      ],
      "name": "Withdraw",
      "type": "event"
    },
    {
      "constant": false,
      "inputs": [
        {
          "internalType": "address",
          "name": "user",
          "type": "address"
        }
      ],
      "name": "createPowerUser",
      "outputs": [],
      "payable": false,
      "stateMutability": "nonpayable",
      "type": "function"
    },
    {
      "constant": true,
      "inputs": [
        {
          "internalType": "address",
          "name": "user",
          "type": "address"
        }
      ],
      "name": "getPowerUser",
      "outputs": [
        {
          "internalType": "bool",
          "name": "",
          "type": "bool"
        }
      ],
      "payable": false,
      "stateMutability": "view",
      "type": "function"
    },
    {
      "constant": false,
      "inputs": [
        {
          "internalType": "address",
          "name": "user",
          "type": "address"
        }
      ],
      "name": "createAdminUser",
      "outputs": [],
      "payable": false,
      "stateMutability": "nonpayable",
      "type": "function"
    },
    {
      "constant": true,
      "inputs": [
        {
          "internalType": "address",
          "name": "user",
          "type": "address"
        }
      ],
      "name": "getAdminUser",
      "outputs": [
        {
          "internalType": "bool",
          "name": "",
          "type": "bool"
        }
      ],
      "payable": false,
      "stateMutability": "view",
      "type": "function"
    },
    {
      "constant": false,
      "inputs": [
        {
          "internalType": "uint256",
          "name": "score",
          "type": "uint256"
        },
        {
          "internalType": "uint256[]",
          "name": "indications",
          "type": "uint256[]"
        }
      ],
      "name": "createRequest",
      "outputs": [
        {
          "internalType": "uint256",
          "name": "",
          "type": "uint256"
        }
      ],
      "payable": false,
      "stateMutability": "nonpayable",
      "type": "function"
    },
    {
      "constant": false,
      "inputs": [
        {
          "internalType": "uint256",
          "name": "requestID",
          "type": "uint256"
        },
        {
          "internalType": "uint256",
          "name": "patientID",
          "type": "uint256"
        }
      ],
      "name": "processRequest",
      "outputs": [],
      "payable": false,
      "stateMutability": "nonpayable",
      "type": "function"
    },
    {
      "constant": false,
      "inputs": [
        {
          "internalType": "uint256",
          "name": "requestID",
          "type": "uint256"
        },
        {
          "internalType": "uint256",
          "name": "patientID",
          "type": "uint256"
        },
        {
          "internalType": "uint256",
          "name": "score",
          "type": "uint256"
        },
        {
          "internalType": "uint256[]",
          "name": "indications",
          "type": "uint256[]"
        },
        {
          "internalType": "bool",
          "name": "resolution",
          "type": "bool"
        }
      ],
      "name": "updateRequest",
      "outputs": [],
      "payable": false,
      "stateMutability": "nonpayable",
      "type": "function"
    },
    {
      "constant": false,
      "inputs": [
        {
          "internalType": "uint256",
          "name": "requestID",
          "type": "uint256"
        }
      ],
      "name": "withdrawRequest",
      "outputs": [],
      "payable": false,
      "stateMutability": "nonpayable",
      "type": "function"
    },
    {
      "constant": true,
      "inputs": [],
      "name": "getOwner",
      "outputs": [
        {
          "internalType": "address",
          "name": "",
          "type": "address"
        }
      ],
      "payable": false,
      "stateMutability": "view",
      "type": "function"
    },
    {
      "constant": true,
      "inputs": [
        {
          "internalType": "uint256",
          "name": "requestID",
          "type": "uint256"
        }
      ],
      "name": "getRequest",
      "outputs": [
        {
          "internalType": "address",
          "name": "",
          "type": "address"
        },
        {
          "internalType": "uint256",
          "name": "",
          "type": "uint256"
        },
        {
          "internalType": "uint256",
          "name": "",
          "type": "uint256"
        },
        {
          "internalType": "uint256",
          "name": "",
          "type": "uint256"
        },
        {
          "internalType": "uint256[]",
          "name": "",
          "type": "uint256[]"
        },
        {
          "internalType": "bool",
          "name": "",
          "type": "bool"
        }
      ],
      "payable": false,
      "stateMutability": "view",
      "type": "function"
    },
    {
      "constant": true,
      "inputs": [],
      "name": "getTotalRequests",
      "outputs": [
        {
          "internalType": "uint256",
          "name": "",
          "type": "uint256"
        }
      ],
      "payable": false,
      "stateMutability": "view",
      "type": "function"
    }
  ],
  "bytecode": "0x608060405233600160006101000a81548173ffffffffffffffffffffffffffffffffffffffff021916908373ffffffffffffffffffffffffffffffffffffffff1602179055503480156200005257600080fd5b5060405162001bce38038062001bce833981810160405260608110156200007857600080fd5b81019080805160405193929190846401000000008211156200009957600080fd5b83820191506020820185811115620000b057600080fd5b8251866020820283011164010000000082111715620000ce57600080fd5b8083526020830192505050908051906020019060200280838360005b8381101562000107578082015181840152602081019050620000ea565b50505050905001604052602001805160405193929190846401000000008211156200013157600080fd5b838201915060208201858111156200014857600080fd5b82518660208202830111640100000000821117156200016657600080fd5b8083526020830192505050908051906020019060200280838360005b838110156200019f57808201518184015260208101905062000182565b50505050905001604052602001805190602001909291905050506001600581905550600060068190555060008090505b83518110156200025357600160026000868481518110620001ec57fe5b602002602001015173ffffffffffffffffffffffffffffffffffffffff1673ffffffffffffffffffffffffffffffffffffffff16815260200190815260200160002060006101000a81548160ff0219169083151502179055508080600101915050620001cf565b5060008090505b8251811015620002de576001600360008584815181106200027757fe5b602002602001015173ffffffffffffffffffffffffffffffffffffffff1673ffffffffffffffffffffffffffffffffffffffff16815260200190815260200160002060006101000a81548160ff02191690831515021790555080806001019150506200025a565b50806000806101000a81548173ffffffffffffffffffffffffffffffffffffffff021916908373ffffffffffffffffffffffffffffffffffffffff16021790555050505061189c80620003326000396000f3fe608060405234801561001057600080fd5b50600436106100a95760003560e01c8063b7e306a311610071578063b7e306a3146102a8578063c58343ef14610304578063d3af4dc7146103da578063dce4e7cd14610412578063f0e22d5214610456578063f86fd90914610474576100a9565b80630280eb9c146100ae57806317f23b2e1461019057806361878fc4146101ec57806374899a7e14610230578063893d20e81461025e575b600080fd5b61018e600480360360a08110156100c457600080fd5b81019080803590602001909291908035906020019092919080359060200190929190803590602001906401000000008111156100ff57600080fd5b82018360208201111561011157600080fd5b8035906020019184602083028401116401000000008311171561013357600080fd5b919080806020026020016040519081016040528093929190818152602001838360200280828437600081840152601f19601f82011690508083019250505050505050919291929080351515906020019092919050505061054a565b005b6101d2600480360360208110156101a657600080fd5b81019080803573ffffffffffffffffffffffffffffffffffffffff1690602001909291905050506107ff565b604051808215151515815260200191505060405180910390f35b61022e6004803603602081101561020257600080fd5b81019080803573ffffffffffffffffffffffffffffffffffffffff1690602001909291905050506108af565b005b61025c6004803603602081101561024657600080fd5b81019080803590602001909291905050506109c7565b005b610266610c18565b604051808273ffffffffffffffffffffffffffffffffffffffff1673ffffffffffffffffffffffffffffffffffffffff16815260200191505060405180910390f35b6102ea600480360360208110156102be57600080fd5b81019080803573ffffffffffffffffffffffffffffffffffffffff169060200190929190505050610c42565b604051808215151515815260200191505060405180910390f35b6103306004803603602081101561031a57600080fd5b8101908080359060200190929190505050610cf2565b604051808773ffffffffffffffffffffffffffffffffffffffff1673ffffffffffffffffffffffffffffffffffffffff1681526020018681526020018581526020018481526020018060200183151515158152602001828103825284818151815260200191508051906020019060200280838360005b838110156103c15780820151818401526020810190506103a6565b5050505090500197505050505050505060405180910390f35b610410600480360360408110156103f057600080fd5b810190808035906020019092919080359060200190929190505050610f97565b005b6104546004803603602081101561042857600080fd5b81019080803573ffffffffffffffffffffffffffffffffffffffff1690602001909291905050506114fc565b005b61045e611614565b6040518082815260200191505060405180910390f35b6105346004803603604081101561048a57600080fd5b8101908080359060200190929190803590602001906401000000008111156104b157600080fd5b8201836020820111156104c357600080fd5b803590602001918460208302840111640100000000831117156104e557600080fd5b919080806020026020016040519081016040528093929190818152602001838360200280828437600081840152601f19601f82011690508083019250505050505050919291929050505061161e565b6040518082815260200191505060405180910390f35b843373ffffffffffffffffffffffffffffffffffffffff166004600083815260200190815260200160002060000160009054906101000a900473ffffffffffffffffffffffffffffffffffffffff1673ffffffffffffffffffffffffffffffffffffffff16148061060b575060011515600360003373ffffffffffffffffffffffffffffffffffffffff1673ffffffffffffffffffffffffffffffffffffffff16815260200190815260200160002060009054906101000a900460ff161515145b80610666575060011515600260003373ffffffffffffffffffffffffffffffffffffffff1673ffffffffffffffffffffffffffffffffffffffff16815260200190815260200160002060009054906101000a900460ff161515145b806106be5750600160009054906101000a900473ffffffffffffffffffffffffffffffffffffffff1673ffffffffffffffffffffffffffffffffffffffff163373ffffffffffffffffffffffffffffffffffffffff16145b6106c757600080fd5b85600015156004600083815260200190815260200160002060050160009054906101000a900460ff161515146106fc57600080fd5b8560046000898152602001908152602001600020600201819055508460046000898152602001908152602001600020600301819055508360046000898152602001908152602001600020600401908051906020019061075c92919061175a565b50826004600089815260200190815260200160002060050160006101000a81548160ff0219169083151502179055507f2e943002f66a261aa0e546cf9618bd716755c99d8a3930e2fdae512c6d201be98733604051808381526020018273ffffffffffffffffffffffffffffffffffffffff1673ffffffffffffffffffffffffffffffffffffffff1681526020019250505060405180910390a150505050505050565b6000600160009054906101000a900473ffffffffffffffffffffffffffffffffffffffff1673ffffffffffffffffffffffffffffffffffffffff163373ffffffffffffffffffffffffffffffffffffffff161461085b57600080fd5b600360008373ffffffffffffffffffffffffffffffffffffffff1673ffffffffffffffffffffffffffffffffffffffff16815260200190815260200160002060009054906101000a900460ff169050919050565b600160009054906101000a900473ffffffffffffffffffffffffffffffffffffffff1673ffffffffffffffffffffffffffffffffffffffff163373ffffffffffffffffffffffffffffffffffffffff161461090957600080fd5b6001600360008373ffffffffffffffffffffffffffffffffffffffff1673ffffffffffffffffffffffffffffffffffffffff16815260200190815260200160002060006101000a81548160ff0219169083151502179055507f75c6d250f36ec3e0ac4c624b0d841492ba249d82cb2e5ff43f7d4cc03b29724881604051808273ffffffffffffffffffffffffffffffffffffffff1673ffffffffffffffffffffffffffffffffffffffff16815260200191505060405180910390a150565b803373ffffffffffffffffffffffffffffffffffffffff166004600083815260200190815260200160002060000160009054906101000a900473ffffffffffffffffffffffffffffffffffffffff1673ffffffffffffffffffffffffffffffffffffffff161480610a88575060011515600360003373ffffffffffffffffffffffffffffffffffffffff1673ffffffffffffffffffffffffffffffffffffffff16815260200190815260200160002060009054906101000a900460ff161515145b80610ae3575060011515600260003373ffffffffffffffffffffffffffffffffffffffff1673ffffffffffffffffffffffffffffffffffffffff16815260200190815260200160002060009054906101000a900460ff161515145b80610b3b5750600160009054906101000a900473ffffffffffffffffffffffffffffffffffffffff1673ffffffffffffffffffffffffffffffffffffffff163373ffffffffffffffffffffffffffffffffffffffff16145b610b4457600080fd5b81600015156004600083815260200190815260200160002060050160009054906101000a900460ff16151514610b7957600080fd5b60016004600085815260200190815260200160002060050160006101000a81548160ff0219169083151502179055507f8353ffcac0876ad14e226d9783c04540bfebf13871e868157d2a391cad98e9188333604051808381526020018273ffffffffffffffffffffffffffffffffffffffff1673ffffffffffffffffffffffffffffffffffffffff1681526020019250505060405180910390a1505050565b6000600160009054906101000a900473ffffffffffffffffffffffffffffffffffffffff16905090565b6000600160009054906101000a900473ffffffffffffffffffffffffffffffffffffffff1673ffffffffffffffffffffffffffffffffffffffff163373ffffffffffffffffffffffffffffffffffffffff1614610c9e57600080fd5b600260008373ffffffffffffffffffffffffffffffffffffffff1673ffffffffffffffffffffffffffffffffffffffff16815260200190815260200160002060009054906101000a900460ff169050919050565b60008060008060606000863373ffffffffffffffffffffffffffffffffffffffff166004600083815260200190815260200160002060000160009054906101000a900473ffffffffffffffffffffffffffffffffffffffff1673ffffffffffffffffffffffffffffffffffffffff161480610dbd575060011515600360003373ffffffffffffffffffffffffffffffffffffffff1673ffffffffffffffffffffffffffffffffffffffff16815260200190815260200160002060009054906101000a900460ff161515145b80610e18575060011515600260003373ffffffffffffffffffffffffffffffffffffffff1673ffffffffffffffffffffffffffffffffffffffff16815260200190815260200160002060009054906101000a900460ff161515145b80610e705750600160009054906101000a900473ffffffffffffffffffffffffffffffffffffffff1673ffffffffffffffffffffffffffffffffffffffff163373ffffffffffffffffffffffffffffffffffffffff16145b610e7957600080fd5b6004600089815260200190815260200160002060000160009054906101000a900473ffffffffffffffffffffffffffffffffffffffff16600460008a815260200190815260200160002060010154600460008b815260200190815260200160002060020154600460008c815260200190815260200160002060030154600460008d8152602001908152602001600020600401600460008e815260200190815260200160002060050160009054906101000a900460ff1681805480602002602001604051908101604052809291908181526020018280548015610f7a57602002820191906000526020600020905b815481526020019060010190808311610f66575b505050505091509650965096509650965096505091939550919395565b60011515600260003373ffffffffffffffffffffffffffffffffffffffff1673ffffffffffffffffffffffffffffffffffffffff16815260200190815260200160002060009054906101000a900460ff16151514806110435750600160009054906101000a900473ffffffffffffffffffffffffffffffffffffffff1673ffffffffffffffffffffffffffffffffffffffff163373ffffffffffffffffffffffffffffffffffffffff16145b61104c57600080fd5b81600015156004600083815260200190815260200160002060050160009054906101000a900460ff1615151461108157600080fd5b828260008090505b6000809054906101000a900473ffffffffffffffffffffffffffffffffffffffff1673ffffffffffffffffffffffffffffffffffffffff166313e7ca4b836040518263ffffffff1660e01b81526004018082815260200191505060006040518083038186803b1580156110fb57600080fd5b505afa15801561110f573d6000803e3d6000fd5b505050506040513d6000823e3d601f19601f82011682018060405250602081101561113957600080fd5b810190808051604051939291908464010000000082111561115957600080fd5b8382019150602082018581111561116f57600080fd5b825186602082028301116401000000008211171561118c57600080fd5b8083526020830192505050908051906020019060200280838360005b838110156111c35780820151818401526020810190506111a8565b5050505090500160405250505051811015611375576004600084815260200190815260200160002060040181815481106111f957fe5b90600052602060002001546000809054906101000a900473ffffffffffffffffffffffffffffffffffffffff1673ffffffffffffffffffffffffffffffffffffffff166313e7ca4b846040518263ffffffff1660e01b81526004018082815260200191505060006040518083038186803b15801561127657600080fd5b505afa15801561128a573d6000803e3d6000fd5b505050506040513d6000823e3d601f19601f8201168201806040525060208110156112b457600080fd5b81019080805160405193929190846401000000008211156112d457600080fd5b838201915060208201858111156112ea57600080fd5b825186602082028301116401000000008211171561130757600080fd5b8083526020830192505050908051906020019060200280838360005b8381101561133e578082015181840152602081019050611323565b50505050905001604052505050828151811061135657fe5b60200260200101511461136857600080fd5b8080600101915050611089565b506000809054906101000a900473ffffffffffffffffffffffffffffffffffffffff1673ffffffffffffffffffffffffffffffffffffffff1663fb58b222856004600089815260200190815260200160002060000160009054906101000a900473ffffffffffffffffffffffffffffffffffffffff166040518363ffffffff1660e01b8152600401808381526020018273ffffffffffffffffffffffffffffffffffffffff1673ffffffffffffffffffffffffffffffffffffffff16815260200192505050600060405180830381600087803b15801561145457600080fd5b505af1158015611468573d6000803e3d6000fd5b5050505083600460008781526020019081526020016000206002018190555060016004600087815260200190815260200160002060050160006101000a81548160ff0219169083151502179055507f248a1b5269ec6c91295e9c56aadd776823340a5f3bc09c7d347947cd1d47eefe8585604051808381526020018281526020019250505060405180910390a15050505050565b600160009054906101000a900473ffffffffffffffffffffffffffffffffffffffff1673ffffffffffffffffffffffffffffffffffffffff163373ffffffffffffffffffffffffffffffffffffffff161461155657600080fd5b6001600260008373ffffffffffffffffffffffffffffffffffffffff1673ffffffffffffffffffffffffffffffffffffffff16815260200190815260200160002060006101000a81548160ff0219169083151502179055507fb8af08a8c105d8bda87de9f45e99b30646362e30999b210284411a6ca71be8ff81604051808273ffffffffffffffffffffffffffffffffffffffff1673ffffffffffffffffffffffffffffffffffffffff16815260200191505060405180910390a150565b6000600654905090565b60006116286117a7565b6040518060c001604052803373ffffffffffffffffffffffffffffffffffffffff1681526020016005548152602001600081526020018581526020018481526020016000151581525090508060046000600554815260200190815260200160002060008201518160000160006101000a81548173ffffffffffffffffffffffffffffffffffffffff021916908373ffffffffffffffffffffffffffffffffffffffff160217905550602082015181600101556040820151816002015560608201518160030155608082015181600401908051906020019061170a9291906117f5565b5060a08201518160050160006101000a81548160ff021916908315150217905550905050600660008154809291906001019190505550600560008154809291906001019190505591505092915050565b828054828255906000526020600020908101928215611796579160200282015b8281111561179557825182559160200191906001019061177a565b5b5090506117a39190611842565b5090565b6040518060c00160405280600073ffffffffffffffffffffffffffffffffffffffff168152602001600081526020016000815260200160008152602001606081526020016000151581525090565b828054828255906000526020600020908101928215611831579160200282015b82811115611830578251825591602001919060010190611815565b5b50905061183e9190611842565b5090565b61186491905b80821115611860576000816000905550600101611848565b5090565b9056fea265627a7a723158200071d9c22b2c81f05ff6073bc29a9a3f11ffb5a3470223addca8f6b83c0baa9364736f6c63430005100032",
  "source": "/*\r\nAuthor\t\t: Cyrus Lee\r\nMatric. No.\t: A0168385N\r\nTitle\t\t: Group02 Project - Request v1\r\n*/\r\n\r\npragma solidity ^0.5.0;\r\n\r\nimport \"./Patient.sol\";\r\n\r\ncontract Request {\r\n\t\r\n\t// == INDICATIONS ==\r\n\t\r\n\tenum Indications { \r\n\t\tCDExamCase,\r\n\t\tDentalPublicHealth,\r\n\t\tEndodontics,\r\n\t\tFixedProsthodontics,\r\n\t\tOperativeDentistry,\r\n\t\tOralSurgery,\r\n\t\tOrthodontics,\r\n\t\tPedodontics,\r\n\t\tPeriodontics,\r\n\t\tRemovableProsthodontics\r\n\t}\r\n\t\r\n\t// =================\r\n\r\n\t// == ROLES ==\r\n\t\r\n\tPatient patientContract;\r\n\taddress owner = msg.sender;\r\n\tmapping(address => bool) private powerUsers;\r\n\tmapping(address => bool) private adminUsers;\r\n\t\r\n\t// ===========\r\n\t\r\n\t// == REQUESTS == \r\n\t\r\n\tmapping(uint => _Request) private requests;\r\n\t\r\n\tstruct _Request {\r\n\t\taddress owner;\r\n\t\tuint requestID;\r\n\t\tuint allocatedPatientID;\r\n\t\tuint score;\r\n\t\tuint[] indications;\r\n\t\tbool resolved;\r\n\t}\r\n\t\r\n\t// ==============\r\n\t\r\n\t// == COUNTERS ==\r\n\t\r\n\tuint requestCount;\r\n\tuint totalRequests;\r\n\t\r\n\t// ==============\r\n\t\t\r\n\t// == MODIFIERS ==\r\n\t\r\n\tmodifier onlyOwner() {\r\n\t\trequire(msg.sender == owner);\r\n\t\t_;\r\n\t}\r\n\t\r\n\tmodifier matchingIndication(uint requestID, uint patientID) {\r\n\t\tfor (uint i = 0; i < patientContract.getIndications(patientID).length; i++) {\r\n\t\t\trequire(patientContract.getIndications(patientID)[i] == requests[requestID].indications[i]);\r\n\t\t}\r\n\t\t_;\r\n\t}\r\n\t\r\n\tmodifier onlyPowerAndUp() {\r\n\t\trequire(powerUsers[msg.sender] == true || \r\n\t\t\t\tmsg.sender == owner);\r\n\t\t_;\r\n\t}\r\n\t\r\n\tmodifier onlyRequestOwnerAndUp(uint requestID) {\r\n\t\trequire(requests[requestID].owner == msg.sender ||\r\n\t\t\t\tadminUsers[msg.sender] == true || \r\n\t\t\t\tpowerUsers[msg.sender] == true || \r\n\t\t\t\tmsg.sender == owner);\r\n\t\t_;\r\n\t}\r\n\t\r\n\tmodifier unresolved(uint requestID) {\r\n\t\trequire(requests[requestID].resolved == false);\r\n\t\t_;\r\n\t}\r\n\t\r\n\t// ===============\r\n\t\r\n\t// == EVENTS ==\r\n\t\r\n\t// Administration \r\n\tevent CreatePowerUser(address user);\r\n\tevent CreateAdminUser(address user);\r\n\r\n\t// Functions \r\n\tevent Update(uint requestID, address student);\r\n\tevent Process(uint requestID, uint patientID);\r\n\tevent Withdraw(uint requestID, address withdrawer);\r\n\t\r\n\t// ============\r\n\t\r\n\t// == CONSTRUCTOR ==\r\n\t\r\n\tconstructor(address[] memory _powerUsers, address[] memory _adminUsers, \r\n\t\t\t\tPatient _patientContract) \r\n\tpublic {\r\n\t\trequestCount = 1;\r\n\t\ttotalRequests = 0;\t\r\n\t\t\r\n\t\tfor (uint i = 0; i < _powerUsers.length; i++) {\r\n\t\t\tpowerUsers[_powerUsers[i]] = true;\r\n\t\t}\r\n\t\t\r\n\t\tfor (uint i = 0; i < _adminUsers.length; i++) {\r\n\t\t\tadminUsers[_adminUsers[i]] = true;\r\n\t\t}\r\n\t\t\r\n\t\tpatientContract = _patientContract;\r\n\t}\r\n\t\r\n\t// =================\r\n\t\r\n\t// == ADMINISTRATION ==\r\n\t\r\n\t// Create power user\r\n\tfunction createPowerUser(address user) \r\n\tpublic onlyOwner {\r\n\t\tpowerUsers[user] = true;\r\n\t\t\r\n\t\temit CreatePowerUser(user);\r\n\t}\r\n\t\r\n\t// Check power user\r\n\tfunction getPowerUser(address user) \r\n\tpublic view onlyOwner\r\n\treturns (bool) {\r\n\t\treturn powerUsers[user];\r\n\t}\r\n\t\r\n\t// Create admin user\r\n\tfunction createAdminUser(address user) \r\n\tpublic onlyOwner {\r\n\t\tadminUsers[user] = true;\r\n\t\t\r\n\t\temit CreateAdminUser(user);\r\n\t}\r\n\t\r\n\t// Check admin user\r\n\tfunction getAdminUser(address user) \r\n\tpublic view onlyOwner\r\n\treturns (bool) {\r\n\t\treturn adminUsers[user];\r\n\t}\r\n\t\r\n\t// ====================\r\n\t\r\n\t// == FUNCTIONS ==\r\n\t\r\n\tfunction createRequest(uint score, uint[] memory indications) \r\n\tpublic \r\n\treturns (uint) {\r\n\t\t// Create request\r\n\t\t_Request memory _request = _Request(\r\n\t\t\tmsg.sender, \r\n\t\t\trequestCount, \r\n\t\t\t0, \r\n\t\t\tscore,\r\n\t\t\tindications,\r\n\t\t\tfalse\r\n\t\t);\t   \r\n\t\t\r\n\t\t// Allocate request ID to request\r\n\t\trequests[requestCount] = _request;\r\n\t\t\t\t\r\n\t\ttotalRequests++;\r\n\t\t\r\n\t\treturn requestCount++;\r\n\t}\r\n\t\r\n\tfunction processRequest(uint requestID, uint patientID) \r\n\tpublic onlyPowerAndUp unresolved(requestID) matchingIndication(requestID, patientID) {\r\n\t\t// Allocate patient to request owner\r\n\t\tpatientContract.allocatePatient(patientID, requests[requestID].owner);\r\n\t\t\r\n\t\t// Update request records\r\n\t\trequests[requestID].allocatedPatientID = patientID;\r\n\t\trequests[requestID].resolved = true;\r\n\t\t\r\n\t\temit Process(requestID, patientID);\r\n\t}\r\n\t\r\n\t// Update the information of a request\r\n\tfunction updateRequest(uint requestID, uint patientID, uint score,\r\n\t\t\t\t\t\t   uint[] memory indications, bool resolution) \r\n\tpublic onlyRequestOwnerAndUp(requestID) unresolved(requestID) {\r\n\t\t// Update request\r\n\t\trequests[requestID].allocatedPatientID = patientID;\r\n\t\trequests[requestID].score = score;\r\n\t\trequests[requestID].indications = indications;\r\n\t\trequests[requestID].resolved = resolution;\r\n\r\n\t\temit Update(requestID, msg.sender);\r\n\t}\r\n\t\r\n\t// Withdraw the request\r\n\tfunction withdrawRequest(uint requestID) \r\n\tpublic onlyRequestOwnerAndUp(requestID) unresolved(requestID) {\r\n\t\trequests[requestID].resolved = true;\r\n\t\t\r\n\t\temit Withdraw(requestID, msg.sender);\r\n\t}\r\n\t\r\n\t// ===============\r\n\t\r\n\t// == GETTERS ==\r\n\t\r\n\t// Return contract owner\r\n\tfunction getOwner() \r\n\tpublic view returns (address) {\r\n\t\treturn owner;\r\n\t}\r\n\t\r\n\t// Return all information of a request\r\n\tfunction getRequest(uint requestID) \r\n\tpublic onlyRequestOwnerAndUp(requestID)\r\n\tview returns (address, uint, uint, uint, uint[] memory, bool) {\r\n\t\treturn (requests[requestID].owner, requests[requestID].requestID,\r\n\t\t\t    requests[requestID].allocatedPatientID, requests[requestID].score,\r\n\t\t\t    requests[requestID].indications, requests[requestID].resolved);\r\n\t}\r\n\t\r\n\t// Return total number of requests\r\n\tfunction getTotalRequests() \r\n\tpublic view returns (uint) {\r\n\t\treturn totalRequests;\r\n\t}\r\n\t\r\n\t// =============\r\n}",
  "sourcePath": "C:\\Users\\kai_n\\Desktop\\SEMS\\Y3S2\\IS4302\\Patient-allocation-system\\Patient-Allocation-System\\contracts\\Request.sol",
  "compiler": {
    "name": "solc",
    "version": "0.5.16+commit.9c3226ce.Emscripten.clang"
  },
  "schemaVersion": "3.0.23",
  "updatedAt": "2020-04-11T07:46:25.536Z",
  "networkType": "ethereum",
  "devdoc": {
    "methods": {}
  },
  "userdoc": {
    "methods": {}
  }
}