{
  "contractName": "Request",
  "abi": [
    {
      "inputs": [
        {
          "internalType": "address[]",
          "name": "_powerUsers",
          "type": "address[]"
        },
        {
          "internalType": "address[]",
          "name": "_adminUsers",
          "type": "address[]"
        },
        {
          "internalType": "contract Patient",
          "name": "_patientContract",
          "type": "address"
        }
      ],
      "payable": false,
      "stateMutability": "nonpayable",
      "type": "constructor"
    },
    {
      "anonymous": false,
      "inputs": [
        {
          "indexed": false,
          "internalType": "address",
          "name": "user",
          "type": "address"
        }
      ],
      "name": "CreateAdminUser",
      "type": "event"
    },
    {
      "anonymous": false,
      "inputs": [
        {
          "indexed": false,
          "internalType": "address",
          "name": "user",
          "type": "address"
        }
      ],
      "name": "CreatePowerUser",
      "type": "event"
    },
    {
      "anonymous": false,
      "inputs": [
        {
          "indexed": false,
          "internalType": "uint256",
          "name": "requestID",
          "type": "uint256"
        },
        {
          "indexed": false,
          "internalType": "uint256",
          "name": "patientID",
          "type": "uint256"
        }
      ],
      "name": "Process",
      "type": "event"
    },
    {
      "anonymous": false,
      "inputs": [
        {
          "indexed": false,
          "internalType": "uint256",
          "name": "requestID",
          "type": "uint256"
        },
        {
          "indexed": false,
          "internalType": "address",
          "name": "student",
          "type": "address"
        }
      ],
      "name": "Update",
      "type": "event"
    },
    {
      "anonymous": false,
      "inputs": [
        {
          "indexed": false,
          "internalType": "uint256",
          "name": "requestID",
          "type": "uint256"
        },
        {
          "indexed": false,
          "internalType": "address",
          "name": "withdrawer",
          "type": "address"
        }
      ],
      "name": "Withdraw",
      "type": "event"
    },
    {
      "constant": false,
      "inputs": [
        {
          "internalType": "address",
          "name": "user",
          "type": "address"
        }
      ],
      "name": "createPowerUser",
      "outputs": [],
      "payable": false,
      "stateMutability": "nonpayable",
      "type": "function"
    },
    {
      "constant": true,
      "inputs": [
        {
          "internalType": "address",
          "name": "user",
          "type": "address"
        }
      ],
      "name": "getPowerUser",
      "outputs": [
        {
          "internalType": "bool",
          "name": "",
          "type": "bool"
        }
      ],
      "payable": false,
      "stateMutability": "view",
      "type": "function"
    },
    {
      "constant": false,
      "inputs": [
        {
          "internalType": "address",
          "name": "user",
          "type": "address"
        }
      ],
      "name": "createAdminUser",
      "outputs": [],
      "payable": false,
      "stateMutability": "nonpayable",
      "type": "function"
    },
    {
      "constant": true,
      "inputs": [
        {
          "internalType": "address",
          "name": "user",
          "type": "address"
        }
      ],
      "name": "getAdminUser",
      "outputs": [
        {
          "internalType": "bool",
          "name": "",
          "type": "bool"
        }
      ],
      "payable": false,
      "stateMutability": "view",
      "type": "function"
    },
    {
      "constant": false,
      "inputs": [
        {
          "internalType": "uint256",
          "name": "score",
          "type": "uint256"
        },
        {
          "internalType": "uint256[]",
          "name": "indications",
          "type": "uint256[]"
        }
      ],
      "name": "createRequest",
      "outputs": [
        {
          "internalType": "uint256",
          "name": "",
          "type": "uint256"
        }
      ],
      "payable": false,
      "stateMutability": "nonpayable",
      "type": "function"
    },
    {
      "constant": false,
      "inputs": [
        {
          "internalType": "uint256",
          "name": "requestID",
          "type": "uint256"
        },
        {
          "internalType": "uint256",
          "name": "patientID",
          "type": "uint256"
        }
      ],
      "name": "processRequest",
      "outputs": [],
      "payable": false,
      "stateMutability": "nonpayable",
      "type": "function"
    },
    {
      "constant": false,
      "inputs": [
        {
          "internalType": "uint256",
          "name": "requestID",
          "type": "uint256"
        }
      ],
      "name": "withdrawRequest",
      "outputs": [],
      "payable": false,
      "stateMutability": "nonpayable",
      "type": "function"
    },
    {
      "constant": true,
      "inputs": [],
      "name": "getOwner",
      "outputs": [
        {
          "internalType": "address",
          "name": "",
          "type": "address"
        }
      ],
      "payable": false,
      "stateMutability": "view",
      "type": "function"
    },
    {
      "constant": true,
      "inputs": [
        {
          "internalType": "uint256",
          "name": "requestID",
          "type": "uint256"
        }
      ],
      "name": "getRequest",
      "outputs": [
        {
          "internalType": "address",
          "name": "",
          "type": "address"
        },
        {
          "internalType": "uint256",
          "name": "",
          "type": "uint256"
        },
        {
          "internalType": "uint256",
          "name": "",
          "type": "uint256"
        },
        {
          "internalType": "uint256",
          "name": "",
          "type": "uint256"
        },
        {
          "internalType": "uint256[]",
          "name": "",
          "type": "uint256[]"
        },
        {
          "internalType": "bool",
          "name": "",
          "type": "bool"
        }
      ],
      "payable": false,
      "stateMutability": "view",
      "type": "function"
    },
    {
      "constant": true,
      "inputs": [],
      "name": "getTotalRequests",
      "outputs": [
        {
          "internalType": "uint256",
          "name": "",
          "type": "uint256"
        }
      ],
      "payable": false,
      "stateMutability": "view",
      "type": "function"
    }
  ],
  "bytecode": "0x608060405233600160006101000a81548173ffffffffffffffffffffffffffffffffffffffff021916908373ffffffffffffffffffffffffffffffffffffffff1602179055503480156200005257600080fd5b506040516200180238038062001802833981810160405260608110156200007857600080fd5b81019080805160405193929190846401000000008211156200009957600080fd5b83820191506020820185811115620000b057600080fd5b8251866020820283011164010000000082111715620000ce57600080fd5b8083526020830192505050908051906020019060200280838360005b8381101562000107578082015181840152602081019050620000ea565b50505050905001604052602001805160405193929190846401000000008211156200013157600080fd5b838201915060208201858111156200014857600080fd5b82518660208202830111640100000000821117156200016657600080fd5b8083526020830192505050908051906020019060200280838360005b838110156200019f57808201518184015260208101905062000182565b50505050905001604052602001805190602001909291905050506001600581905550600060068190555060008090505b83518110156200025357600160026000868481518110620001ec57fe5b602002602001015173ffffffffffffffffffffffffffffffffffffffff1673ffffffffffffffffffffffffffffffffffffffff16815260200190815260200160002060006101000a81548160ff0219169083151502179055508080600101915050620001cf565b5060008090505b8251811015620002de576001600360008584815181106200027757fe5b602002602001015173ffffffffffffffffffffffffffffffffffffffff1673ffffffffffffffffffffffffffffffffffffffff16815260200190815260200160002060006101000a81548160ff02191690831515021790555080806001019150506200025a565b50806000806101000a81548173ffffffffffffffffffffffffffffffffffffffff021916908373ffffffffffffffffffffffffffffffffffffffff1602179055505050506114d080620003326000396000f3fe608060405234801561001057600080fd5b506004361061009e5760003560e01c8063c58343ef11610066578063c58343ef14610217578063d3af4dc7146102ed578063dce4e7cd14610325578063f0e22d5214610369578063f86fd909146103875761009e565b806317f23b2e146100a357806361878fc4146100ff57806374899a7e14610143578063893d20e814610171578063b7e306a3146101bb575b600080fd5b6100e5600480360360208110156100b957600080fd5b81019080803573ffffffffffffffffffffffffffffffffffffffff16906020019092919050505061045d565b604051808215151515815260200191505060405180910390f35b6101416004803603602081101561011557600080fd5b81019080803573ffffffffffffffffffffffffffffffffffffffff16906020019092919050505061050d565b005b61016f6004803603602081101561015957600080fd5b8101908080359060200190929190505050610625565b005b610179610876565b604051808273ffffffffffffffffffffffffffffffffffffffff1673ffffffffffffffffffffffffffffffffffffffff16815260200191505060405180910390f35b6101fd600480360360208110156101d157600080fd5b81019080803573ffffffffffffffffffffffffffffffffffffffff1690602001909291905050506108a0565b604051808215151515815260200191505060405180910390f35b6102436004803603602081101561022d57600080fd5b8101908080359060200190929190505050610950565b604051808773ffffffffffffffffffffffffffffffffffffffff1673ffffffffffffffffffffffffffffffffffffffff1681526020018681526020018581526020018481526020018060200183151515158152602001828103825284818151815260200191508051906020019060200280838360005b838110156102d45780820151818401526020810190506102b9565b5050505090500197505050505050505060405180910390f35b6103236004803603604081101561030357600080fd5b810190808035906020019092919080359060200190929190505050610bf5565b005b6103676004803603602081101561033b57600080fd5b81019080803573ffffffffffffffffffffffffffffffffffffffff16906020019092919050505061117d565b005b610371611295565b6040518082815260200191505060405180910390f35b6104476004803603604081101561039d57600080fd5b8101908080359060200190929190803590602001906401000000008111156103c457600080fd5b8201836020820111156103d657600080fd5b803590602001918460208302840111640100000000831117156103f857600080fd5b919080806020026020016040519081016040528093929190818152602001838360200280828437600081840152601f19601f82011690508083019250505050505050919291929050505061129f565b6040518082815260200191505060405180910390f35b6000600160009054906101000a900473ffffffffffffffffffffffffffffffffffffffff1673ffffffffffffffffffffffffffffffffffffffff163373ffffffffffffffffffffffffffffffffffffffff16146104b957600080fd5b600360008373ffffffffffffffffffffffffffffffffffffffff1673ffffffffffffffffffffffffffffffffffffffff16815260200190815260200160002060009054906101000a900460ff169050919050565b600160009054906101000a900473ffffffffffffffffffffffffffffffffffffffff1673ffffffffffffffffffffffffffffffffffffffff163373ffffffffffffffffffffffffffffffffffffffff161461056757600080fd5b6001600360008373ffffffffffffffffffffffffffffffffffffffff1673ffffffffffffffffffffffffffffffffffffffff16815260200190815260200160002060006101000a81548160ff0219169083151502179055507f75c6d250f36ec3e0ac4c624b0d841492ba249d82cb2e5ff43f7d4cc03b29724881604051808273ffffffffffffffffffffffffffffffffffffffff1673ffffffffffffffffffffffffffffffffffffffff16815260200191505060405180910390a150565b803373ffffffffffffffffffffffffffffffffffffffff166004600083815260200190815260200160002060000160009054906101000a900473ffffffffffffffffffffffffffffffffffffffff1673ffffffffffffffffffffffffffffffffffffffff1614806106e6575060011515600360003373ffffffffffffffffffffffffffffffffffffffff1673ffffffffffffffffffffffffffffffffffffffff16815260200190815260200160002060009054906101000a900460ff161515145b80610741575060011515600260003373ffffffffffffffffffffffffffffffffffffffff1673ffffffffffffffffffffffffffffffffffffffff16815260200190815260200160002060009054906101000a900460ff161515145b806107995750600160009054906101000a900473ffffffffffffffffffffffffffffffffffffffff1673ffffffffffffffffffffffffffffffffffffffff163373ffffffffffffffffffffffffffffffffffffffff16145b6107a257600080fd5b81600015156004600083815260200190815260200160002060050160009054906101000a900460ff161515146107d757600080fd5b60016004600085815260200190815260200160002060050160006101000a81548160ff0219169083151502179055507f8353ffcac0876ad14e226d9783c04540bfebf13871e868157d2a391cad98e9188333604051808381526020018273ffffffffffffffffffffffffffffffffffffffff1673ffffffffffffffffffffffffffffffffffffffff1681526020019250505060405180910390a1505050565b6000600160009054906101000a900473ffffffffffffffffffffffffffffffffffffffff16905090565b6000600160009054906101000a900473ffffffffffffffffffffffffffffffffffffffff1673ffffffffffffffffffffffffffffffffffffffff163373ffffffffffffffffffffffffffffffffffffffff16146108fc57600080fd5b600260008373ffffffffffffffffffffffffffffffffffffffff1673ffffffffffffffffffffffffffffffffffffffff16815260200190815260200160002060009054906101000a900460ff169050919050565b60008060008060606000863373ffffffffffffffffffffffffffffffffffffffff166004600083815260200190815260200160002060000160009054906101000a900473ffffffffffffffffffffffffffffffffffffffff1673ffffffffffffffffffffffffffffffffffffffff161480610a1b575060011515600360003373ffffffffffffffffffffffffffffffffffffffff1673ffffffffffffffffffffffffffffffffffffffff16815260200190815260200160002060009054906101000a900460ff161515145b80610a76575060011515600260003373ffffffffffffffffffffffffffffffffffffffff1673ffffffffffffffffffffffffffffffffffffffff16815260200190815260200160002060009054906101000a900460ff161515145b80610ace5750600160009054906101000a900473ffffffffffffffffffffffffffffffffffffffff1673ffffffffffffffffffffffffffffffffffffffff163373ffffffffffffffffffffffffffffffffffffffff16145b610ad757600080fd5b6004600089815260200190815260200160002060000160009054906101000a900473ffffffffffffffffffffffffffffffffffffffff16600460008a815260200190815260200160002060010154600460008b815260200190815260200160002060020154600460008c815260200190815260200160002060030154600460008d8152602001908152602001600020600401600460008e815260200190815260200160002060050160009054906101000a900460ff1681805480602002602001604051908101604052809291908181526020018280548015610bd857602002820191906000526020600020905b815481526020019060010190808311610bc4575b505050505091509650965096509650965096505091939550919395565b60011515600260003373ffffffffffffffffffffffffffffffffffffffff1673ffffffffffffffffffffffffffffffffffffffff16815260200190815260200160002060009054906101000a900460ff1615151480610ca15750600160009054906101000a900473ffffffffffffffffffffffffffffffffffffffff1673ffffffffffffffffffffffffffffffffffffffff163373ffffffffffffffffffffffffffffffffffffffff16145b610caa57600080fd5b81600015156004600083815260200190815260200160002060050160009054906101000a900460ff16151514610cdf57600080fd5b828260006001905060046000848152602001908152602001600020600401805490506000809054906101000a900473ffffffffffffffffffffffffffffffffffffffff1673ffffffffffffffffffffffffffffffffffffffff166313e7ca4b846040518263ffffffff1660e01b81526004018082815260200191505060006040518083038186803b158015610d7357600080fd5b505afa158015610d87573d6000803e3d6000fd5b505050506040513d6000823e3d601f19601f820116820180604052506020811015610db157600080fd5b8101908080516040519392919084640100000000821115610dd157600080fd5b83820191506020820185811115610de757600080fd5b8251866020820283011164010000000082111715610e0457600080fd5b8083526020830192505050908051906020019060200280838360005b83811015610e3b578082015181840152602081019050610e20565b505050509050016040525050505114610e5357600090505b60046000848152602001908152602001600020600401600081548110610e7557fe5b90600052602060002001546000809054906101000a900473ffffffffffffffffffffffffffffffffffffffff1673ffffffffffffffffffffffffffffffffffffffff166313e7ca4b846040518263ffffffff1660e01b81526004018082815260200191505060006040518083038186803b158015610ef257600080fd5b505afa158015610f06573d6000803e3d6000fd5b505050506040513d6000823e3d601f19601f820116820180604052506020811015610f3057600080fd5b8101908080516040519392919084640100000000821115610f5057600080fd5b83820191506020820185811115610f6657600080fd5b8251866020820283011164010000000082111715610f8357600080fd5b8083526020830192505050908051906020019060200280838360005b83811015610fba578082015181840152602081019050610f9f565b50505050905001604052505050600081518110610fd357fe5b602002602001015114610fe557600090505b6001151581151514610ff657600080fd5b6000809054906101000a900473ffffffffffffffffffffffffffffffffffffffff1673ffffffffffffffffffffffffffffffffffffffff1663fb58b22286600460008a815260200190815260200160002060000160009054906101000a900473ffffffffffffffffffffffffffffffffffffffff166040518363ffffffff1660e01b8152600401808381526020018273ffffffffffffffffffffffffffffffffffffffff1673ffffffffffffffffffffffffffffffffffffffff16815260200192505050600060405180830381600087803b1580156110d457600080fd5b505af11580156110e8573d6000803e3d6000fd5b5050505084600460008881526020019081526020016000206002018190555060016004600088815260200190815260200160002060050160006101000a81548160ff0219169083151502179055507f248a1b5269ec6c91295e9c56aadd776823340a5f3bc09c7d347947cd1d47eefe8686604051808381526020018281526020019250505060405180910390a1505050505050565b600160009054906101000a900473ffffffffffffffffffffffffffffffffffffffff1673ffffffffffffffffffffffffffffffffffffffff163373ffffffffffffffffffffffffffffffffffffffff16146111d757600080fd5b6001600260008373ffffffffffffffffffffffffffffffffffffffff1673ffffffffffffffffffffffffffffffffffffffff16815260200190815260200160002060006101000a81548160ff0219169083151502179055507fb8af08a8c105d8bda87de9f45e99b30646362e30999b210284411a6ca71be8ff81604051808273ffffffffffffffffffffffffffffffffffffffff1673ffffffffffffffffffffffffffffffffffffffff16815260200191505060405180910390a150565b6000600654905090565b60006112a96113db565b6040518060c001604052803373ffffffffffffffffffffffffffffffffffffffff1681526020016005548152602001600081526020018581526020018481526020016000151581525090508060046000600554815260200190815260200160002060008201518160000160006101000a81548173ffffffffffffffffffffffffffffffffffffffff021916908373ffffffffffffffffffffffffffffffffffffffff160217905550602082015181600101556040820151816002015560608201518160030155608082015181600401908051906020019061138b929190611429565b5060a08201518160050160006101000a81548160ff021916908315150217905550905050600660008154809291906001019190505550600560008154809291906001019190505591505092915050565b6040518060c00160405280600073ffffffffffffffffffffffffffffffffffffffff168152602001600081526020016000815260200160008152602001606081526020016000151581525090565b828054828255906000526020600020908101928215611465579160200282015b82811115611464578251825591602001919060010190611449565b5b5090506114729190611476565b5090565b61149891905b8082111561149457600081600090555060010161147c565b5090565b9056fea265627a7a723158200ed421427319b7ab33841046dd7a32129dc84609c30916fb5cd3810c010b082864736f6c63430005100032",
  "source": "/*\r\nAuthor\t\t: Cyrus Lee\r\nMatric. No.\t: A0168385N\r\nTitle\t\t: Group02 Project - Request v1\r\n*/\r\n\r\npragma solidity ^0.5.0;\r\n\r\nimport \"./Patient.sol\";\r\n\r\ncontract Request {\r\n\t\r\n\t// == INDICATIONS ==\r\n\t\r\n\tenum Indications { \r\n\t\tCDExamCase,\r\n\t\tDentalPublicHealth,\r\n\t\tEndodontics,\r\n\t\tFixedProsthodontics,\r\n\t\tOperativeDentistry,\r\n\t\tOralSurgery,\r\n\t\tOrthodontics,\r\n\t\tPedodontics,\r\n\t\tPeriodontics,\r\n\t\tRemovableProsthodontics\r\n\t}\r\n\t\r\n\t// =================\r\n\r\n\t// == ROLES ==\r\n\t\r\n\tPatient patientContract;\r\n\taddress owner = msg.sender;\r\n\tmapping(address => bool) private powerUsers;\r\n\tmapping(address => bool) private adminUsers;\r\n\t\r\n\t// ===========\r\n\t\r\n\t// == REQUESTS == \r\n\t\r\n\tmapping(uint => _Request) private requests;\r\n\t\r\n\tstruct _Request {\r\n\t\taddress owner;\r\n\t\tuint requestID;\r\n\t\tuint allocatedPatientID;\r\n\t\tuint score;\r\n\t\tuint[] indications;\r\n\t\tbool resolved;\r\n\t}\r\n\t\r\n\t// ==============\r\n\t\r\n\t// == COUNTERS ==\r\n\t\r\n\tuint requestCount;\r\n\tuint totalRequests;\r\n\t\r\n\t// ==============\r\n\t\t\r\n\t// == MODIFIERS ==\r\n\t\r\n\tmodifier onlyOwner() {\r\n\t\trequire(msg.sender == owner);\r\n\t\t_;\r\n\t}\r\n\t\r\n\tmodifier matchingIndication(uint requestID, uint patientID) {\r\n\t\tbool passed = true;\r\n\t\tif (patientContract.getIndications(patientID).length != \r\n\t\t\trequests[requestID].indications.length) {\r\n\t\t\tpassed = false;\r\n\t\t}\r\n\t\tif (patientContract.getIndications(patientID)[0] != \r\n\t\t\trequests[requestID].indications[0]) {\r\n\t\t\tpassed = false;\r\n\t\t}\r\n\t\trequire(passed == true);\r\n\t\t_;\r\n\t}\r\n\t\r\n\tmodifier onlyPowerAndUp() {\r\n\t\trequire(powerUsers[msg.sender] == true || \r\n\t\t\t\tmsg.sender == owner);\r\n\t\t_;\r\n\t}\r\n\t\r\n\tmodifier onlyRequestOwnerAndUp(uint requestID) {\r\n\t\trequire(requests[requestID].owner == msg.sender ||\r\n\t\t\t\tadminUsers[msg.sender] == true || \r\n\t\t\t\tpowerUsers[msg.sender] == true || \r\n\t\t\t\tmsg.sender == owner);\r\n\t\t_;\r\n\t}\r\n\t\r\n\tmodifier unresolved(uint requestID) {\r\n\t\trequire(requests[requestID].resolved == false);\r\n\t\t_;\r\n\t}\r\n\t\r\n\t// ===============\r\n\t\r\n\t// == EVENTS ==\r\n\t\r\n\t// Administration \r\n\tevent CreatePowerUser(address user);\r\n\tevent CreateAdminUser(address user);\r\n\r\n\t// Functions \r\n\tevent Update(uint requestID, address student);\r\n\tevent Process(uint requestID, uint patientID);\r\n\tevent Withdraw(uint requestID, address withdrawer);\r\n\t\r\n\t// ============\r\n\t\r\n\t// == CONSTRUCTOR ==\r\n\t\r\n\tconstructor(address[] memory _powerUsers, address[] memory _adminUsers, \r\n\t\t\t\tPatient _patientContract) \r\n\tpublic {\r\n\t\trequestCount = 1;\r\n\t\ttotalRequests = 0;\t\r\n\t\t\r\n\t\tfor (uint i = 0; i < _powerUsers.length; i++) {\r\n\t\t\tpowerUsers[_powerUsers[i]] = true;\r\n\t\t}\r\n\t\t\r\n\t\tfor (uint i = 0; i < _adminUsers.length; i++) {\r\n\t\t\tadminUsers[_adminUsers[i]] = true;\r\n\t\t}\r\n\t\t\r\n\t\tpatientContract = _patientContract;\r\n\t}\r\n\t\r\n\t// =================\r\n\t\r\n\t// == ADMINISTRATION ==\r\n\t\r\n\t// Create power user\r\n\tfunction createPowerUser(address user) \r\n\tpublic onlyOwner {\r\n\t\tpowerUsers[user] = true;\r\n\t\t\r\n\t\temit CreatePowerUser(user);\r\n\t}\r\n\t\r\n\t// Check power user\r\n\tfunction getPowerUser(address user) \r\n\tpublic view onlyOwner\r\n\treturns (bool) {\r\n\t\treturn powerUsers[user];\r\n\t}\r\n\t\r\n\t// Create admin user\r\n\tfunction createAdminUser(address user) \r\n\tpublic onlyOwner {\r\n\t\tadminUsers[user] = true;\r\n\t\t\r\n\t\temit CreateAdminUser(user);\r\n\t}\r\n\t\r\n\t// Check admin user\r\n\tfunction getAdminUser(address user) \r\n\tpublic view onlyOwner\r\n\treturns (bool) {\r\n\t\treturn adminUsers[user];\r\n\t}\r\n\t\r\n\t// ====================\r\n\t\r\n\t// == FUNCTIONS ==\r\n\t\r\n\tfunction createRequest(uint score, uint[] memory indications) \r\n\tpublic \r\n\treturns (uint) {\r\n\t\t// Create request\r\n\t\t_Request memory _request = _Request(\r\n\t\t\tmsg.sender, \r\n\t\t\trequestCount, \r\n\t\t\t0, \r\n\t\t\tscore,\r\n\t\t\tindications,\r\n\t\t\tfalse\r\n\t\t);\t   \r\n\t\t\r\n\t\t// Allocate request ID to request\r\n\t\trequests[requestCount] = _request;\r\n\t\t\t\t\r\n\t\ttotalRequests++;\r\n\t\t\r\n\t\treturn requestCount++;\r\n\t}\r\n\t\r\n\tfunction processRequest(uint requestID, uint patientID) \r\n\tpublic onlyPowerAndUp unresolved(requestID) matchingIndication(requestID, patientID) {\r\n\t\t// Allocate patient to request owner\r\n\t\tpatientContract.allocatePatient(patientID, requests[requestID].owner);\r\n\t\t\r\n\t\t// Update request records\r\n\t\trequests[requestID].allocatedPatientID = patientID;\r\n\t\trequests[requestID].resolved = true;\r\n\t\t\r\n\t\temit Process(requestID, patientID);\r\n\t}\r\n\t\r\n\t// Withdraw the request\r\n\tfunction withdrawRequest(uint requestID) \r\n\tpublic onlyRequestOwnerAndUp(requestID) unresolved(requestID) {\r\n\t\trequests[requestID].resolved = true;\r\n\t\t\r\n\t\temit Withdraw(requestID, msg.sender);\r\n\t}\r\n\t\r\n\t// ===============\r\n\t\r\n\t// == GETTERS ==\r\n\t\r\n\t// Return contract owner\r\n\tfunction getOwner() \r\n\tpublic view returns (address) {\r\n\t\treturn owner;\r\n\t}\r\n\t\r\n\t// Return all information of a request\r\n\tfunction getRequest(uint requestID) \r\n\tpublic onlyRequestOwnerAndUp(requestID)\r\n\tview returns (address, uint, uint, uint, uint[] memory, bool) {\r\n\t\treturn (requests[requestID].owner, requests[requestID].requestID,\r\n\t\t\t    requests[requestID].allocatedPatientID, requests[requestID].score,\r\n\t\t\t    requests[requestID].indications, requests[requestID].resolved);\r\n\t}\r\n\t\r\n\t// Return total number of requests\r\n\tfunction getTotalRequests() \r\n\tpublic view returns (uint) {\r\n\t\treturn totalRequests;\r\n\t}\r\n\t\r\n\t// =============\r\n}",
  "sourcePath": "C:\\Users\\jason\\OneDrive\\Desktop\\NUS\\Y3S2\\IS4302\\Project\\Patient-Allocation-System\\contracts\\Request.sol",
  "compiler": {
    "name": "solc",
    "version": "0.5.16+commit.9c3226ce.Emscripten.clang"
  },
  "schemaVersion": "3.0.23",
  "updatedAt": "2020-04-11T13:59:14.767Z",
  "networkType": "ethereum",
  "devdoc": {
    "methods": {}
  },
  "userdoc": {
    "methods": {}
  }
}